{
  "_format": "hh-sol-artifact-1",
  "contractName": "BlockSmint",
  "sourceName": "contracts/BlockSmint.sol",
  "abi": [
    {
      "anonymous": false,
      "inputs": [
        {
          "indexed": true,
          "internalType": "address",
          "name": "owner",
          "type": "address"
        },
        {
          "indexed": true,
          "internalType": "address",
          "name": "approved",
          "type": "address"
        },
        {
          "indexed": true,
          "internalType": "uint256",
          "name": "tokenId",
          "type": "uint256"
        }
      ],
      "name": "Approval",
      "type": "event"
    },
    {
      "anonymous": false,
      "inputs": [
        {
          "indexed": true,
          "internalType": "address",
          "name": "owner",
          "type": "address"
        },
        {
          "indexed": true,
          "internalType": "address",
          "name": "operator",
          "type": "address"
        },
        {
          "indexed": false,
          "internalType": "bool",
          "name": "approved",
          "type": "bool"
        }
      ],
      "name": "ApprovalForAll",
      "type": "event"
    },
    {
      "anonymous": false,
      "inputs": [
        {
          "indexed": true,
          "internalType": "address",
          "name": "delegate",
          "type": "address"
        },
        {
          "indexed": true,
          "internalType": "uint256",
          "name": "roles",
          "type": "uint256"
        }
      ],
      "name": "DelegateUpdated",
      "type": "event"
    },
    {
      "anonymous": false,
      "inputs": [
        {
          "indexed": true,
          "internalType": "address",
          "name": "previousOwner",
          "type": "address"
        },
        {
          "indexed": true,
          "internalType": "address",
          "name": "newOwner",
          "type": "address"
        }
      ],
      "name": "OwnershipTransferred",
      "type": "event"
    },
    {
      "anonymous": false,
      "inputs": [
        {
          "indexed": true,
          "internalType": "address",
          "name": "from",
          "type": "address"
        },
        {
          "indexed": true,
          "internalType": "address",
          "name": "to",
          "type": "address"
        },
        {
          "indexed": true,
          "internalType": "uint256",
          "name": "tokenId",
          "type": "uint256"
        }
      ],
      "name": "Transfer",
      "type": "event"
    },
    {
      "inputs": [],
      "name": "BURN_ROLE",
      "outputs": [
        {
          "internalType": "uint256",
          "name": "",
          "type": "uint256"
        }
      ],
      "stateMutability": "view",
      "type": "function"
    },
    {
      "inputs": [],
      "name": "DEFAULT_LOCK_DURATION",
      "outputs": [
        {
          "internalType": "uint256",
          "name": "",
          "type": "uint256"
        }
      ],
      "stateMutability": "view",
      "type": "function"
    },
    {
      "inputs": [],
      "name": "LOCK_ROLE",
      "outputs": [
        {
          "internalType": "uint256",
          "name": "",
          "type": "uint256"
        }
      ],
      "stateMutability": "view",
      "type": "function"
    },
    {
      "inputs": [],
      "name": "MINT_ROLE",
      "outputs": [
        {
          "internalType": "uint256",
          "name": "",
          "type": "uint256"
        }
      ],
      "stateMutability": "view",
      "type": "function"
    },
    {
      "inputs": [],
      "name": "TRANSFER_ROLE",
      "outputs": [
        {
          "internalType": "uint256",
          "name": "",
          "type": "uint256"
        }
      ],
      "stateMutability": "view",
      "type": "function"
    },
    {
      "inputs": [
        {
          "internalType": "address",
          "name": "to",
          "type": "address"
        },
        {
          "internalType": "uint256",
          "name": "tokenId",
          "type": "uint256"
        }
      ],
      "name": "approve",
      "outputs": [],
      "stateMutability": "nonpayable",
      "type": "function"
    },
    {
      "inputs": [
        {
          "internalType": "address",
          "name": "owner",
          "type": "address"
        }
      ],
      "name": "balanceOf",
      "outputs": [
        {
          "internalType": "uint256",
          "name": "",
          "type": "uint256"
        }
      ],
      "stateMutability": "view",
      "type": "function"
    },
    {
      "inputs": [
        {
          "internalType": "uint256",
          "name": "tokenId",
          "type": "uint256"
        }
      ],
      "name": "burn",
      "outputs": [],
      "stateMutability": "nonpayable",
      "type": "function"
    },
    {
      "inputs": [
        {
          "internalType": "address",
          "name": "",
          "type": "address"
        }
      ],
      "name": "delegates",
      "outputs": [
        {
          "internalType": "uint256",
          "name": "",
          "type": "uint256"
        }
      ],
      "stateMutability": "view",
      "type": "function"
    },
    {
      "inputs": [
        {
          "internalType": "uint256",
          "name": "tokenId",
          "type": "uint256"
        }
      ],
      "name": "getApproved",
      "outputs": [
        {
          "internalType": "address",
          "name": "",
          "type": "address"
        }
      ],
      "stateMutability": "view",
      "type": "function"
    },
    {
      "inputs": [
        {
          "internalType": "uint256",
          "name": "tokenId",
          "type": "uint256"
        }
      ],
      "name": "getLease",
      "outputs": [
        {
          "components": [
            {
              "internalType": "address",
              "name": "provenance",
              "type": "address"
            },
            {
              "internalType": "uint48",
              "name": "lockExpiration",
              "type": "uint48"
            }
          ],
          "internalType": "struct ERC721Staked.Lease",
          "name": "lease",
          "type": "tuple"
        }
      ],
      "stateMutability": "view",
      "type": "function"
    },
    {
      "inputs": [
        {
          "internalType": "uint256",
          "name": "tokenId",
          "type": "uint256"
        }
      ],
      "name": "getLockDuration",
      "outputs": [
        {
          "internalType": "uint256",
          "name": "lockDuration",
          "type": "uint256"
        }
      ],
      "stateMutability": "view",
      "type": "function"
    },
    {
      "inputs": [
        {
          "internalType": "address",
          "name": "delegate",
          "type": "address"
        },
        {
          "internalType": "uint256",
          "name": "roles",
          "type": "uint256"
        }
      ],
      "name": "hasRoles",
      "outputs": [
        {
          "internalType": "bool",
          "name": "",
          "type": "bool"
        }
      ],
      "stateMutability": "view",
      "type": "function"
    },
    {
      "inputs": [
        {
          "internalType": "string",
          "name": "_metadataAddress",
          "type": "string"
        }
      ],
      "name": "initialize",
      "outputs": [],
      "stateMutability": "nonpayable",
      "type": "function"
    },
    {
      "inputs": [
        {
          "internalType": "address",
          "name": "owner",
          "type": "address"
        },
        {
          "internalType": "address",
          "name": "operator",
          "type": "address"
        }
      ],
      "name": "isApprovedForAll",
      "outputs": [
        {
          "internalType": "bool",
          "name": "",
          "type": "bool"
        }
      ],
      "stateMutability": "view",
      "type": "function"
    },
    {
      "inputs": [
        {
          "internalType": "uint256",
          "name": "",
          "type": "uint256"
        }
      ],
      "name": "lockDurations",
      "outputs": [
        {
          "internalType": "uint256",
          "name": "",
          "type": "uint256"
        }
      ],
      "stateMutability": "view",
      "type": "function"
    },
    {
      "inputs": [],
      "name": "metadataAddress",
      "outputs": [
        {
          "internalType": "string",
          "name": "",
          "type": "string"
        }
      ],
      "stateMutability": "view",
      "type": "function"
    },
    {
      "inputs": [
        {
          "internalType": "address",
          "name": "to",
          "type": "address"
        },
        {
          "internalType": "uint256",
          "name": "tokenId",
          "type": "uint256"
        }
      ],
      "name": "mint",
      "outputs": [],
      "stateMutability": "nonpayable",
      "type": "function"
    },
    {
      "inputs": [],
      "name": "name",
      "outputs": [
        {
          "internalType": "string",
          "name": "",
          "type": "string"
        }
      ],
      "stateMutability": "view",
      "type": "function"
    },
    {
      "inputs": [],
      "name": "owner",
      "outputs": [
        {
          "internalType": "address",
          "name": "",
          "type": "address"
        }
      ],
      "stateMutability": "view",
      "type": "function"
    },
    {
      "inputs": [
        {
          "internalType": "uint256",
          "name": "tokenId",
          "type": "uint256"
        }
      ],
      "name": "ownerOf",
      "outputs": [
        {
          "internalType": "address",
          "name": "",
          "type": "address"
        }
      ],
      "stateMutability": "view",
      "type": "function"
    },
    {
      "inputs": [],
      "name": "renounceOwnership",
      "outputs": [],
      "stateMutability": "nonpayable",
      "type": "function"
    },
    {
      "inputs": [
        {
          "internalType": "address",
          "name": "oldDelegate",
          "type": "address"
        },
        {
          "internalType": "address",
          "name": "newDelegate",
          "type": "address"
        }
      ],
      "name": "replaceDelegate",
      "outputs": [],
      "stateMutability": "nonpayable",
      "type": "function"
    },
    {
      "inputs": [
        {
          "internalType": "uint256",
          "name": "tokenId",
          "type": "uint256"
        }
      ],
      "name": "revoke",
      "outputs": [],
      "stateMutability": "nonpayable",
      "type": "function"
    },
    {
      "inputs": [
        {
          "internalType": "address",
          "name": "from",
          "type": "address"
        },
        {
          "internalType": "address",
          "name": "to",
          "type": "address"
        },
        {
          "internalType": "uint256",
          "name": "tokenId",
          "type": "uint256"
        }
      ],
      "name": "safeTransferFrom",
      "outputs": [],
      "stateMutability": "nonpayable",
      "type": "function"
    },
    {
      "inputs": [
        {
          "internalType": "address",
          "name": "from",
          "type": "address"
        },
        {
          "internalType": "address",
          "name": "to",
          "type": "address"
        },
        {
          "internalType": "uint256",
          "name": "tokenId",
          "type": "uint256"
        },
        {
          "internalType": "bytes",
          "name": "_data",
          "type": "bytes"
        }
      ],
      "name": "safeTransferFrom",
      "outputs": [],
      "stateMutability": "nonpayable",
      "type": "function"
    },
    {
      "inputs": [
        {
          "internalType": "address",
          "name": "operator",
          "type": "address"
        },
        {
          "internalType": "bool",
          "name": "approved",
          "type": "bool"
        }
      ],
      "name": "setApprovalForAll",
      "outputs": [],
      "stateMutability": "nonpayable",
      "type": "function"
    },
    {
      "inputs": [
        {
          "internalType": "uint256",
          "name": "tokenId",
          "type": "uint256"
        },
        {
          "internalType": "uint256",
          "name": "lockDuration",
          "type": "uint256"
        }
      ],
      "name": "setLockDuration",
      "outputs": [],
      "stateMutability": "nonpayable",
      "type": "function"
    },
    {
      "inputs": [
        {
          "internalType": "string",
          "name": "_metadataAddress",
          "type": "string"
        }
      ],
      "name": "setMetadataAddress",
      "outputs": [],
      "stateMutability": "nonpayable",
      "type": "function"
    },
    {
      "inputs": [
        {
          "internalType": "bytes4",
          "name": "interfaceId",
          "type": "bytes4"
        }
      ],
      "name": "supportsInterface",
      "outputs": [
        {
          "internalType": "bool",
          "name": "",
          "type": "bool"
        }
      ],
      "stateMutability": "view",
      "type": "function"
    },
    {
      "inputs": [],
      "name": "symbol",
      "outputs": [
        {
          "internalType": "string",
          "name": "",
          "type": "string"
        }
      ],
      "stateMutability": "view",
      "type": "function"
    },
    {
      "inputs": [
        {
          "internalType": "uint256",
          "name": "tokenId",
          "type": "uint256"
        }
      ],
      "name": "tokenURI",
      "outputs": [
        {
          "internalType": "string",
          "name": "",
          "type": "string"
        }
      ],
      "stateMutability": "view",
      "type": "function"
    },
    {
      "inputs": [
        {
          "internalType": "address",
          "name": "from",
          "type": "address"
        },
        {
          "internalType": "address",
          "name": "to",
          "type": "address"
        },
        {
          "internalType": "uint256",
          "name": "tokenId",
          "type": "uint256"
        }
      ],
      "name": "transferFrom",
      "outputs": [],
      "stateMutability": "nonpayable",
      "type": "function"
    },
    {
      "inputs": [
        {
          "internalType": "address",
          "name": "newOwner",
          "type": "address"
        }
      ],
      "name": "transferOwnership",
      "outputs": [],
      "stateMutability": "nonpayable",
      "type": "function"
    },
    {
      "inputs": [
        {
          "internalType": "address",
          "name": "delegate",
          "type": "address"
        },
        {
          "internalType": "uint256",
          "name": "roles",
          "type": "uint256"
        }
      ],
      "name": "updateDelegate",
      "outputs": [],
      "stateMutability": "nonpayable",
      "type": "function"
    }
  ],
  "bytecode": "0x608060405234801561001057600080fd5b50612466806100206000396000f3fe608060405234801561001057600080fd5b50600436106102115760003560e01c80636352211e11610125578063b930908f116100ad578063e985e9c51161007c578063e985e9c514610491578063e9a9c850146104cd578063ee3ca99c146104d5578063f2fde38b146104df578063f62d1888146104f257600080fd5b8063b930908f14610450578063c87b56dd14610458578063d25117d81461046b578063d9a2e7311461047e57600080fd5b80638da5cb5b116100f45780638da5cb5b146103d257806395d89b41146103e35780639f44657c146103eb578063a22cb4651461042a578063b88d4fde1461043d57600080fd5b80636352211e1461039c5780636eb3500d146103af57806370a08231146103b7578063715018a6146103ca57600080fd5b806323b872dd116101a857806340c10f191161017757806340c10f191461033057806342842e0e1461034357806342966c681461035657806356e70d1214610369578063587cde1e1461037c57600080fd5b806323b872dd146102e25780632f286b1b146102f557806332298be1146102fd57806336c2f4251461031d57600080fd5b8063112ff489116101e4578063112ff48914610293578063126796dd146102a6578063206b60f9146102b957806320c5429b146102cf57600080fd5b806301ffc9a71461021657806306fdde031461023e578063081812fc14610253578063095ea7b31461027e575b600080fd5b610229610224366004612028565b610505565b60405190151581526020015b60405180910390f35b610246610557565b6040516102359190612177565b6102666102613660046120a6565b6105e9565b6040516001600160a01b039091168152602001610235565b61029161028c366004611fff565b610683565b005b6102296102a1366004611fff565b610799565b6102916102b43660046120be565b6107ba565b6102c1600481565b604051908152602001610235565b6102916102dd3660046120a6565b6107f5565b6102916102f0366004611f11565b610873565b6102c1600881565b6102c161030b3660046120a6565b60fc6020526000908152604090205481565b61029161032b366004611edf565b6108bc565b61029161033e366004611fff565b610915565b610291610351366004611f11565b6109a9565b6102916103643660046120a6565b6109c4565b610291610377366004612060565b6109f5565b6102c161038a366004611ec5565b60c96020526000908152604090205481565b6102666103aa3660046120a6565b610a32565b610246610aa9565b6102c16103c5366004611ec5565b610b37565b610291610bbe565b6097546001600160a01b0316610266565b610246610bf4565b6103fe6103f93660046120a6565b610c03565b6040805182516001600160a01b0316815260209283015165ffffffffffff169281019290925201610235565b610291610438366004611fc5565b610c92565b61029161044b366004611f4c565b610d57565b6102c1600281565b6102466104663660046120a6565b610d89565b610291610479366004611fff565b610e71565b6102c161048c3660046120a6565b610f11565b61022961049f366004611edf565b6001600160a01b039182166000908152606a6020908152604080832093909416825291909152205460ff1690565b6102c1600181565b6102c162093a8081565b6102916104ed366004611ec5565b610f2f565b610291610500366004612060565b610fca565b60006001600160e01b031982166380ac58cd60e01b148061053657506001600160e01b03198216635b5e139f60e01b145b8061055157506301ffc9a760e01b6001600160e01b03198316145b92915050565b6060606580546105669061236e565b80601f01602080910402602001604051908101604052809291908181526020018280546105929061236e565b80156105df5780601f106105b4576101008083540402835291602001916105df565b820191906000526020600020905b8154815290600101906020018083116105c257829003601f168201915b5050505050905090565b6000818152606760205260408120546001600160a01b03166106675760405162461bcd60e51b815260206004820152602c60248201527f4552433732313a20617070726f76656420717565727920666f72206e6f6e657860448201526b34b9ba32b73a103a37b5b2b760a11b60648201526084015b60405180910390fd5b506000908152606960205260409020546001600160a01b031690565b600061068e82610a32565b9050806001600160a01b0316836001600160a01b031614156106fc5760405162461bcd60e51b815260206004820152602160248201527f4552433732313a20617070726f76616c20746f2063757272656e74206f776e656044820152603960f91b606482015260840161065e565b336001600160a01b03821614806107185750610718813361049f565b61078a5760405162461bcd60e51b815260206004820152603860248201527f4552433732313a20617070726f76652063616c6c6572206973206e6f74206f7760448201527f6e6572206e6f7220617070726f76656420666f7220616c6c0000000000000000606482015260840161065e565b6107948383611093565b505050565b6001600160a01b0391909116600090815260c9602052604090205481161490565b60086107c63382610799565b6107e25760405162461bcd60e51b815260040161065e906121dc565b50600091825260fc602052604090912055565b600081815260fd60205260409020546001600160a01b031633811461085c5760405162461bcd60e51b815260206004820152601860248201527f43616c6c6572206973206e6f742070726f76656e616e63650000000000000000604482015260640161065e565b61086f61086883610a32565b8284611101565b5050565b3361087e81836112ac565b8061088f575061088f816004610799565b6108ab5760405162461bcd60e51b815260040161065e906122ae565b6108b6848484611101565b50505050565b6097546001600160a01b031633146108e65760405162461bcd60e51b815260040161065e90612279565b6001600160a01b038216600090815260c960205260408120549061090b908490610e71565b6107948282610e71565b60016109213382610799565b61093d5760405162461bcd60e51b815260040161065e906121dc565b600260ca5414156109905760405162461bcd60e51b815260206004820152601f60248201527f5265656e7472616e637947756172643a207265656e7472616e742063616c6c00604482015260640161065e565b600260ca5561099f83836113a3565b5050600160ca5550565b61079483838360405180602001604052806000815250610d57565b60026109d03382610799565b6109ec5760405162461bcd60e51b815260040161065e906121dc565b61086f826113bd565b6097546001600160a01b03163314610a1f5760405162461bcd60e51b815260040161065e90612279565b805161086f9060fe906020840190611d9f565b6000818152606760205260408120546001600160a01b0316806105515760405162461bcd60e51b815260206004820152602960248201527f4552433732313a206f776e657220717565727920666f72206e6f6e657869737460448201526832b73a103a37b5b2b760b91b606482015260840161065e565b60fe8054610ab69061236e565b80601f0160208091040260200160405190810160405280929190818152602001828054610ae29061236e565b8015610b2f5780601f10610b0457610100808354040283529160200191610b2f565b820191906000526020600020905b815481529060010190602001808311610b1257829003601f168201915b505050505081565b60006001600160a01b038216610ba25760405162461bcd60e51b815260206004820152602a60248201527f4552433732313a2062616c616e636520717565727920666f7220746865207a65604482015269726f206164647265737360b01b606482015260840161065e565b506001600160a01b031660009081526068602052604090205490565b6097546001600160a01b03163314610be85760405162461bcd60e51b815260040161065e90612279565b610bf26000611464565b565b6060606680546105669061236e565b6040805180820182526000808252602091820181905283815260fd82528290208251808401909352546001600160a01b038116808452600160a01b90910465ffffffffffff1691830191909152158015610c7357506000828152606760205260409020546001600160a01b031615155b15610c8d57610c8182610a32565b6001600160a01b031681525b919050565b6001600160a01b038216331415610ceb5760405162461bcd60e51b815260206004820152601960248201527f4552433732313a20617070726f766520746f2063616c6c657200000000000000604482015260640161065e565b336000818152606a602090815260408083206001600160a01b03871680855290835292819020805460ff191686151590811790915590519081529192917f17307eab39ab6107e8899845ad3d59bd9653f200f220920489ca2b5937696c31910160405180910390a35050565b610d6133836112ac565b610d7d5760405162461bcd60e51b815260040161065e906122ae565b6108b6848484846114b6565b6000818152606760205260409020546060906001600160a01b0316610e085760405162461bcd60e51b815260206004820152602f60248201527f4552433732314d657461646174613a2055524920717565727920666f72206e6f60448201526e3732bc34b9ba32b73a103a37b5b2b760891b606482015260840161065e565b6000610e1f60408051602081019091526000815290565b90506000815111610e3f5760405180602001604052806000815250610e6a565b80610e49846114e9565b604051602001610e5a92919061210b565b6040516020818303038152906040525b9392505050565b6097546001600160a01b03163314610e9b5760405162461bcd60e51b815260040161065e90612279565b6001600160a01b038216610f075760405162461bcd60e51b815260206004820152602d60248201527f44656c6567617461626c653a206e65772064656c65676174652069732074686560448201526c207a65726f206164647265737360981b606482015260840161065e565b61086f8282611603565b600081815260fc602052604090205480610c8d575062093a80919050565b6097546001600160a01b03163314610f595760405162461bcd60e51b815260040161065e90612279565b6001600160a01b038116610fbe5760405162461bcd60e51b815260206004820152602660248201527f4f776e61626c653a206e6577206f776e657220697320746865207a65726f206160448201526564647265737360d01b606482015260840161065e565b610fc781611464565b50565b600054610100900460ff1680610fe3575060005460ff16155b610fff5760405162461bcd60e51b815260040161065e9061222b565b600054610100900460ff16158015611021576000805461ffff19166101011790555b61106a6040518060400160405280600a815260200169426c6f636b466f72676560b01b8152506040518060400160405280600581526020016439a12625a360d91b81525061164a565b815161107d9060fe906020850190611d9f565b50801561086f576000805461ff00191690555050565b600081815260696020526040902080546001600160a01b0319166001600160a01b03841690811790915581906110c882610a32565b6001600160a01b03167f8c5be1e5ebec7d5bd14f71427d1e84f3dd0314c0f7b2291e5b200ac8c7c3b92560405160405180910390a45050565b826001600160a01b031661111482610a32565b6001600160a01b03161461117c5760405162461bcd60e51b815260206004820152602960248201527f4552433732313a207472616e73666572206f6620746f6b656e2074686174206960448201526839903737ba1037bbb760b91b606482015260840161065e565b6001600160a01b0382166111de5760405162461bcd60e51b8152602060048201526024808201527f4552433732313a207472616e7366657220746f20746865207a65726f206164646044820152637265737360e01b606482015260840161065e565b6111e98383836116d9565b6111f4600082611093565b6001600160a01b038316600090815260686020526040812080546001929061121d90849061232b565b90915550506001600160a01b038216600090815260686020526040812080546001929061124b9084906122ff565b909155505060008181526067602052604080822080546001600160a01b0319166001600160a01b0386811691821790925591518493918716917fddf252ad1be2c89b69c2b068fc378daa952ba7f163c4a11628f55a4df523b3ef91a4505050565b6000818152606760205260408120546001600160a01b03166113255760405162461bcd60e51b815260206004820152602c60248201527f4552433732313a206f70657261746f7220717565727920666f72206e6f6e657860448201526b34b9ba32b73a103a37b5b2b760a11b606482015260840161065e565b600061133083610a32565b9050806001600160a01b0316846001600160a01b0316148061136b5750836001600160a01b0316611360846105e9565b6001600160a01b0316145b8061139b57506001600160a01b038082166000908152606a602090815260408083209388168352929052205460ff165b949350505050565b61086f8282604051806020016040528060008152506118bd565b60006113c882610a32565b90506113d6816000846116d9565b6113e1600083611093565b6001600160a01b038116600090815260686020526040812080546001929061140a90849061232b565b909155505060008281526067602052604080822080546001600160a01b0319169055518391906001600160a01b038416907fddf252ad1be2c89b69c2b068fc378daa952ba7f163c4a11628f55a4df523b3ef908390a45050565b609780546001600160a01b038381166001600160a01b0319831681179093556040519116919082907f8be0079c531659141344cd1fd0a4f28419497f9722a3daafe3b4186f6b6457e090600090a35050565b6114c1848484611101565b6114cd848484846118f0565b6108b65760405162461bcd60e51b815260040161065e9061218a565b60608161150d5750506040805180820190915260018152600360fc1b602082015290565b8160005b81156115375780611521816123a9565b91506115309050600a83612317565b9150611511565b60008167ffffffffffffffff81111561156057634e487b7160e01b600052604160045260246000fd5b6040519080825280601f01601f19166020018201604052801561158a576020820181803683370190505b5090505b841561139b5761159f60018361232b565b91506115ac600a866123c4565b6115b79060306122ff565b60f81b8183815181106115da57634e487b7160e01b600052603260045260246000fd5b60200101906001600160f81b031916908160001a9053506115fc600a86612317565b945061158e565b6001600160a01b038216600081815260c96020526040808220849055518392917f6c5f52bb89ff64b97a0875a6ee13193b008c8b1460aea11a245fa07b64b721e691a35050565b600054610100900460ff1680611663575060005460ff16155b61167f5760405162461bcd60e51b815260040161065e9061222b565b600054610100900460ff161580156116a1576000805461ffff19166101011790555b6116ab83836119fd565b6116b3611a6e565b6116bb611ae2565b6116c3611b4c565b8015610794576000805461ff0019169055505050565b6001600160a01b0383166116ec57505050565b60006116f782610c03565b9050336001600160a01b038516148061171c5750806020015165ffffffffffff164210155b6117685760405162461bcd60e51b815260206004820152601860248201527f546f6b656e206973206c6f636b656420696e206c656173650000000000000000604482015260640161065e565b6001600160a01b03831661179757600082815260fd6020526040902080546001600160d01b03191690556108b6565b826001600160a01b0316846001600160a01b0316146108b65780516001600160a01b038581169116141561184c5760006117d083610f11565b6040805180820190915283516001600160a01b03168152909150602081016117f883426122ff565b65ffffffffffff908116909152600085815260fd60209081526040909120835181549490920151909216600160a01b026001600160d01b03199093166001600160a01b0390911617919091179055506108b6565b80516001600160a01b03848116911614156108b65760408051808201825282516001600160a01b0390811682526000602080840182815287835260fd90915293902091518254935165ffffffffffff16600160a01b026001600160d01b031990941691161791909117905550505050565b6118c78383611bbc565b6118d460008484846118f0565b6107945760405162461bcd60e51b815260040161065e9061218a565b60006001600160a01b0384163b156119f257604051630a85bd0160e11b81526001600160a01b0385169063150b7a029061193490339089908890889060040161213a565b602060405180830381600087803b15801561194e57600080fd5b505af192505050801561197e575060408051601f3d908101601f1916820190925261197b91810190612044565b60015b6119d8573d8080156119ac576040519150601f19603f3d011682016040523d82523d6000602084013e6119b1565b606091505b5080516119d05760405162461bcd60e51b815260040161065e9061218a565b805181602001fd5b6001600160e01b031916630a85bd0160e11b14905061139b565b506001949350505050565b600054610100900460ff1680611a16575060005460ff16155b611a325760405162461bcd60e51b815260040161065e9061222b565b600054610100900460ff16158015611a54576000805461ffff19166101011790555b611a5c611ae2565b611a64611ae2565b6116c38383611d0a565b600054610100900460ff1680611a87575060005460ff16155b611aa35760405162461bcd60e51b815260040161065e9061222b565b600054610100900460ff16158015611ac5576000805461ffff19166101011790555b611ace33611464565b8015610fc7576000805461ff001916905550565b600054610100900460ff1680611afb575060005460ff16155b611b175760405162461bcd60e51b815260040161065e9061222b565b600054610100900460ff16158015611ace576000805461ffff19166101011790558015610fc7576000805461ff001916905550565b600054610100900460ff1680611b65575060005460ff16155b611b815760405162461bcd60e51b815260040161065e9061222b565b600054610100900460ff16158015611ba3576000805461ffff19166101011790555b600160ca558015610fc7576000805461ff001916905550565b6001600160a01b038216611c125760405162461bcd60e51b815260206004820181905260248201527f4552433732313a206d696e7420746f20746865207a65726f2061646472657373604482015260640161065e565b6000818152606760205260409020546001600160a01b031615611c775760405162461bcd60e51b815260206004820152601c60248201527f4552433732313a20746f6b656e20616c7265616479206d696e74656400000000604482015260640161065e565b611c83600083836116d9565b6001600160a01b0382166000908152606860205260408120805460019290611cac9084906122ff565b909155505060008181526067602052604080822080546001600160a01b0319166001600160a01b03861690811790915590518392907fddf252ad1be2c89b69c2b068fc378daa952ba7f163c4a11628f55a4df523b3ef908290a45050565b600054610100900460ff1680611d23575060005460ff16155b611d3f5760405162461bcd60e51b815260040161065e9061222b565b600054610100900460ff16158015611d61576000805461ffff19166101011790555b8251611d74906065906020860190611d9f565b508151611d88906066906020850190611d9f565b508015610794576000805461ff0019169055505050565b828054611dab9061236e565b90600052602060002090601f016020900481019282611dcd5760008555611e13565b82601f10611de657805160ff1916838001178555611e13565b82800160010185558215611e13579182015b82811115611e13578251825591602001919060010190611df8565b50611e1f929150611e23565b5090565b5b80821115611e1f5760008155600101611e24565b600067ffffffffffffffff80841115611e5357611e53612404565b604051601f8501601f19908116603f01168101908282118183101715611e7b57611e7b612404565b81604052809350858152868686011115611e9457600080fd5b858560208301376000602087830101525050509392505050565b80356001600160a01b0381168114610c8d57600080fd5b600060208284031215611ed6578081fd5b610e6a82611eae565b60008060408385031215611ef1578081fd5b611efa83611eae565b9150611f0860208401611eae565b90509250929050565b600080600060608486031215611f25578081fd5b611f2e84611eae565b9250611f3c60208501611eae565b9150604084013590509250925092565b60008060008060808587031215611f61578081fd5b611f6a85611eae565b9350611f7860208601611eae565b925060408501359150606085013567ffffffffffffffff811115611f9a578182fd5b8501601f81018713611faa578182fd5b611fb987823560208401611e38565b91505092959194509250565b60008060408385031215611fd7578182fd5b611fe083611eae565b915060208301358015158114611ff4578182fd5b809150509250929050565b60008060408385031215612011578182fd5b61201a83611eae565b946020939093013593505050565b600060208284031215612039578081fd5b8135610e6a8161241a565b600060208284031215612055578081fd5b8151610e6a8161241a565b600060208284031215612071578081fd5b813567ffffffffffffffff811115612087578182fd5b8201601f81018413612097578182fd5b61139b84823560208401611e38565b6000602082840312156120b7578081fd5b5035919050565b600080604083850312156120d0578182fd5b50508035926020909101359150565b600081518084526120f7816020860160208601612342565b601f01601f19169290920160200192915050565b6000835161211d818460208801612342565b835190830190612131818360208801612342565b01949350505050565b6001600160a01b038581168252841660208201526040810183905260806060820181905260009061216d908301846120df565b9695505050505050565b602081526000610e6a60208301846120df565b60208082526032908201527f4552433732313a207472616e7366657220746f206e6f6e20455243373231526560408201527131b2b4bb32b91034b6b83632b6b2b73a32b960711b606082015260800190565b6020808252602f908201527f44656c6567617461626c653a2063616c6c657220646f6573206e6f742068617660408201526e6520636f727265637420726f6c657360881b606082015260800190565b6020808252602e908201527f496e697469616c697a61626c653a20636f6e747261637420697320616c72656160408201526d191e481a5b9a5d1a585b1a5e995960921b606082015260800190565b6020808252818101527f4f776e61626c653a2063616c6c6572206973206e6f7420746865206f776e6572604082015260600190565b60208082526031908201527f4552433732313a207472616e736665722063616c6c6572206973206e6f74206f6040820152701ddb995c881b9bdc88185c1c1c9bdd9959607a1b606082015260800190565b60008219821115612312576123126123d8565b500190565b600082612326576123266123ee565b500490565b60008282101561233d5761233d6123d8565b500390565b60005b8381101561235d578181015183820152602001612345565b838111156108b65750506000910152565b600181811c9082168061238257607f821691505b602082108114156123a357634e487b7160e01b600052602260045260246000fd5b50919050565b60006000198214156123bd576123bd6123d8565b5060010190565b6000826123d3576123d36123ee565b500690565b634e487b7160e01b600052601160045260246000fd5b634e487b7160e01b600052601260045260246000fd5b634e487b7160e01b600052604160045260246000fd5b6001600160e01b031981168114610fc757600080fdfea2646970667358221220853bd1c74569861e4fa73729103a0204d1fdf30c2d1694a66151f35949c1eba264736f6c63430008040033",
  "linkReferences": {},
  "deployedLinkReferences": {}
}