{
  "_format": "hh-sol-artifact-1",
  "contractName": "SBlock",
  "sourceName": "contracts/sBlock.sol",
  "abi": [
    {
      "inputs": [
        {
          "internalType": "string",
          "name": "baseTokenURI",
          "type": "string"
        }
      ],
      "stateMutability": "nonpayable",
      "type": "constructor"
    },
    {
      "anonymous": false,
      "inputs": [
        {
          "indexed": true,
          "internalType": "address",
          "name": "owner",
          "type": "address"
        },
        {
          "indexed": true,
          "internalType": "address",
          "name": "approved",
          "type": "address"
        },
        {
          "indexed": true,
          "internalType": "uint256",
          "name": "tokenId",
          "type": "uint256"
        }
      ],
      "name": "Approval",
      "type": "event"
    },
    {
      "anonymous": false,
      "inputs": [
        {
          "indexed": true,
          "internalType": "address",
          "name": "owner",
          "type": "address"
        },
        {
          "indexed": true,
          "internalType": "address",
          "name": "operator",
          "type": "address"
        },
        {
          "indexed": false,
          "internalType": "bool",
          "name": "approved",
          "type": "bool"
        }
      ],
      "name": "ApprovalForAll",
      "type": "event"
    },
    {
      "anonymous": false,
      "inputs": [
        {
          "indexed": true,
          "internalType": "address",
          "name": "delegate",
          "type": "address"
        },
        {
          "indexed": true,
          "internalType": "uint256",
          "name": "roles",
          "type": "uint256"
        }
      ],
      "name": "DelegateUpdated",
      "type": "event"
    },
    {
      "anonymous": false,
      "inputs": [
        {
          "indexed": true,
          "internalType": "address",
          "name": "previousOwner",
          "type": "address"
        },
        {
          "indexed": true,
          "internalType": "address",
          "name": "newOwner",
          "type": "address"
        }
      ],
      "name": "OwnershipTransferred",
      "type": "event"
    },
    {
      "anonymous": false,
      "inputs": [
        {
          "indexed": true,
          "internalType": "address",
          "name": "from",
          "type": "address"
        },
        {
          "indexed": true,
          "internalType": "address",
          "name": "to",
          "type": "address"
        },
        {
          "indexed": true,
          "internalType": "uint256",
          "name": "tokenId",
          "type": "uint256"
        }
      ],
      "name": "Transfer",
      "type": "event"
    },
    {
      "inputs": [],
      "name": "BURN_ROLE",
      "outputs": [
        {
          "internalType": "uint256",
          "name": "",
          "type": "uint256"
        }
      ],
      "stateMutability": "view",
      "type": "function"
    },
    {
      "inputs": [],
      "name": "DEFAULT_LOCK_DURATION",
      "outputs": [
        {
          "internalType": "uint256",
          "name": "",
          "type": "uint256"
        }
      ],
      "stateMutability": "view",
      "type": "function"
    },
    {
      "inputs": [],
      "name": "MINT_ROLE",
      "outputs": [
        {
          "internalType": "uint256",
          "name": "",
          "type": "uint256"
        }
      ],
      "stateMutability": "view",
      "type": "function"
    },
    {
      "inputs": [],
      "name": "TRANSFER_ROLE",
      "outputs": [
        {
          "internalType": "uint256",
          "name": "",
          "type": "uint256"
        }
      ],
      "stateMutability": "view",
      "type": "function"
    },
    {
      "inputs": [
        {
          "internalType": "address",
          "name": "to",
          "type": "address"
        },
        {
          "internalType": "uint256",
          "name": "tokenId",
          "type": "uint256"
        }
      ],
      "name": "approve",
      "outputs": [],
      "stateMutability": "nonpayable",
      "type": "function"
    },
    {
      "inputs": [
        {
          "internalType": "address",
          "name": "owner",
          "type": "address"
        }
      ],
      "name": "balanceOf",
      "outputs": [
        {
          "internalType": "uint256",
          "name": "",
          "type": "uint256"
        }
      ],
      "stateMutability": "view",
      "type": "function"
    },
    {
      "inputs": [
        {
          "internalType": "uint256",
          "name": "tokenId",
          "type": "uint256"
        }
      ],
      "name": "burn",
      "outputs": [],
      "stateMutability": "nonpayable",
      "type": "function"
    },
    {
      "inputs": [
        {
          "internalType": "address",
          "name": "",
          "type": "address"
        }
      ],
      "name": "delegates",
      "outputs": [
        {
          "internalType": "uint256",
          "name": "",
          "type": "uint256"
        }
      ],
      "stateMutability": "view",
      "type": "function"
    },
    {
      "inputs": [
        {
          "internalType": "uint256",
          "name": "tokenId",
          "type": "uint256"
        }
      ],
      "name": "getApproved",
      "outputs": [
        {
          "internalType": "address",
          "name": "",
          "type": "address"
        }
      ],
      "stateMutability": "view",
      "type": "function"
    },
    {
      "inputs": [
        {
          "internalType": "uint256",
          "name": "tokenId",
          "type": "uint256"
        }
      ],
      "name": "getLease",
      "outputs": [
        {
          "components": [
            {
              "internalType": "address",
              "name": "provenance",
              "type": "address"
            },
            {
              "internalType": "uint48",
              "name": "lockExpiration",
              "type": "uint48"
            }
          ],
          "internalType": "struct SBlock.Lease",
          "name": "lease",
          "type": "tuple"
        }
      ],
      "stateMutability": "view",
      "type": "function"
    },
    {
      "inputs": [
        {
          "internalType": "uint256",
          "name": "tokenId",
          "type": "uint256"
        }
      ],
      "name": "getLockDuration",
      "outputs": [
        {
          "internalType": "uint256",
          "name": "lockDuration",
          "type": "uint256"
        }
      ],
      "stateMutability": "view",
      "type": "function"
    },
    {
      "inputs": [
        {
          "internalType": "address",
          "name": "delegate",
          "type": "address"
        },
        {
          "internalType": "uint256",
          "name": "roles",
          "type": "uint256"
        }
      ],
      "name": "hasRoles",
      "outputs": [
        {
          "internalType": "bool",
          "name": "",
          "type": "bool"
        }
      ],
      "stateMutability": "view",
      "type": "function"
    },
    {
      "inputs": [
        {
          "internalType": "address",
          "name": "owner",
          "type": "address"
        },
        {
          "internalType": "address",
          "name": "operator",
          "type": "address"
        }
      ],
      "name": "isApprovedForAll",
      "outputs": [
        {
          "internalType": "bool",
          "name": "",
          "type": "bool"
        }
      ],
      "stateMutability": "view",
      "type": "function"
    },
    {
      "inputs": [
        {
          "internalType": "uint256",
          "name": "",
          "type": "uint256"
        }
      ],
      "name": "lockDurations",
      "outputs": [
        {
          "internalType": "uint256",
          "name": "",
          "type": "uint256"
        }
      ],
      "stateMutability": "view",
      "type": "function"
    },
    {
      "inputs": [
        {
          "internalType": "address",
          "name": "to",
          "type": "address"
        },
        {
          "internalType": "uint256",
          "name": "tokenId",
          "type": "uint256"
        }
      ],
      "name": "mint",
      "outputs": [],
      "stateMutability": "nonpayable",
      "type": "function"
    },
    {
      "inputs": [],
      "name": "name",
      "outputs": [
        {
          "internalType": "string",
          "name": "",
          "type": "string"
        }
      ],
      "stateMutability": "view",
      "type": "function"
    },
    {
      "inputs": [],
      "name": "owner",
      "outputs": [
        {
          "internalType": "address",
          "name": "",
          "type": "address"
        }
      ],
      "stateMutability": "view",
      "type": "function"
    },
    {
      "inputs": [
        {
          "internalType": "uint256",
          "name": "tokenId",
          "type": "uint256"
        }
      ],
      "name": "ownerOf",
      "outputs": [
        {
          "internalType": "address",
          "name": "",
          "type": "address"
        }
      ],
      "stateMutability": "view",
      "type": "function"
    },
    {
      "inputs": [],
      "name": "renounceOwnership",
      "outputs": [],
      "stateMutability": "nonpayable",
      "type": "function"
    },
    {
      "inputs": [
        {
          "internalType": "address",
          "name": "oldDelegate",
          "type": "address"
        },
        {
          "internalType": "address",
          "name": "newDelegate",
          "type": "address"
        }
      ],
      "name": "replaceDelegate",
      "outputs": [],
      "stateMutability": "nonpayable",
      "type": "function"
    },
    {
      "inputs": [
        {
          "internalType": "uint256",
          "name": "tokenId",
          "type": "uint256"
        }
      ],
      "name": "revoke",
      "outputs": [],
      "stateMutability": "nonpayable",
      "type": "function"
    },
    {
      "inputs": [
        {
          "internalType": "address",
          "name": "from",
          "type": "address"
        },
        {
          "internalType": "address",
          "name": "to",
          "type": "address"
        },
        {
          "internalType": "uint256",
          "name": "tokenId",
          "type": "uint256"
        }
      ],
      "name": "safeTransferFrom",
      "outputs": [],
      "stateMutability": "nonpayable",
      "type": "function"
    },
    {
      "inputs": [
        {
          "internalType": "address",
          "name": "from",
          "type": "address"
        },
        {
          "internalType": "address",
          "name": "to",
          "type": "address"
        },
        {
          "internalType": "uint256",
          "name": "tokenId",
          "type": "uint256"
        },
        {
          "internalType": "bytes",
          "name": "_data",
          "type": "bytes"
        }
      ],
      "name": "safeTransferFrom",
      "outputs": [],
      "stateMutability": "nonpayable",
      "type": "function"
    },
    {
      "inputs": [
        {
          "internalType": "address",
          "name": "operator",
          "type": "address"
        },
        {
          "internalType": "bool",
          "name": "approved",
          "type": "bool"
        }
      ],
      "name": "setApprovalForAll",
      "outputs": [],
      "stateMutability": "nonpayable",
      "type": "function"
    },
    {
      "inputs": [
        {
          "internalType": "string",
          "name": "baseTokenURI",
          "type": "string"
        }
      ],
      "name": "setBaseURI",
      "outputs": [],
      "stateMutability": "nonpayable",
      "type": "function"
    },
    {
      "inputs": [
        {
          "internalType": "bytes4",
          "name": "interfaceId",
          "type": "bytes4"
        }
      ],
      "name": "supportsInterface",
      "outputs": [
        {
          "internalType": "bool",
          "name": "",
          "type": "bool"
        }
      ],
      "stateMutability": "view",
      "type": "function"
    },
    {
      "inputs": [],
      "name": "symbol",
      "outputs": [
        {
          "internalType": "string",
          "name": "",
          "type": "string"
        }
      ],
      "stateMutability": "view",
      "type": "function"
    },
    {
      "inputs": [
        {
          "internalType": "uint256",
          "name": "tokenId",
          "type": "uint256"
        }
      ],
      "name": "tokenURI",
      "outputs": [
        {
          "internalType": "string",
          "name": "",
          "type": "string"
        }
      ],
      "stateMutability": "view",
      "type": "function"
    },
    {
      "inputs": [
        {
          "internalType": "address",
          "name": "from",
          "type": "address"
        },
        {
          "internalType": "address",
          "name": "to",
          "type": "address"
        },
        {
          "internalType": "uint256",
          "name": "tokenId",
          "type": "uint256"
        }
      ],
      "name": "transferFrom",
      "outputs": [],
      "stateMutability": "nonpayable",
      "type": "function"
    },
    {
      "inputs": [
        {
          "internalType": "address",
          "name": "newOwner",
          "type": "address"
        }
      ],
      "name": "transferOwnership",
      "outputs": [],
      "stateMutability": "nonpayable",
      "type": "function"
    },
    {
      "inputs": [
        {
          "internalType": "address",
          "name": "delegate",
          "type": "address"
        },
        {
          "internalType": "uint256",
          "name": "roles",
          "type": "uint256"
        }
      ],
      "name": "updateDelegate",
      "outputs": [],
      "stateMutability": "nonpayable",
      "type": "function"
    }
  ],
  "bytecode": "0x60806040526000603b553480156200001657600080fd5b506040516200222e3803806200222e8339810160408190526200003991620001d5565b604080518082018252600b81526a73426c6f636b466f72676560a81b60208083019182528351808501909452600584526439a125a62360d91b90840152815191929162000089916000916200012f565b5080516200009f9060019060208401906200012f565b505050620000bc620000b6620000d960201b60201c565b620000dd565b8051620000d190603e9060208401906200012f565b5050620002fe565b3390565b600680546001600160a01b038381166001600160a01b0319831681179093556040519116919082907f8be0079c531659141344cd1fd0a4f28419497f9722a3daafe3b4186f6b6457e090600090a35050565b8280546200013d90620002ab565b90600052602060002090601f016020900481019282620001615760008555620001ac565b82601f106200017c57805160ff1916838001178555620001ac565b82800160010185558215620001ac579182015b82811115620001ac5782518255916020019190600101906200018f565b50620001ba929150620001be565b5090565b5b80821115620001ba5760008155600101620001bf565b60006020808385031215620001e8578182fd5b82516001600160401b0380821115620001ff578384fd5b818501915085601f83011262000213578384fd5b815181811115620002285762000228620002e8565b604051601f8201601f19908116603f01168101908382118183101715620002535762000253620002e8565b8160405282815288868487010111156200026b578687fd5b8693505b828410156200028e57848401860151818501870152928501926200026f565b828411156200029f57868684830101525b98975050505050505050565b600181811c90821680620002c057607f821691505b60208210811415620002e257634e487b7160e01b600052602260045260246000fd5b50919050565b634e487b7160e01b600052604160045260246000fd5b611f20806200030e6000396000f3fe608060405234801561001057600080fd5b50600436106101e55760003560e01c80636352211e1161010f578063b930908f116100a2578063e985e9c511610071578063e985e9c514610442578063e9a9c8501461047e578063ee3ca99c14610486578063f2fde38b1461049057600080fd5b8063b930908f14610401578063c87b56dd14610409578063d25117d81461041c578063d9a2e7311461042f57600080fd5b806395d89b41116100de57806395d89b41146103945780639f44657c1461039c578063a22cb465146103db578063b88d4fde146103ee57600080fd5b80636352211e1461035557806370a0823114610368578063715018a61461037b5780638da5cb5b1461038357600080fd5b806323b872dd1161018757806342842e0e1161015657806342842e0e146102fc57806342966c681461030f57806355f804b314610322578063587cde1e1461033557600080fd5b806323b872dd146102a357806332298be1146102b657806336c2f425146102d657806340c10f19146102e957600080fd5b8063095ea7b3116101c3578063095ea7b314610252578063112ff48914610267578063206b60f91461027a57806320c5429b1461029057600080fd5b806301ffc9a7146101ea57806306fdde0314610212578063081812fc14610227575b600080fd5b6101fd6101f8366004611b51565b6104a3565b60405190151581526020015b60405180910390f35b61021a6104f5565b6040516102099190611c7f565b61023a610235366004611bcf565b610587565b6040516001600160a01b039091168152602001610209565b610265610260366004611b28565b610621565b005b6101fd610275366004611b28565b610737565b610282600381565b604051908152602001610209565b61026561029e366004611bcf565b610758565b6102656102b1366004611a3a565b6107d6565b6102826102c4366004611bcf565b603c6020526000908152604090205481565b6102656102e4366004611a08565b61081f565b6102656102f7366004611b28565b610878565b61026561030a366004611a3a565b61090c565b61026561031d366004611bcf565b610927565b610265610330366004611b89565b610958565b6102826103433660046119ee565b60076020526000908152604090205481565b61023a610363366004611bcf565b610995565b6102826103763660046119ee565b610a0c565b610265610a93565b6006546001600160a01b031661023a565b61021a610ac9565b6103af6103aa366004611bcf565b610ad8565b6040805182516001600160a01b0316815260209283015165ffffffffffff169281019290925201610209565b6102656103e9366004611aee565b610b67565b6102656103fc366004611a75565b610c2c565b610282600281565b61021a610417366004611bcf565b610c5e565b61026561042a366004611b28565b610d46565b61028261043d366004611bcf565b610de6565b6101fd610450366004611a08565b6001600160a01b03918216600090815260056020908152604080832093909416825291909152205460ff1690565b610282600181565b61028262093a8081565b61026561049e3660046119ee565b610e04565b60006001600160e01b031982166380ac58cd60e01b14806104d457506001600160e01b03198216635b5e139f60e01b145b806104ef57506301ffc9a760e01b6001600160e01b03198316145b92915050565b60606000805461050490611e28565b80601f016020809104026020016040519081016040528092919081815260200182805461053090611e28565b801561057d5780601f106105525761010080835404028352916020019161057d565b820191906000526020600020905b81548152906001019060200180831161056057829003601f168201915b5050505050905090565b6000818152600260205260408120546001600160a01b03166106055760405162461bcd60e51b815260206004820152602c60248201527f4552433732313a20617070726f76656420717565727920666f72206e6f6e657860448201526b34b9ba32b73a103a37b5b2b760a11b60648201526084015b60405180910390fd5b506000908152600460205260409020546001600160a01b031690565b600061062c82610995565b9050806001600160a01b0316836001600160a01b0316141561069a5760405162461bcd60e51b815260206004820152602160248201527f4552433732313a20617070726f76616c20746f2063757272656e74206f776e656044820152603960f91b60648201526084016105fc565b336001600160a01b03821614806106b657506106b68133610450565b6107285760405162461bcd60e51b815260206004820152603860248201527f4552433732313a20617070726f76652063616c6c6572206973206e6f74206f7760448201527f6e6572206e6f7220617070726f76656420666f7220616c6c000000000000000060648201526084016105fc565b6107328383610e9f565b505050565b6001600160a01b039190911660009081526007602052604090205481161490565b6000818152603d60205260409020546001600160a01b03163381146107bf5760405162461bcd60e51b815260206004820152601860248201527f43616c6c6572206973206e6f742070726f76656e616e6365000000000000000060448201526064016105fc565b6107d26107cb83610995565b8284610f0d565b5050565b336107e181836110b8565b806107f257506107f2816003610737565b61080e5760405162461bcd60e51b81526004016105fc90611d68565b610819848484610f0d565b50505050565b6006546001600160a01b031633146108495760405162461bcd60e51b81526004016105fc90611d33565b6001600160a01b0382166000908152600760205260408120549061086e908490610d46565b6107328282610d46565b600260095414156108cb5760405162461bcd60e51b815260206004820152601f60248201527f5265656e7472616e637947756172643a207265656e7472616e742063616c6c0060448201526064016105fc565b600260095560016108dc3382610737565b6108f85760405162461bcd60e51b81526004016105fc90611ce4565b61090283836111af565b5050600160095550565b61073283838360405180602001604052806000815250610c2c565b60026109333382610737565b61094f5760405162461bcd60e51b81526004016105fc90611ce4565b6107d2826111c9565b6006546001600160a01b031633146109825760405162461bcd60e51b81526004016105fc90611d33565b80516107d290603e9060208401906118c8565b6000818152600260205260408120546001600160a01b0316806104ef5760405162461bcd60e51b815260206004820152602960248201527f4552433732313a206f776e657220717565727920666f72206e6f6e657869737460448201526832b73a103a37b5b2b760b91b60648201526084016105fc565b60006001600160a01b038216610a775760405162461bcd60e51b815260206004820152602a60248201527f4552433732313a2062616c616e636520717565727920666f7220746865207a65604482015269726f206164647265737360b01b60648201526084016105fc565b506001600160a01b031660009081526003602052604090205490565b6006546001600160a01b03163314610abd5760405162461bcd60e51b81526004016105fc90611d33565b610ac76000611270565b565b60606001805461050490611e28565b60408051808201825260008082526020918201819052838152603d82528290208251808401909352546001600160a01b038116808452600160a01b90910465ffffffffffff1691830191909152158015610b4857506000828152600260205260409020546001600160a01b031615155b15610b6257610b5682610995565b6001600160a01b031681525b919050565b6001600160a01b038216331415610bc05760405162461bcd60e51b815260206004820152601960248201527f4552433732313a20617070726f766520746f2063616c6c65720000000000000060448201526064016105fc565b3360008181526005602090815260408083206001600160a01b03871680855290835292819020805460ff191686151590811790915590519081529192917f17307eab39ab6107e8899845ad3d59bd9653f200f220920489ca2b5937696c31910160405180910390a35050565b610c3633836110b8565b610c525760405162461bcd60e51b81526004016105fc90611d68565b610819848484846112c2565b6000818152600260205260409020546060906001600160a01b0316610cdd5760405162461bcd60e51b815260206004820152602f60248201527f4552433732314d657461646174613a2055524920717565727920666f72206e6f60448201526e3732bc34b9ba32b73a103a37b5b2b760891b60648201526084016105fc565b6000610cf460408051602081019091526000815290565b90506000815111610d145760405180602001604052806000815250610d3f565b80610d1e846112f5565b604051602001610d2f929190611c13565b6040516020818303038152906040525b9392505050565b6006546001600160a01b03163314610d705760405162461bcd60e51b81526004016105fc90611d33565b6001600160a01b038216610ddc5760405162461bcd60e51b815260206004820152602d60248201527f44656c6567617461626c653a206e65772064656c65676174652069732074686560448201526c207a65726f206164647265737360981b60648201526084016105fc565b6107d2828261140f565b6000818152603c602052604090205480610b62575062093a80919050565b6006546001600160a01b03163314610e2e5760405162461bcd60e51b81526004016105fc90611d33565b6001600160a01b038116610e935760405162461bcd60e51b815260206004820152602660248201527f4f776e61626c653a206e6577206f776e657220697320746865207a65726f206160448201526564647265737360d01b60648201526084016105fc565b610e9c81611270565b50565b600081815260046020526040902080546001600160a01b0319166001600160a01b0384169081179091558190610ed482610995565b6001600160a01b03167f8c5be1e5ebec7d5bd14f71427d1e84f3dd0314c0f7b2291e5b200ac8c7c3b92560405160405180910390a45050565b826001600160a01b0316610f2082610995565b6001600160a01b031614610f885760405162461bcd60e51b815260206004820152602960248201527f4552433732313a207472616e73666572206f6620746f6b656e2074686174206960448201526839903737ba1037bbb760b91b60648201526084016105fc565b6001600160a01b038216610fea5760405162461bcd60e51b8152602060048201526024808201527f4552433732313a207472616e7366657220746f20746865207a65726f206164646044820152637265737360e01b60648201526084016105fc565b610ff5838383611456565b611000600082610e9f565b6001600160a01b0383166000908152600360205260408120805460019290611029908490611de5565b90915550506001600160a01b0382166000908152600360205260408120805460019290611057908490611db9565b909155505060008181526002602052604080822080546001600160a01b0319166001600160a01b0386811691821790925591518493918716917fddf252ad1be2c89b69c2b068fc378daa952ba7f163c4a11628f55a4df523b3ef91a4505050565b6000818152600260205260408120546001600160a01b03166111315760405162461bcd60e51b815260206004820152602c60248201527f4552433732313a206f70657261746f7220717565727920666f72206e6f6e657860448201526b34b9ba32b73a103a37b5b2b760a11b60648201526084016105fc565b600061113c83610995565b9050806001600160a01b0316846001600160a01b031614806111775750836001600160a01b031661116c84610587565b6001600160a01b0316145b806111a757506001600160a01b0380821660009081526005602090815260408083209388168352929052205460ff165b949350505050565b6107d282826040518060200160405280600081525061163a565b60006111d482610995565b90506111e281600084611456565b6111ed600083610e9f565b6001600160a01b0381166000908152600360205260408120805460019290611216908490611de5565b909155505060008281526002602052604080822080546001600160a01b0319169055518391906001600160a01b038416907fddf252ad1be2c89b69c2b068fc378daa952ba7f163c4a11628f55a4df523b3ef908390a45050565b600680546001600160a01b038381166001600160a01b0319831681179093556040519116919082907f8be0079c531659141344cd1fd0a4f28419497f9722a3daafe3b4186f6b6457e090600090a35050565b6112cd848484610f0d565b6112d98484848461166d565b6108195760405162461bcd60e51b81526004016105fc90611c92565b6060816113195750506040805180820190915260018152600360fc1b602082015290565b8160005b8115611343578061132d81611e63565b915061133c9050600a83611dd1565b915061131d565b60008167ffffffffffffffff81111561136c57634e487b7160e01b600052604160045260246000fd5b6040519080825280601f01601f191660200182016040528015611396576020820181803683370190505b5090505b84156111a7576113ab600183611de5565b91506113b8600a86611e7e565b6113c3906030611db9565b60f81b8183815181106113e657634e487b7160e01b600052603260045260246000fd5b60200101906001600160f81b031916908160001a905350611408600a86611dd1565b945061139a565b6001600160a01b038216600081815260076020526040808220849055518392917f6c5f52bb89ff64b97a0875a6ee13193b008c8b1460aea11a245fa07b64b721e691a35050565b6001600160a01b03831661146957505050565b600061147482610ad8565b9050336001600160a01b03851614806114995750806020015165ffffffffffff164210155b6114e55760405162461bcd60e51b815260206004820152601860248201527f546f6b656e206973206c6f636b656420696e206c65617365000000000000000060448201526064016105fc565b6001600160a01b038316611514576000828152603d6020526040902080546001600160d01b0319169055610819565b826001600160a01b0316846001600160a01b0316146108195780516001600160a01b03858116911614156115c957600061154d83610de6565b6040805180820190915283516001600160a01b03168152909150602081016115758342611db9565b65ffffffffffff9081169091526000858152603d60209081526040909120835181549490920151909216600160a01b026001600160d01b03199093166001600160a01b039091161791909117905550610819565b80516001600160a01b03848116911614156108195760408051808201825282516001600160a01b03908116825260006020808401828152878352603d90915293902091518254935165ffffffffffff16600160a01b026001600160d01b031990941691161791909117905550505050565b611644838361177a565b611651600084848461166d565b6107325760405162461bcd60e51b81526004016105fc90611c92565b60006001600160a01b0384163b1561176f57604051630a85bd0160e11b81526001600160a01b0385169063150b7a02906116b1903390899088908890600401611c42565b602060405180830381600087803b1580156116cb57600080fd5b505af19250505080156116fb575060408051601f3d908101601f191682019092526116f891810190611b6d565b60015b611755573d808015611729576040519150601f19603f3d011682016040523d82523d6000602084013e61172e565b606091505b50805161174d5760405162461bcd60e51b81526004016105fc90611c92565b805181602001fd5b6001600160e01b031916630a85bd0160e11b1490506111a7565b506001949350505050565b6001600160a01b0382166117d05760405162461bcd60e51b815260206004820181905260248201527f4552433732313a206d696e7420746f20746865207a65726f206164647265737360448201526064016105fc565b6000818152600260205260409020546001600160a01b0316156118355760405162461bcd60e51b815260206004820152601c60248201527f4552433732313a20746f6b656e20616c7265616479206d696e7465640000000060448201526064016105fc565b61184160008383611456565b6001600160a01b038216600090815260036020526040812080546001929061186a908490611db9565b909155505060008181526002602052604080822080546001600160a01b0319166001600160a01b03861690811790915590518392907fddf252ad1be2c89b69c2b068fc378daa952ba7f163c4a11628f55a4df523b3ef908290a45050565b8280546118d490611e28565b90600052602060002090601f0160209004810192826118f6576000855561193c565b82601f1061190f57805160ff191683800117855561193c565b8280016001018555821561193c579182015b8281111561193c578251825591602001919060010190611921565b5061194892915061194c565b5090565b5b80821115611948576000815560010161194d565b600067ffffffffffffffff8084111561197c5761197c611ebe565b604051601f8501601f19908116603f011681019082821181831017156119a4576119a4611ebe565b816040528093508581528686860111156119bd57600080fd5b858560208301376000602087830101525050509392505050565b80356001600160a01b0381168114610b6257600080fd5b6000602082840312156119ff578081fd5b610d3f826119d7565b60008060408385031215611a1a578081fd5b611a23836119d7565b9150611a31602084016119d7565b90509250929050565b600080600060608486031215611a4e578081fd5b611a57846119d7565b9250611a65602085016119d7565b9150604084013590509250925092565b60008060008060808587031215611a8a578081fd5b611a93856119d7565b9350611aa1602086016119d7565b925060408501359150606085013567ffffffffffffffff811115611ac3578182fd5b8501601f81018713611ad3578182fd5b611ae287823560208401611961565b91505092959194509250565b60008060408385031215611b00578182fd5b611b09836119d7565b915060208301358015158114611b1d578182fd5b809150509250929050565b60008060408385031215611b3a578182fd5b611b43836119d7565b946020939093013593505050565b600060208284031215611b62578081fd5b8135610d3f81611ed4565b600060208284031215611b7e578081fd5b8151610d3f81611ed4565b600060208284031215611b9a578081fd5b813567ffffffffffffffff811115611bb0578182fd5b8201601f81018413611bc0578182fd5b6111a784823560208401611961565b600060208284031215611be0578081fd5b5035919050565b60008151808452611bff816020860160208601611dfc565b601f01601f19169290920160200192915050565b60008351611c25818460208801611dfc565b835190830190611c39818360208801611dfc565b01949350505050565b6001600160a01b0385811682528416602082015260408101839052608060608201819052600090611c7590830184611be7565b9695505050505050565b602081526000610d3f6020830184611be7565b60208082526032908201527f4552433732313a207472616e7366657220746f206e6f6e20455243373231526560408201527131b2b4bb32b91034b6b83632b6b2b73a32b960711b606082015260800190565b6020808252602f908201527f44656c6567617461626c653a2063616c6c657220646f6573206e6f742068617660408201526e6520636f727265637420726f6c657360881b606082015260800190565b6020808252818101527f4f776e61626c653a2063616c6c6572206973206e6f7420746865206f776e6572604082015260600190565b60208082526031908201527f4552433732313a207472616e736665722063616c6c6572206973206e6f74206f6040820152701ddb995c881b9bdc88185c1c1c9bdd9959607a1b606082015260800190565b60008219821115611dcc57611dcc611e92565b500190565b600082611de057611de0611ea8565b500490565b600082821015611df757611df7611e92565b500390565b60005b83811015611e17578181015183820152602001611dff565b838111156108195750506000910152565b600181811c90821680611e3c57607f821691505b60208210811415611e5d57634e487b7160e01b600052602260045260246000fd5b50919050565b6000600019821415611e7757611e77611e92565b5060010190565b600082611e8d57611e8d611ea8565b500690565b634e487b7160e01b600052601160045260246000fd5b634e487b7160e01b600052601260045260246000fd5b634e487b7160e01b600052604160045260246000fd5b6001600160e01b031981168114610e9c57600080fdfea2646970667358221220ad96fdbd4f25840e9db4e2d019d16253a2649dda256f2c261fa34f616d75749264736f6c63430008040033",
  "linkReferences": {},
  "deployedLinkReferences": {}
}