{
  "_format": "hh-sol-artifact-1",
  "contractName": "sBlock",
  "sourceName": "contracts/sBlock.sol",
  "abi": [
    {
      "inputs": [
        {
          "internalType": "string",
          "name": "baseTokenURI",
          "type": "string"
        }
      ],
      "stateMutability": "nonpayable",
      "type": "constructor"
    },
    {
      "anonymous": false,
      "inputs": [
        {
          "indexed": true,
          "internalType": "address",
          "name": "owner",
          "type": "address"
        },
        {
          "indexed": true,
          "internalType": "address",
          "name": "approved",
          "type": "address"
        },
        {
          "indexed": true,
          "internalType": "uint256",
          "name": "tokenId",
          "type": "uint256"
        }
      ],
      "name": "Approval",
      "type": "event"
    },
    {
      "anonymous": false,
      "inputs": [
        {
          "indexed": true,
          "internalType": "address",
          "name": "owner",
          "type": "address"
        },
        {
          "indexed": true,
          "internalType": "address",
          "name": "operator",
          "type": "address"
        },
        {
          "indexed": false,
          "internalType": "bool",
          "name": "approved",
          "type": "bool"
        }
      ],
      "name": "ApprovalForAll",
      "type": "event"
    },
    {
      "anonymous": false,
      "inputs": [
        {
          "indexed": true,
          "internalType": "address",
          "name": "from",
          "type": "address"
        },
        {
          "indexed": true,
          "internalType": "address",
          "name": "to",
          "type": "address"
        },
        {
          "indexed": true,
          "internalType": "uint256",
          "name": "tokenId",
          "type": "uint256"
        }
      ],
      "name": "Transfer",
      "type": "event"
    },
    {
      "inputs": [
        {
          "internalType": "address",
          "name": "to",
          "type": "address"
        },
        {
          "internalType": "uint256",
          "name": "tokenId",
          "type": "uint256"
        }
      ],
      "name": "approve",
      "outputs": [],
      "stateMutability": "nonpayable",
      "type": "function"
    },
    {
      "inputs": [
        {
          "internalType": "address",
          "name": "owner",
          "type": "address"
        }
      ],
      "name": "balanceOf",
      "outputs": [
        {
          "internalType": "uint256",
          "name": "",
          "type": "uint256"
        }
      ],
      "stateMutability": "view",
      "type": "function"
    },
    {
      "inputs": [
        {
          "internalType": "uint256",
          "name": "tokenId",
          "type": "uint256"
        }
      ],
      "name": "burn",
      "outputs": [],
      "stateMutability": "nonpayable",
      "type": "function"
    },
    {
      "inputs": [
        {
          "internalType": "uint256",
          "name": "tokenId",
          "type": "uint256"
        }
      ],
      "name": "getApproved",
      "outputs": [
        {
          "internalType": "address",
          "name": "",
          "type": "address"
        }
      ],
      "stateMutability": "view",
      "type": "function"
    },
    {
      "inputs": [
        {
          "internalType": "address",
          "name": "owner",
          "type": "address"
        },
        {
          "internalType": "address",
          "name": "operator",
          "type": "address"
        }
      ],
      "name": "isApprovedForAll",
      "outputs": [
        {
          "internalType": "bool",
          "name": "",
          "type": "bool"
        }
      ],
      "stateMutability": "view",
      "type": "function"
    },
    {
      "inputs": [
        {
          "internalType": "address",
          "name": "to",
          "type": "address"
        },
        {
          "internalType": "uint256",
          "name": "tokenId",
          "type": "uint256"
        }
      ],
      "name": "mint",
      "outputs": [],
      "stateMutability": "nonpayable",
      "type": "function"
    },
    {
      "inputs": [],
      "name": "name",
      "outputs": [
        {
          "internalType": "string",
          "name": "",
          "type": "string"
        }
      ],
      "stateMutability": "view",
      "type": "function"
    },
    {
      "inputs": [
        {
          "internalType": "uint256",
          "name": "tokenId",
          "type": "uint256"
        }
      ],
      "name": "ownerOf",
      "outputs": [
        {
          "internalType": "address",
          "name": "",
          "type": "address"
        }
      ],
      "stateMutability": "view",
      "type": "function"
    },
    {
      "inputs": [
        {
          "internalType": "address",
          "name": "from",
          "type": "address"
        },
        {
          "internalType": "address",
          "name": "to",
          "type": "address"
        },
        {
          "internalType": "uint256",
          "name": "tokenId",
          "type": "uint256"
        }
      ],
      "name": "safeTransferFrom",
      "outputs": [],
      "stateMutability": "nonpayable",
      "type": "function"
    },
    {
      "inputs": [
        {
          "internalType": "address",
          "name": "from",
          "type": "address"
        },
        {
          "internalType": "address",
          "name": "to",
          "type": "address"
        },
        {
          "internalType": "uint256",
          "name": "tokenId",
          "type": "uint256"
        },
        {
          "internalType": "bytes",
          "name": "_data",
          "type": "bytes"
        }
      ],
      "name": "safeTransferFrom",
      "outputs": [],
      "stateMutability": "nonpayable",
      "type": "function"
    },
    {
      "inputs": [
        {
          "internalType": "address",
          "name": "operator",
          "type": "address"
        },
        {
          "internalType": "bool",
          "name": "approved",
          "type": "bool"
        }
      ],
      "name": "setApprovalForAll",
      "outputs": [],
      "stateMutability": "nonpayable",
      "type": "function"
    },
    {
      "inputs": [
        {
          "internalType": "bytes4",
          "name": "interfaceId",
          "type": "bytes4"
        }
      ],
      "name": "supportsInterface",
      "outputs": [
        {
          "internalType": "bool",
          "name": "",
          "type": "bool"
        }
      ],
      "stateMutability": "view",
      "type": "function"
    },
    {
      "inputs": [],
      "name": "symbol",
      "outputs": [
        {
          "internalType": "string",
          "name": "",
          "type": "string"
        }
      ],
      "stateMutability": "view",
      "type": "function"
    },
    {
      "inputs": [
        {
          "internalType": "uint256",
          "name": "tokenId",
          "type": "uint256"
        }
      ],
      "name": "tokenURI",
      "outputs": [
        {
          "internalType": "string",
          "name": "",
          "type": "string"
        }
      ],
      "stateMutability": "view",
      "type": "function"
    },
    {
      "inputs": [
        {
          "internalType": "address",
          "name": "from",
          "type": "address"
        },
        {
          "internalType": "address",
          "name": "to",
          "type": "address"
        },
        {
          "internalType": "uint256",
          "name": "tokenId",
          "type": "uint256"
        }
      ],
      "name": "transferFrom",
      "outputs": [],
      "stateMutability": "nonpayable",
      "type": "function"
    }
  ],
  "bytecode": "0x60806040523480156200001157600080fd5b50604051620017c3380380620017c3833981016040819052620000349162000160565b604080518082018252600b81526a73426c6f636b466f72676560a81b60208083019182528351808501909452600584526439a125a62360d91b9084015281519192916200008491600091620000ba565b5080516200009a906001906020840190620000ba565b50508151620000b291506039906020840190620000ba565b505062000289565b828054620000c89062000236565b90600052602060002090601f016020900481019282620000ec576000855562000137565b82601f106200010757805160ff191683800117855562000137565b8280016001018555821562000137579182015b82811115620001375782518255916020019190600101906200011a565b506200014592915062000149565b5090565b5b808211156200014557600081556001016200014a565b6000602080838503121562000173578182fd5b82516001600160401b03808211156200018a578384fd5b818501915085601f8301126200019e578384fd5b815181811115620001b357620001b362000273565b604051601f8201601f19908116603f01168101908382118183101715620001de57620001de62000273565b816040528281528886848701011115620001f6578687fd5b8693505b82841015620002195784840186015181850187015292850192620001fa565b828411156200022a57868684830101525b98975050505050505050565b600181811c908216806200024b57607f821691505b602082108114156200026d57634e487b7160e01b600052602260045260246000fd5b50919050565b634e487b7160e01b600052604160045260246000fd5b61152a80620002996000396000f3fe608060405234801561001057600080fd5b50600436106100f55760003560e01c806342966c6811610097578063a22cb46511610066578063a22cb465146101ff578063b88d4fde14610212578063c87b56dd14610225578063e985e9c51461023857600080fd5b806342966c68146101b05780636352211e146101c357806370a08231146101d657806395d89b41146101f757600080fd5b8063095ea7b3116100d3578063095ea7b31461016257806323b872dd1461017757806340c10f191461018a57806342842e0e1461019d57600080fd5b806301ffc9a7146100fa57806306fdde0314610122578063081812fc14610137575b600080fd5b61010d610108366004611225565b610274565b60405190151581526020015b60405180910390f35b61012a6102c6565b604051610119919061130d565b61014a61014536600461125d565b610358565b6040516001600160a01b039091168152602001610119565b6101756101703660046111fc565b6103f2565b005b6101756101853660046110b2565b610508565b6101756101983660046111fc565b610539565b6101756101ab3660046110b2565b6105a4565b6101756101be36600461125d565b6105bf565b61014a6101d136600461125d565b6105cb565b6101e96101e4366004611066565b610642565b604051908152602001610119565b61012a6106c9565b61017561020d3660046111c2565b6106d8565b6101756102203660046110ed565b61079d565b61012a61023336600461125d565b6107d5565b61010d610246366004611080565b6001600160a01b03918216600090815260056020908152604080832093909416825291909152205460ff1690565b60006001600160e01b031982166380ac58cd60e01b14806102a557506001600160e01b03198216635b5e139f60e01b145b806102c057506301ffc9a760e01b6001600160e01b03198316145b92915050565b6060600080546102d590611432565b80601f016020809104026020016040519081016040528092919081815260200182805461030190611432565b801561034e5780601f106103235761010080835404028352916020019161034e565b820191906000526020600020905b81548152906001019060200180831161033157829003601f168201915b5050505050905090565b6000818152600260205260408120546001600160a01b03166103d65760405162461bcd60e51b815260206004820152602c60248201527f4552433732313a20617070726f76656420717565727920666f72206e6f6e657860448201526b34b9ba32b73a103a37b5b2b760a11b60648201526084015b60405180910390fd5b506000908152600460205260409020546001600160a01b031690565b60006103fd826105cb565b9050806001600160a01b0316836001600160a01b0316141561046b5760405162461bcd60e51b815260206004820152602160248201527f4552433732313a20617070726f76616c20746f2063757272656e74206f776e656044820152603960f91b60648201526084016103cd565b336001600160a01b038216148061048757506104878133610246565b6104f95760405162461bcd60e51b815260206004820152603860248201527f4552433732313a20617070726f76652063616c6c6572206973206e6f74206f7760448201527f6e6572206e6f7220617070726f76656420666f7220616c6c000000000000000060648201526084016103cd565b61050383836108bd565b505050565b610512338261092b565b61052e5760405162461bcd60e51b81526004016103cd90611372565b610503838383610a22565b6002600754141561058c5760405162461bcd60e51b815260206004820152601f60248201527f5265656e7472616e637947756172643a207265656e7472616e742063616c6c0060448201526064016103cd565b600260075561059b8282610bc2565b50506001600755565b6105038383836040518060200160405280600081525061079d565b6105c881610be0565b50565b6000818152600260205260408120546001600160a01b0316806102c05760405162461bcd60e51b815260206004820152602960248201527f4552433732313a206f776e657220717565727920666f72206e6f6e657869737460448201526832b73a103a37b5b2b760b91b60648201526084016103cd565b60006001600160a01b0382166106ad5760405162461bcd60e51b815260206004820152602a60248201527f4552433732313a2062616c616e636520717565727920666f7220746865207a65604482015269726f206164647265737360b01b60648201526084016103cd565b506001600160a01b031660009081526003602052604090205490565b6060600180546102d590611432565b6001600160a01b0382163314156107315760405162461bcd60e51b815260206004820152601960248201527f4552433732313a20617070726f766520746f2063616c6c65720000000000000060448201526064016103cd565b3360008181526005602090815260408083206001600160a01b03871680855290835292819020805460ff191686151590811790915590519081529192917f17307eab39ab6107e8899845ad3d59bd9653f200f220920489ca2b5937696c31910160405180910390a35050565b6107a7338361092b565b6107c35760405162461bcd60e51b81526004016103cd90611372565b6107cf84848484610c7b565b50505050565b6000818152600260205260409020546060906001600160a01b03166108545760405162461bcd60e51b815260206004820152602f60248201527f4552433732314d657461646174613a2055524920717565727920666f72206e6f60448201526e3732bc34b9ba32b73a103a37b5b2b760891b60648201526084016103cd565b600061086b60408051602081019091526000815290565b9050600081511161088b57604051806020016040528060008152506108b6565b8061089584610cae565b6040516020016108a69291906112a1565b6040516020818303038152906040525b9392505050565b600081815260046020526040902080546001600160a01b0319166001600160a01b03841690811790915581906108f2826105cb565b6001600160a01b03167f8c5be1e5ebec7d5bd14f71427d1e84f3dd0314c0f7b2291e5b200ac8c7c3b92560405160405180910390a45050565b6000818152600260205260408120546001600160a01b03166109a45760405162461bcd60e51b815260206004820152602c60248201527f4552433732313a206f70657261746f7220717565727920666f72206e6f6e657860448201526b34b9ba32b73a103a37b5b2b760a11b60648201526084016103cd565b60006109af836105cb565b9050806001600160a01b0316846001600160a01b031614806109ea5750836001600160a01b03166109df84610358565b6001600160a01b0316145b80610a1a57506001600160a01b0380821660009081526005602090815260408083209388168352929052205460ff165b949350505050565b826001600160a01b0316610a35826105cb565b6001600160a01b031614610a9d5760405162461bcd60e51b815260206004820152602960248201527f4552433732313a207472616e73666572206f6620746f6b656e2074686174206960448201526839903737ba1037bbb760b91b60648201526084016103cd565b6001600160a01b038216610aff5760405162461bcd60e51b8152602060048201526024808201527f4552433732313a207472616e7366657220746f20746865207a65726f206164646044820152637265737360e01b60648201526084016103cd565b610b0a6000826108bd565b6001600160a01b0383166000908152600360205260408120805460019290610b339084906113ef565b90915550506001600160a01b0382166000908152600360205260408120805460019290610b619084906113c3565b909155505060008181526002602052604080822080546001600160a01b0319166001600160a01b0386811691821790925591518493918716917fddf252ad1be2c89b69c2b068fc378daa952ba7f163c4a11628f55a4df523b3ef91a4505050565b610bdc828260405180602001604052806000815250610dc8565b5050565b6000610beb826105cb565b9050610bf86000836108bd565b6001600160a01b0381166000908152600360205260408120805460019290610c219084906113ef565b909155505060008281526002602052604080822080546001600160a01b0319169055518391906001600160a01b038416907fddf252ad1be2c89b69c2b068fc378daa952ba7f163c4a11628f55a4df523b3ef908390a45050565b610c86848484610a22565b610c9284848484610dfb565b6107cf5760405162461bcd60e51b81526004016103cd90611320565b606081610cd25750506040805180820190915260018152600360fc1b602082015290565b8160005b8115610cfc5780610ce68161146d565b9150610cf59050600a836113db565b9150610cd6565b60008167ffffffffffffffff811115610d2557634e487b7160e01b600052604160045260246000fd5b6040519080825280601f01601f191660200182016040528015610d4f576020820181803683370190505b5090505b8415610a1a57610d646001836113ef565b9150610d71600a86611488565b610d7c9060306113c3565b60f81b818381518110610d9f57634e487b7160e01b600052603260045260246000fd5b60200101906001600160f81b031916908160001a905350610dc1600a866113db565b9450610d53565b610dd28383610f08565b610ddf6000848484610dfb565b6105035760405162461bcd60e51b81526004016103cd90611320565b60006001600160a01b0384163b15610efd57604051630a85bd0160e11b81526001600160a01b0385169063150b7a0290610e3f9033908990889088906004016112d0565b602060405180830381600087803b158015610e5957600080fd5b505af1925050508015610e89575060408051601f3d908101601f19168201909252610e8691810190611241565b60015b610ee3573d808015610eb7576040519150601f19603f3d011682016040523d82523d6000602084013e610ebc565b606091505b508051610edb5760405162461bcd60e51b81526004016103cd90611320565b805181602001fd5b6001600160e01b031916630a85bd0160e11b149050610a1a565b506001949350505050565b6001600160a01b038216610f5e5760405162461bcd60e51b815260206004820181905260248201527f4552433732313a206d696e7420746f20746865207a65726f206164647265737360448201526064016103cd565b6000818152600260205260409020546001600160a01b031615610fc35760405162461bcd60e51b815260206004820152601c60248201527f4552433732313a20746f6b656e20616c7265616479206d696e7465640000000060448201526064016103cd565b6001600160a01b0382166000908152600360205260408120805460019290610fec9084906113c3565b909155505060008181526002602052604080822080546001600160a01b0319166001600160a01b03861690811790915590518392907fddf252ad1be2c89b69c2b068fc378daa952ba7f163c4a11628f55a4df523b3ef908290a45050565b80356001600160a01b038116811461106157600080fd5b919050565b600060208284031215611077578081fd5b6108b68261104a565b60008060408385031215611092578081fd5b61109b8361104a565b91506110a96020840161104a565b90509250929050565b6000806000606084860312156110c6578081fd5b6110cf8461104a565b92506110dd6020850161104a565b9150604084013590509250925092565b60008060008060808587031215611102578081fd5b61110b8561104a565b93506111196020860161104a565b925060408501359150606085013567ffffffffffffffff8082111561113c578283fd5b818701915087601f83011261114f578283fd5b813581811115611161576111616114c8565b604051601f8201601f19908116603f01168101908382118183101715611189576111896114c8565b816040528281528a60208487010111156111a1578586fd5b82602086016020830137918201602001949094529598949750929550505050565b600080604083850312156111d4578182fd5b6111dd8361104a565b9150602083013580151581146111f1578182fd5b809150509250929050565b6000806040838503121561120e578182fd5b6112178361104a565b946020939093013593505050565b600060208284031215611236578081fd5b81356108b6816114de565b600060208284031215611252578081fd5b81516108b6816114de565b60006020828403121561126e578081fd5b5035919050565b6000815180845261128d816020860160208601611406565b601f01601f19169290920160200192915050565b600083516112b3818460208801611406565b8351908301906112c7818360208801611406565b01949350505050565b6001600160a01b038581168252841660208201526040810183905260806060820181905260009061130390830184611275565b9695505050505050565b6020815260006108b66020830184611275565b60208082526032908201527f4552433732313a207472616e7366657220746f206e6f6e20455243373231526560408201527131b2b4bb32b91034b6b83632b6b2b73a32b960711b606082015260800190565b60208082526031908201527f4552433732313a207472616e736665722063616c6c6572206973206e6f74206f6040820152701ddb995c881b9bdc88185c1c1c9bdd9959607a1b606082015260800190565b600082198211156113d6576113d661149c565b500190565b6000826113ea576113ea6114b2565b500490565b6000828210156114015761140161149c565b500390565b60005b83811015611421578181015183820152602001611409565b838111156107cf5750506000910152565b600181811c9082168061144657607f821691505b6020821081141561146757634e487b7160e01b600052602260045260246000fd5b50919050565b60006000198214156114815761148161149c565b5060010190565b600082611497576114976114b2565b500690565b634e487b7160e01b600052601160045260246000fd5b634e487b7160e01b600052601260045260246000fd5b634e487b7160e01b600052604160045260246000fd5b6001600160e01b0319811681146105c857600080fdfea2646970667358221220a218e4d7f7c48c58f94fceda8768a5b101b9c9a98735b6f7ab7028da1194a7ce64736f6c63430008040033",
  "linkReferences": {},
  "deployedLinkReferences": {}
}