{
  "_format": "hh-sol-artifact-1",
  "contractName": "SBlock",
  "sourceName": "contracts/sBlock.sol",
  "abi": [
    {
      "inputs": [
        {
          "internalType": "string",
          "name": "baseTokenURI",
          "type": "string"
        }
      ],
      "stateMutability": "nonpayable",
      "type": "constructor"
    },
    {
      "anonymous": false,
      "inputs": [
        {
          "indexed": true,
          "internalType": "address",
          "name": "owner",
          "type": "address"
        },
        {
          "indexed": true,
          "internalType": "address",
          "name": "approved",
          "type": "address"
        },
        {
          "indexed": true,
          "internalType": "uint256",
          "name": "tokenId",
          "type": "uint256"
        }
      ],
      "name": "Approval",
      "type": "event"
    },
    {
      "anonymous": false,
      "inputs": [
        {
          "indexed": true,
          "internalType": "address",
          "name": "owner",
          "type": "address"
        },
        {
          "indexed": true,
          "internalType": "address",
          "name": "operator",
          "type": "address"
        },
        {
          "indexed": false,
          "internalType": "bool",
          "name": "approved",
          "type": "bool"
        }
      ],
      "name": "ApprovalForAll",
      "type": "event"
    },
    {
      "anonymous": false,
      "inputs": [
        {
          "indexed": true,
          "internalType": "address",
          "name": "delegate",
          "type": "address"
        },
        {
          "indexed": true,
          "internalType": "uint256",
          "name": "roles",
          "type": "uint256"
        }
      ],
      "name": "DelegateUpdated",
      "type": "event"
    },
    {
      "anonymous": false,
      "inputs": [
        {
          "indexed": true,
          "internalType": "address",
          "name": "previousOwner",
          "type": "address"
        },
        {
          "indexed": true,
          "internalType": "address",
          "name": "newOwner",
          "type": "address"
        }
      ],
      "name": "OwnershipTransferred",
      "type": "event"
    },
    {
      "anonymous": false,
      "inputs": [
        {
          "indexed": true,
          "internalType": "address",
          "name": "from",
          "type": "address"
        },
        {
          "indexed": true,
          "internalType": "address",
          "name": "to",
          "type": "address"
        },
        {
          "indexed": true,
          "internalType": "uint256",
          "name": "tokenId",
          "type": "uint256"
        }
      ],
      "name": "Transfer",
      "type": "event"
    },
    {
      "inputs": [],
      "name": "BURN_ROLE",
      "outputs": [
        {
          "internalType": "uint256",
          "name": "",
          "type": "uint256"
        }
      ],
      "stateMutability": "view",
      "type": "function"
    },
    {
      "inputs": [],
      "name": "DEFAULT_LOCK_DURATION",
      "outputs": [
        {
          "internalType": "uint256",
          "name": "",
          "type": "uint256"
        }
      ],
      "stateMutability": "view",
      "type": "function"
    },
    {
      "inputs": [],
      "name": "LOCK_ROLE",
      "outputs": [
        {
          "internalType": "uint256",
          "name": "",
          "type": "uint256"
        }
      ],
      "stateMutability": "view",
      "type": "function"
    },
    {
      "inputs": [],
      "name": "MINT_ROLE",
      "outputs": [
        {
          "internalType": "uint256",
          "name": "",
          "type": "uint256"
        }
      ],
      "stateMutability": "view",
      "type": "function"
    },
    {
      "inputs": [],
      "name": "TRANSFER_ROLE",
      "outputs": [
        {
          "internalType": "uint256",
          "name": "",
          "type": "uint256"
        }
      ],
      "stateMutability": "view",
      "type": "function"
    },
    {
      "inputs": [
        {
          "internalType": "string",
          "name": "baseTokenURI",
          "type": "string"
        }
      ],
      "name": "_setBaseURI",
      "outputs": [],
      "stateMutability": "nonpayable",
      "type": "function"
    },
    {
      "inputs": [
        {
          "internalType": "address",
          "name": "to",
          "type": "address"
        },
        {
          "internalType": "uint256",
          "name": "tokenId",
          "type": "uint256"
        }
      ],
      "name": "approve",
      "outputs": [],
      "stateMutability": "nonpayable",
      "type": "function"
    },
    {
      "inputs": [
        {
          "internalType": "address",
          "name": "owner",
          "type": "address"
        }
      ],
      "name": "balanceOf",
      "outputs": [
        {
          "internalType": "uint256",
          "name": "",
          "type": "uint256"
        }
      ],
      "stateMutability": "view",
      "type": "function"
    },
    {
      "inputs": [
        {
          "internalType": "uint256",
          "name": "tokenId",
          "type": "uint256"
        }
      ],
      "name": "burn",
      "outputs": [],
      "stateMutability": "nonpayable",
      "type": "function"
    },
    {
      "inputs": [
        {
          "internalType": "address",
          "name": "",
          "type": "address"
        }
      ],
      "name": "delegates",
      "outputs": [
        {
          "internalType": "uint256",
          "name": "",
          "type": "uint256"
        }
      ],
      "stateMutability": "view",
      "type": "function"
    },
    {
      "inputs": [
        {
          "internalType": "uint256",
          "name": "tokenId",
          "type": "uint256"
        }
      ],
      "name": "getApproved",
      "outputs": [
        {
          "internalType": "address",
          "name": "",
          "type": "address"
        }
      ],
      "stateMutability": "view",
      "type": "function"
    },
    {
      "inputs": [
        {
          "internalType": "uint256",
          "name": "tokenId",
          "type": "uint256"
        }
      ],
      "name": "getLease",
      "outputs": [
        {
          "components": [
            {
              "internalType": "address",
              "name": "provenance",
              "type": "address"
            },
            {
              "internalType": "uint48",
              "name": "lockExpiration",
              "type": "uint48"
            }
          ],
          "internalType": "struct ERC721Staked.Lease",
          "name": "lease",
          "type": "tuple"
        }
      ],
      "stateMutability": "view",
      "type": "function"
    },
    {
      "inputs": [
        {
          "internalType": "uint256",
          "name": "tokenId",
          "type": "uint256"
        }
      ],
      "name": "getLockDuration",
      "outputs": [
        {
          "internalType": "uint256",
          "name": "lockDuration",
          "type": "uint256"
        }
      ],
      "stateMutability": "view",
      "type": "function"
    },
    {
      "inputs": [
        {
          "internalType": "address",
          "name": "delegate",
          "type": "address"
        },
        {
          "internalType": "uint256",
          "name": "roles",
          "type": "uint256"
        }
      ],
      "name": "hasRoles",
      "outputs": [
        {
          "internalType": "bool",
          "name": "",
          "type": "bool"
        }
      ],
      "stateMutability": "view",
      "type": "function"
    },
    {
      "inputs": [
        {
          "internalType": "address",
          "name": "owner",
          "type": "address"
        },
        {
          "internalType": "address",
          "name": "operator",
          "type": "address"
        }
      ],
      "name": "isApprovedForAll",
      "outputs": [
        {
          "internalType": "bool",
          "name": "",
          "type": "bool"
        }
      ],
      "stateMutability": "view",
      "type": "function"
    },
    {
      "inputs": [
        {
          "internalType": "uint256",
          "name": "",
          "type": "uint256"
        }
      ],
      "name": "lockDurations",
      "outputs": [
        {
          "internalType": "uint256",
          "name": "",
          "type": "uint256"
        }
      ],
      "stateMutability": "view",
      "type": "function"
    },
    {
      "inputs": [
        {
          "internalType": "address",
          "name": "to",
          "type": "address"
        },
        {
          "internalType": "uint256",
          "name": "tokenId",
          "type": "uint256"
        }
      ],
      "name": "mint",
      "outputs": [],
      "stateMutability": "nonpayable",
      "type": "function"
    },
    {
      "inputs": [],
      "name": "name",
      "outputs": [
        {
          "internalType": "string",
          "name": "",
          "type": "string"
        }
      ],
      "stateMutability": "view",
      "type": "function"
    },
    {
      "inputs": [],
      "name": "owner",
      "outputs": [
        {
          "internalType": "address",
          "name": "",
          "type": "address"
        }
      ],
      "stateMutability": "view",
      "type": "function"
    },
    {
      "inputs": [
        {
          "internalType": "uint256",
          "name": "tokenId",
          "type": "uint256"
        }
      ],
      "name": "ownerOf",
      "outputs": [
        {
          "internalType": "address",
          "name": "",
          "type": "address"
        }
      ],
      "stateMutability": "view",
      "type": "function"
    },
    {
      "inputs": [],
      "name": "renounceOwnership",
      "outputs": [],
      "stateMutability": "nonpayable",
      "type": "function"
    },
    {
      "inputs": [
        {
          "internalType": "address",
          "name": "oldDelegate",
          "type": "address"
        },
        {
          "internalType": "address",
          "name": "newDelegate",
          "type": "address"
        }
      ],
      "name": "replaceDelegate",
      "outputs": [],
      "stateMutability": "nonpayable",
      "type": "function"
    },
    {
      "inputs": [
        {
          "internalType": "uint256",
          "name": "tokenId",
          "type": "uint256"
        }
      ],
      "name": "revoke",
      "outputs": [],
      "stateMutability": "nonpayable",
      "type": "function"
    },
    {
      "inputs": [
        {
          "internalType": "address",
          "name": "from",
          "type": "address"
        },
        {
          "internalType": "address",
          "name": "to",
          "type": "address"
        },
        {
          "internalType": "uint256",
          "name": "tokenId",
          "type": "uint256"
        }
      ],
      "name": "safeTransferFrom",
      "outputs": [],
      "stateMutability": "nonpayable",
      "type": "function"
    },
    {
      "inputs": [
        {
          "internalType": "address",
          "name": "from",
          "type": "address"
        },
        {
          "internalType": "address",
          "name": "to",
          "type": "address"
        },
        {
          "internalType": "uint256",
          "name": "tokenId",
          "type": "uint256"
        },
        {
          "internalType": "bytes",
          "name": "_data",
          "type": "bytes"
        }
      ],
      "name": "safeTransferFrom",
      "outputs": [],
      "stateMutability": "nonpayable",
      "type": "function"
    },
    {
      "inputs": [
        {
          "internalType": "address",
          "name": "operator",
          "type": "address"
        },
        {
          "internalType": "bool",
          "name": "approved",
          "type": "bool"
        }
      ],
      "name": "setApprovalForAll",
      "outputs": [],
      "stateMutability": "nonpayable",
      "type": "function"
    },
    {
      "inputs": [
        {
          "internalType": "uint256",
          "name": "tokenId",
          "type": "uint256"
        },
        {
          "internalType": "uint256",
          "name": "lockDuration",
          "type": "uint256"
        }
      ],
      "name": "setLockDuration",
      "outputs": [],
      "stateMutability": "nonpayable",
      "type": "function"
    },
    {
      "inputs": [
        {
          "internalType": "bytes4",
          "name": "interfaceId",
          "type": "bytes4"
        }
      ],
      "name": "supportsInterface",
      "outputs": [
        {
          "internalType": "bool",
          "name": "",
          "type": "bool"
        }
      ],
      "stateMutability": "view",
      "type": "function"
    },
    {
      "inputs": [],
      "name": "symbol",
      "outputs": [
        {
          "internalType": "string",
          "name": "",
          "type": "string"
        }
      ],
      "stateMutability": "view",
      "type": "function"
    },
    {
      "inputs": [
        {
          "internalType": "uint256",
          "name": "tokenId",
          "type": "uint256"
        }
      ],
      "name": "tokenURI",
      "outputs": [
        {
          "internalType": "string",
          "name": "",
          "type": "string"
        }
      ],
      "stateMutability": "view",
      "type": "function"
    },
    {
      "inputs": [
        {
          "internalType": "address",
          "name": "from",
          "type": "address"
        },
        {
          "internalType": "address",
          "name": "to",
          "type": "address"
        },
        {
          "internalType": "uint256",
          "name": "tokenId",
          "type": "uint256"
        }
      ],
      "name": "transferFrom",
      "outputs": [],
      "stateMutability": "nonpayable",
      "type": "function"
    },
    {
      "inputs": [
        {
          "internalType": "address",
          "name": "newOwner",
          "type": "address"
        }
      ],
      "name": "transferOwnership",
      "outputs": [],
      "stateMutability": "nonpayable",
      "type": "function"
    },
    {
      "inputs": [
        {
          "internalType": "address",
          "name": "delegate",
          "type": "address"
        },
        {
          "internalType": "uint256",
          "name": "roles",
          "type": "uint256"
        }
      ],
      "name": "updateDelegate",
      "outputs": [],
      "stateMutability": "nonpayable",
      "type": "function"
    }
  ],
  "bytecode": "0x60806040523480156200001157600080fd5b50604051620022b4380380620022b48339810160408190526200003491620001d0565b604080518082018252600b81526a73426c6f636b466f72676560a81b60208083019182528351808501909452600584526439a125a62360d91b90840152815191929162000084916000916200012a565b5080516200009a9060019060208401906200012a565b505050620000b7620000b1620000d460201b60201c565b620000d8565b8051620000cc90603d9060208401906200012a565b5050620002f9565b3390565b600680546001600160a01b038381166001600160a01b0319831681179093556040519116919082907f8be0079c531659141344cd1fd0a4f28419497f9722a3daafe3b4186f6b6457e090600090a35050565b8280546200013890620002a6565b90600052602060002090601f0160209004810192826200015c5760008555620001a7565b82601f106200017757805160ff1916838001178555620001a7565b82800160010185558215620001a7579182015b82811115620001a75782518255916020019190600101906200018a565b50620001b5929150620001b9565b5090565b5b80821115620001b55760008155600101620001ba565b60006020808385031215620001e3578182fd5b82516001600160401b0380821115620001fa578384fd5b818501915085601f8301126200020e578384fd5b815181811115620002235762000223620002e3565b604051601f8201601f19908116603f011681019083821181831017156200024e576200024e620002e3565b81604052828152888684870101111562000266578687fd5b8693505b828410156200028957848401860151818501870152928501926200026a565b828411156200029a57868684830101525b98975050505050505050565b600181811c90821680620002bb57607f821691505b60208210811415620002dd57634e487b7160e01b600052602260045260246000fd5b50919050565b634e487b7160e01b600052604160045260246000fd5b611fab80620003096000396000f3fe608060405234801561001057600080fd5b50600436106101fb5760003560e01c8063587cde1e1161011a578063b88d4fde116100ad578063d9a2e7311161007c578063d9a2e73114610460578063e985e9c514610473578063e9a9c850146104af578063ee3ca99c146104b7578063f2fde38b146104bf57600080fd5b8063b88d4fde1461041f578063b930908f14610432578063c87b56dd1461043a578063d25117d81461044d57600080fd5b80638da5cb5b116100e95780638da5cb5b146103b457806395d89b41146103c55780639f44657c146103cd578063a22cb4651461040c57600080fd5b8063587cde1e146103665780636352211e1461038657806370a0823114610399578063715018a6146103ac57600080fd5b806323b872dd1161019257806336c2f4251161016157806336c2f4251461031a57806340c10f191461032d57806342842e0e1461034057806342966c681461035357600080fd5b806323b872dd146102cc5780632f286b1b146102df57806331b5b907146102e757806332298be1146102fa57600080fd5b8063112ff489116101ce578063112ff4891461027d578063126796dd14610290578063206b60f9146102a357806320c5429b146102b957600080fd5b806301ffc9a71461020057806306fdde0314610228578063081812fc1461023d578063095ea7b314610268575b600080fd5b61021361020e366004611bbb565b6104d2565b60405190151581526020015b60405180910390f35b610230610524565b60405161021f9190611d0a565b61025061024b366004611c39565b6105b6565b6040516001600160a01b03909116815260200161021f565b61027b610276366004611b92565b610650565b005b61021361028b366004611b92565b610766565b61027b61029e366004611c51565b610787565b6102ab600381565b60405190815260200161021f565b61027b6102c7366004611c39565b6107c2565b61027b6102da366004611aa4565b610840565b6102ab600881565b61027b6102f5366004611bf3565b610889565b6102ab610308366004611c39565b603b6020526000908152604090205481565b61027b610328366004611a72565b6108c6565b61027b61033b366004611b92565b61091f565b61027b61034e366004611aa4565b6109b3565b61027b610361366004611c39565b6109ce565b6102ab610374366004611a58565b60076020526000908152604090205481565b610250610394366004611c39565b6109ff565b6102ab6103a7366004611a58565b610a76565b61027b610afd565b6006546001600160a01b0316610250565b610230610b33565b6103e06103db366004611c39565b610b42565b6040805182516001600160a01b0316815260209283015165ffffffffffff16928101929092520161021f565b61027b61041a366004611b58565b610bd1565b61027b61042d366004611adf565b610c96565b6102ab600281565b610230610448366004611c39565b610cc8565b61027b61045b366004611b92565b610da3565b6102ab61046e366004611c39565b610e43565b610213610481366004611a72565b6001600160a01b03918216600090815260056020908152604080832093909416825291909152205460ff1690565b6102ab600181565b6102ab607881565b61027b6104cd366004611a58565b610e5f565b60006001600160e01b031982166380ac58cd60e01b148061050357506001600160e01b03198216635b5e139f60e01b145b8061051e57506301ffc9a760e01b6001600160e01b03198316145b92915050565b60606000805461053390611eb3565b80601f016020809104026020016040519081016040528092919081815260200182805461055f90611eb3565b80156105ac5780601f10610581576101008083540402835291602001916105ac565b820191906000526020600020905b81548152906001019060200180831161058f57829003601f168201915b5050505050905090565b6000818152600260205260408120546001600160a01b03166106345760405162461bcd60e51b815260206004820152602c60248201527f4552433732313a20617070726f76656420717565727920666f72206e6f6e657860448201526b34b9ba32b73a103a37b5b2b760a11b60648201526084015b60405180910390fd5b506000908152600460205260409020546001600160a01b031690565b600061065b826109ff565b9050806001600160a01b0316836001600160a01b031614156106c95760405162461bcd60e51b815260206004820152602160248201527f4552433732313a20617070726f76616c20746f2063757272656e74206f776e656044820152603960f91b606482015260840161062b565b336001600160a01b03821614806106e557506106e58133610481565b6107575760405162461bcd60e51b815260206004820152603860248201527f4552433732313a20617070726f76652063616c6c6572206973206e6f74206f7760448201527f6e6572206e6f7220617070726f76656420666f7220616c6c0000000000000000606482015260840161062b565b6107618383610efa565b505050565b6001600160a01b039190911660009081526007602052604090205481161490565b60086107933382610766565b6107af5760405162461bcd60e51b815260040161062b90611d6f565b506000918252603b602052604090912055565b6000818152603c60205260409020546001600160a01b03163381146108295760405162461bcd60e51b815260206004820152601860248201527f43616c6c6572206973206e6f742070726f76656e616e63650000000000000000604482015260640161062b565b61083c610835836109ff565b8284610f68565b5050565b3361084b8183611113565b8061085c575061085c816003610766565b6108785760405162461bcd60e51b815260040161062b90611df3565b610883848484610f68565b50505050565b6006546001600160a01b031633146108b35760405162461bcd60e51b815260040161062b90611dbe565b805161083c90603d906020840190611932565b6006546001600160a01b031633146108f05760405162461bcd60e51b815260040161062b90611dbe565b6001600160a01b03821660009081526007602052604081205490610915908490610da3565b6107618282610da3565b600161092b3382610766565b6109475760405162461bcd60e51b815260040161062b90611d6f565b6002600954141561099a5760405162461bcd60e51b815260206004820152601f60248201527f5265656e7472616e637947756172643a207265656e7472616e742063616c6c00604482015260640161062b565b60026009556109a9838361120a565b5050600160095550565b61076183838360405180602001604052806000815250610c96565b60026109da3382610766565b6109f65760405162461bcd60e51b815260040161062b90611d6f565b61083c82611224565b6000818152600260205260408120546001600160a01b03168061051e5760405162461bcd60e51b815260206004820152602960248201527f4552433732313a206f776e657220717565727920666f72206e6f6e657869737460448201526832b73a103a37b5b2b760b91b606482015260840161062b565b60006001600160a01b038216610ae15760405162461bcd60e51b815260206004820152602a60248201527f4552433732313a2062616c616e636520717565727920666f7220746865207a65604482015269726f206164647265737360b01b606482015260840161062b565b506001600160a01b031660009081526003602052604090205490565b6006546001600160a01b03163314610b275760405162461bcd60e51b815260040161062b90611dbe565b610b3160006112cb565b565b60606001805461053390611eb3565b60408051808201825260008082526020918201819052838152603c82528290208251808401909352546001600160a01b038116808452600160a01b90910465ffffffffffff1691830191909152158015610bb257506000828152600260205260409020546001600160a01b031615155b15610bcc57610bc0826109ff565b6001600160a01b031681525b919050565b6001600160a01b038216331415610c2a5760405162461bcd60e51b815260206004820152601960248201527f4552433732313a20617070726f766520746f2063616c6c657200000000000000604482015260640161062b565b3360008181526005602090815260408083206001600160a01b03871680855290835292819020805460ff191686151590811790915590519081529192917f17307eab39ab6107e8899845ad3d59bd9653f200f220920489ca2b5937696c31910160405180910390a35050565b610ca03383611113565b610cbc5760405162461bcd60e51b815260040161062b90611df3565b6108838484848461131d565b6000818152600260205260409020546060906001600160a01b0316610d475760405162461bcd60e51b815260206004820152602f60248201527f4552433732314d657461646174613a2055524920717565727920666f72206e6f60448201526e3732bc34b9ba32b73a103a37b5b2b760891b606482015260840161062b565b6000610d51611350565b90506000815111610d715760405180602001604052806000815250610d9c565b80610d7b8461135f565b604051602001610d8c929190611c9e565b6040516020818303038152906040525b9392505050565b6006546001600160a01b03163314610dcd5760405162461bcd60e51b815260040161062b90611dbe565b6001600160a01b038216610e395760405162461bcd60e51b815260206004820152602d60248201527f44656c6567617461626c653a206e65772064656c65676174652069732074686560448201526c207a65726f206164647265737360981b606482015260840161062b565b61083c8282611479565b6000818152603b602052604090205480610bcc57506078919050565b6006546001600160a01b03163314610e895760405162461bcd60e51b815260040161062b90611dbe565b6001600160a01b038116610eee5760405162461bcd60e51b815260206004820152602660248201527f4f776e61626c653a206e6577206f776e657220697320746865207a65726f206160448201526564647265737360d01b606482015260840161062b565b610ef7816112cb565b50565b600081815260046020526040902080546001600160a01b0319166001600160a01b0384169081179091558190610f2f826109ff565b6001600160a01b03167f8c5be1e5ebec7d5bd14f71427d1e84f3dd0314c0f7b2291e5b200ac8c7c3b92560405160405180910390a45050565b826001600160a01b0316610f7b826109ff565b6001600160a01b031614610fe35760405162461bcd60e51b815260206004820152602960248201527f4552433732313a207472616e73666572206f6620746f6b656e2074686174206960448201526839903737ba1037bbb760b91b606482015260840161062b565b6001600160a01b0382166110455760405162461bcd60e51b8152602060048201526024808201527f4552433732313a207472616e7366657220746f20746865207a65726f206164646044820152637265737360e01b606482015260840161062b565b6110508383836114c0565b61105b600082610efa565b6001600160a01b0383166000908152600360205260408120805460019290611084908490611e70565b90915550506001600160a01b03821660009081526003602052604081208054600192906110b2908490611e44565b909155505060008181526002602052604080822080546001600160a01b0319166001600160a01b0386811691821790925591518493918716917fddf252ad1be2c89b69c2b068fc378daa952ba7f163c4a11628f55a4df523b3ef91a4505050565b6000818152600260205260408120546001600160a01b031661118c5760405162461bcd60e51b815260206004820152602c60248201527f4552433732313a206f70657261746f7220717565727920666f72206e6f6e657860448201526b34b9ba32b73a103a37b5b2b760a11b606482015260840161062b565b6000611197836109ff565b9050806001600160a01b0316846001600160a01b031614806111d25750836001600160a01b03166111c7846105b6565b6001600160a01b0316145b8061120257506001600160a01b0380821660009081526005602090815260408083209388168352929052205460ff165b949350505050565b61083c8282604051806020016040528060008152506116a4565b600061122f826109ff565b905061123d816000846114c0565b611248600083610efa565b6001600160a01b0381166000908152600360205260408120805460019290611271908490611e70565b909155505060008281526002602052604080822080546001600160a01b0319169055518391906001600160a01b038416907fddf252ad1be2c89b69c2b068fc378daa952ba7f163c4a11628f55a4df523b3ef908390a45050565b600680546001600160a01b038381166001600160a01b0319831681179093556040519116919082907f8be0079c531659141344cd1fd0a4f28419497f9722a3daafe3b4186f6b6457e090600090a35050565b611328848484610f68565b611334848484846116d7565b6108835760405162461bcd60e51b815260040161062b90611d1d565b6060603d805461053390611eb3565b6060816113835750506040805180820190915260018152600360fc1b602082015290565b8160005b81156113ad578061139781611eee565b91506113a69050600a83611e5c565b9150611387565b60008167ffffffffffffffff8111156113d657634e487b7160e01b600052604160045260246000fd5b6040519080825280601f01601f191660200182016040528015611400576020820181803683370190505b5090505b841561120257611415600183611e70565b9150611422600a86611f09565b61142d906030611e44565b60f81b81838151811061145057634e487b7160e01b600052603260045260246000fd5b60200101906001600160f81b031916908160001a905350611472600a86611e5c565b9450611404565b6001600160a01b038216600081815260076020526040808220849055518392917f6c5f52bb89ff64b97a0875a6ee13193b008c8b1460aea11a245fa07b64b721e691a35050565b6001600160a01b0383166114d357505050565b60006114de82610b42565b9050336001600160a01b03851614806115035750806020015165ffffffffffff164210155b61154f5760405162461bcd60e51b815260206004820152601860248201527f546f6b656e206973206c6f636b656420696e206c656173650000000000000000604482015260640161062b565b6001600160a01b03831661157e576000828152603c6020526040902080546001600160d01b0319169055610883565b826001600160a01b0316846001600160a01b0316146108835780516001600160a01b03858116911614156116335760006115b783610e43565b6040805180820190915283516001600160a01b03168152909150602081016115df8342611e44565b65ffffffffffff9081169091526000858152603c60209081526040909120835181549490920151909216600160a01b026001600160d01b03199093166001600160a01b039091161791909117905550610883565b80516001600160a01b03848116911614156108835760408051808201825282516001600160a01b03908116825260006020808401828152878352603c90915293902091518254935165ffffffffffff16600160a01b026001600160d01b031990941691161791909117905550505050565b6116ae83836117e4565b6116bb60008484846116d7565b6107615760405162461bcd60e51b815260040161062b90611d1d565b60006001600160a01b0384163b156117d957604051630a85bd0160e11b81526001600160a01b0385169063150b7a029061171b903390899088908890600401611ccd565b602060405180830381600087803b15801561173557600080fd5b505af1925050508015611765575060408051601f3d908101601f1916820190925261176291810190611bd7565b60015b6117bf573d808015611793576040519150601f19603f3d011682016040523d82523d6000602084013e611798565b606091505b5080516117b75760405162461bcd60e51b815260040161062b90611d1d565b805181602001fd5b6001600160e01b031916630a85bd0160e11b149050611202565b506001949350505050565b6001600160a01b03821661183a5760405162461bcd60e51b815260206004820181905260248201527f4552433732313a206d696e7420746f20746865207a65726f2061646472657373604482015260640161062b565b6000818152600260205260409020546001600160a01b03161561189f5760405162461bcd60e51b815260206004820152601c60248201527f4552433732313a20746f6b656e20616c7265616479206d696e74656400000000604482015260640161062b565b6118ab600083836114c0565b6001600160a01b03821660009081526003602052604081208054600192906118d4908490611e44565b909155505060008181526002602052604080822080546001600160a01b0319166001600160a01b03861690811790915590518392907fddf252ad1be2c89b69c2b068fc378daa952ba7f163c4a11628f55a4df523b3ef908290a45050565b82805461193e90611eb3565b90600052602060002090601f01602090048101928261196057600085556119a6565b82601f1061197957805160ff19168380011785556119a6565b828001600101855582156119a6579182015b828111156119a657825182559160200191906001019061198b565b506119b29291506119b6565b5090565b5b808211156119b257600081556001016119b7565b600067ffffffffffffffff808411156119e6576119e6611f49565b604051601f8501601f19908116603f01168101908282118183101715611a0e57611a0e611f49565b81604052809350858152868686011115611a2757600080fd5b858560208301376000602087830101525050509392505050565b80356001600160a01b0381168114610bcc57600080fd5b600060208284031215611a69578081fd5b610d9c82611a41565b60008060408385031215611a84578081fd5b611a8d83611a41565b9150611a9b60208401611a41565b90509250929050565b600080600060608486031215611ab8578081fd5b611ac184611a41565b9250611acf60208501611a41565b9150604084013590509250925092565b60008060008060808587031215611af4578081fd5b611afd85611a41565b9350611b0b60208601611a41565b925060408501359150606085013567ffffffffffffffff811115611b2d578182fd5b8501601f81018713611b3d578182fd5b611b4c878235602084016119cb565b91505092959194509250565b60008060408385031215611b6a578182fd5b611b7383611a41565b915060208301358015158114611b87578182fd5b809150509250929050565b60008060408385031215611ba4578182fd5b611bad83611a41565b946020939093013593505050565b600060208284031215611bcc578081fd5b8135610d9c81611f5f565b600060208284031215611be8578081fd5b8151610d9c81611f5f565b600060208284031215611c04578081fd5b813567ffffffffffffffff811115611c1a578182fd5b8201601f81018413611c2a578182fd5b611202848235602084016119cb565b600060208284031215611c4a578081fd5b5035919050565b60008060408385031215611c63578182fd5b50508035926020909101359150565b60008151808452611c8a816020860160208601611e87565b601f01601f19169290920160200192915050565b60008351611cb0818460208801611e87565b835190830190611cc4818360208801611e87565b01949350505050565b6001600160a01b0385811682528416602082015260408101839052608060608201819052600090611d0090830184611c72565b9695505050505050565b602081526000610d9c6020830184611c72565b60208082526032908201527f4552433732313a207472616e7366657220746f206e6f6e20455243373231526560408201527131b2b4bb32b91034b6b83632b6b2b73a32b960711b606082015260800190565b6020808252602f908201527f44656c6567617461626c653a2063616c6c657220646f6573206e6f742068617660408201526e6520636f727265637420726f6c657360881b606082015260800190565b6020808252818101527f4f776e61626c653a2063616c6c6572206973206e6f7420746865206f776e6572604082015260600190565b60208082526031908201527f4552433732313a207472616e736665722063616c6c6572206973206e6f74206f6040820152701ddb995c881b9bdc88185c1c1c9bdd9959607a1b606082015260800190565b60008219821115611e5757611e57611f1d565b500190565b600082611e6b57611e6b611f33565b500490565b600082821015611e8257611e82611f1d565b500390565b60005b83811015611ea2578181015183820152602001611e8a565b838111156108835750506000910152565b600181811c90821680611ec757607f821691505b60208210811415611ee857634e487b7160e01b600052602260045260246000fd5b50919050565b6000600019821415611f0257611f02611f1d565b5060010190565b600082611f1857611f18611f33565b500690565b634e487b7160e01b600052601160045260246000fd5b634e487b7160e01b600052601260045260246000fd5b634e487b7160e01b600052604160045260246000fd5b6001600160e01b031981168114610ef757600080fdfea26469706673582212201302f50beb6fb8731c61ee99c69b22a5464dc2581811ed3a613a633bcba94b2e64736f6c63430008040033",
  "linkReferences": {},
  "deployedLinkReferences": {}
}