{
  "_format": "hh-sol-artifact-1",
  "contractName": "BlockStaking",
  "sourceName": "contracts/BlockStaking.sol",
  "abi": [
    {
      "anonymous": false,
      "inputs": [
        {
          "indexed": true,
          "internalType": "address",
          "name": "previousOwner",
          "type": "address"
        },
        {
          "indexed": true,
          "internalType": "address",
          "name": "newOwner",
          "type": "address"
        }
      ],
      "name": "OwnershipTransferred",
      "type": "event"
    },
    {
      "inputs": [
        {
          "internalType": "address",
          "name": "staker",
          "type": "address"
        },
        {
          "internalType": "address",
          "name": "token",
          "type": "address"
        },
        {
          "internalType": "uint256",
          "name": "tokenId",
          "type": "uint256"
        }
      ],
      "name": "_stakeToken",
      "outputs": [],
      "stateMutability": "nonpayable",
      "type": "function"
    },
    {
      "inputs": [
        {
          "internalType": "address",
          "name": "token",
          "type": "address"
        },
        {
          "internalType": "address",
          "name": "stakedToken",
          "type": "address"
        }
      ],
      "name": "addTokenPair",
      "outputs": [],
      "stateMutability": "nonpayable",
      "type": "function"
    },
    {
      "inputs": [
        {
          "internalType": "address",
          "name": "",
          "type": "address"
        },
        {
          "internalType": "address",
          "name": "",
          "type": "address"
        },
        {
          "internalType": "uint256",
          "name": "tokenId",
          "type": "uint256"
        },
        {
          "internalType": "bytes",
          "name": "data",
          "type": "bytes"
        }
      ],
      "name": "onERC721Received",
      "outputs": [
        {
          "internalType": "bytes4",
          "name": "",
          "type": "bytes4"
        }
      ],
      "stateMutability": "nonpayable",
      "type": "function"
    },
    {
      "inputs": [],
      "name": "owner",
      "outputs": [
        {
          "internalType": "address",
          "name": "",
          "type": "address"
        }
      ],
      "stateMutability": "view",
      "type": "function"
    },
    {
      "inputs": [
        {
          "internalType": "address",
          "name": "token",
          "type": "address"
        },
        {
          "internalType": "uint256",
          "name": "tokenId",
          "type": "uint256"
        }
      ],
      "name": "ownerOf",
      "outputs": [
        {
          "internalType": "address",
          "name": "",
          "type": "address"
        }
      ],
      "stateMutability": "view",
      "type": "function"
    },
    {
      "inputs": [],
      "name": "renounceOwnership",
      "outputs": [],
      "stateMutability": "nonpayable",
      "type": "function"
    },
    {
      "inputs": [
        {
          "internalType": "address",
          "name": "account",
          "type": "address"
        },
        {
          "internalType": "address",
          "name": "token",
          "type": "address"
        },
        {
          "internalType": "uint256[]",
          "name": "stakeIds",
          "type": "uint256[]"
        }
      ],
      "name": "stake",
      "outputs": [],
      "stateMutability": "nonpayable",
      "type": "function"
    },
    {
      "inputs": [
        {
          "internalType": "address",
          "name": "",
          "type": "address"
        },
        {
          "internalType": "uint256",
          "name": "",
          "type": "uint256"
        }
      ],
      "name": "stakings",
      "outputs": [
        {
          "internalType": "address",
          "name": "",
          "type": "address"
        }
      ],
      "stateMutability": "view",
      "type": "function"
    },
    {
      "inputs": [
        {
          "internalType": "address",
          "name": "",
          "type": "address"
        }
      ],
      "name": "tokenToStakedToken",
      "outputs": [
        {
          "internalType": "address",
          "name": "",
          "type": "address"
        }
      ],
      "stateMutability": "view",
      "type": "function"
    },
    {
      "inputs": [
        {
          "internalType": "address",
          "name": "newOwner",
          "type": "address"
        }
      ],
      "name": "transferOwnership",
      "outputs": [],
      "stateMutability": "nonpayable",
      "type": "function"
    }
  ],
  "bytecode": "0x608060405234801561001057600080fd5b5061001a3361001f565b61006f565b600080546001600160a01b038381166001600160a01b0319831681178455604051919092169283917f8be0079c531659141344cd1fd0a4f28419497f9722a3daafe3b4186f6b6457e09190a35050565b6109858061007e6000396000f3fe608060405234801561001057600080fd5b506004361061009e5760003560e01c80638da5cb5b116100665780638da5cb5b14610166578063a7c87ec214610177578063b7c3a2c51461018a578063e3c5cdba1461019d578063f2fde38b146101b057600080fd5b8063150b7a02146100a35780631849d8ea146100d45780631f29d2dc1461012057806362169d9014610133578063715018a61461015c575b600080fd5b6100b66100b1366004610819565b6101c3565b6040516001600160e01b031990911681526020015b60405180910390f35b6101086100e23660046108b3565b60016020908152600092835260408084209091529082529020546001600160a01b031681565b6040516001600160a01b0390911681526020016100cb565b61010861012e3660046108b3565b61025f565b6101086101413660046106d9565b6002602052600090815260409020546001600160a01b031681565b6101646102e5565b005b6000546001600160a01b0316610108565b610164610185366004610711565b61031b565b6101646101983660046107d9565b610373565b6101646101ab366004610749565b61048c565b6101646101be3660046106d9565b6104e1565b336000818152600260205260408120549091906001600160a01b03166102305760405162461bcd60e51b815260206004820152601f60248201527f43616c6c6572206973206e6f7420616e20616363657074656420746f6b656e0060448201526064015b60405180910390fd5b600061023e848601866106d9565b905061024b81838861057c565b50630a85bd0160e11b979650505050505050565b6001600160a01b038083166000908152600160209081526040808320858452909152812054909116806102de5760405162461bcd60e51b815260206004820152602160248201527f4f776e657220717565727920666f72206e6f6e6578697374656e7420746f6b656044820152603760f91b6064820152608401610227565b9392505050565b6000546001600160a01b0316331461030f5760405162461bcd60e51b8152600401610227906108de565b6103196000610689565b565b6000546001600160a01b031633146103455760405162461bcd60e51b8152600401610227906108de565b6001600160a01b03918216600090815260026020526040902080546001600160a01b03191691909216179055565b6040516323b872dd60e01b81526001600160a01b038481166004830152306024830152604482018390528316906323b872dd90606401600060405180830381600087803b1580156103c357600080fd5b505af11580156103d7573d6000803e3d6000fd5b505050506001600160a01b03828116600090815260026020526040908190205490516340c10f1960e01b81528583166004820152602481018490529116906340c10f19906044015b600060405180830381600087803b15801561043957600080fd5b505af115801561044d573d6000803e3d6000fd5b505050506001600160a01b0391821660009081526001602090815260408083209383529290522080546001600160a01b03191692909116919091179055565b60005b818110156104da576104c885858585858181106104bc57634e487b7160e01b600052603260045260246000fd5b90506020020135610373565b806104d281610913565b91505061048f565b5050505050565b6000546001600160a01b0316331461050b5760405162461bcd60e51b8152600401610227906108de565b6001600160a01b0381166105705760405162461bcd60e51b815260206004820152602660248201527f4f776e61626c653a206e6577206f776e657220697320746865207a65726f206160448201526564647265737360d01b6064820152608401610227565b61057981610689565b50565b6040516331a9108f60e11b81526004810182905230906001600160a01b03841690636352211e9060240160206040518083038186803b1580156105be57600080fd5b505afa1580156105d2573d6000803e3d6000fd5b505050506040513d601f19601f820116820180604052508101906105f691906106f5565b6001600160a01b0316146106415760405162461bcd60e51b8152602060048201526012602482015271151bdad95b881b9bdd081c9958d95a5d995960721b6044820152606401610227565b6001600160a01b03828116600090815260026020526040908190205490516340c10f1960e01b81528583166004820152602481018490529116906340c10f199060440161041f565b600080546001600160a01b038381166001600160a01b0319831681178455604051919092169283917f8be0079c531659141344cd1fd0a4f28419497f9722a3daafe3b4186f6b6457e09190a35050565b6000602082840312156106ea578081fd5b81356102de8161093a565b600060208284031215610706578081fd5b81516102de8161093a565b60008060408385031215610723578081fd5b823561072e8161093a565b9150602083013561073e8161093a565b809150509250929050565b6000806000806060858703121561075e578182fd5b84356107698161093a565b935060208501356107798161093a565b9250604085013567ffffffffffffffff80821115610795578384fd5b818701915087601f8301126107a8578384fd5b8135818111156107b6578485fd5b8860208260051b85010111156107ca578485fd5b95989497505060200194505050565b6000806000606084860312156107ed578283fd5b83356107f88161093a565b925060208401356108088161093a565b929592945050506040919091013590565b600080600080600060808688031215610830578081fd5b853561083b8161093a565b9450602086013561084b8161093a565b935060408601359250606086013567ffffffffffffffff8082111561086e578283fd5b818801915088601f830112610881578283fd5b81358181111561088f578384fd5b8960208285010111156108a0578384fd5b9699959850939650602001949392505050565b600080604083850312156108c5578182fd5b82356108d08161093a565b946020939093013593505050565b6020808252818101527f4f776e61626c653a2063616c6c6572206973206e6f7420746865206f776e6572604082015260600190565b600060001982141561093357634e487b7160e01b81526011600452602481fd5b5060010190565b6001600160a01b038116811461057957600080fdfea2646970667358221220ab478335499b45999f05c5cfae4f0877ad4ef3d08be9b11bbcea9136fef6637364736f6c63430008040033",
  "linkReferences": {},
  "deployedLinkReferences": {}
}