{
  "_format": "hh-sol-artifact-1",
  "contractName": "BlockStaking",
  "sourceName": "contracts/BlockStaking.sol",
  "abi": [
    {
      "anonymous": false,
      "inputs": [
        {
          "indexed": true,
          "internalType": "address",
          "name": "previousOwner",
          "type": "address"
        },
        {
          "indexed": true,
          "internalType": "address",
          "name": "newOwner",
          "type": "address"
        }
      ],
      "name": "OwnershipTransferred",
      "type": "event"
    },
    {
      "inputs": [
        {
          "internalType": "address",
          "name": "token",
          "type": "address"
        },
        {
          "internalType": "address",
          "name": "stakedToken",
          "type": "address"
        }
      ],
      "name": "addTokenPair",
      "outputs": [],
      "stateMutability": "nonpayable",
      "type": "function"
    },
    {
      "inputs": [
        {
          "internalType": "address",
          "name": "",
          "type": "address"
        },
        {
          "internalType": "address",
          "name": "",
          "type": "address"
        },
        {
          "internalType": "uint256",
          "name": "tokenId",
          "type": "uint256"
        },
        {
          "internalType": "bytes",
          "name": "data",
          "type": "bytes"
        }
      ],
      "name": "onERC721Received",
      "outputs": [
        {
          "internalType": "bytes4",
          "name": "",
          "type": "bytes4"
        }
      ],
      "stateMutability": "nonpayable",
      "type": "function"
    },
    {
      "inputs": [],
      "name": "owner",
      "outputs": [
        {
          "internalType": "address",
          "name": "",
          "type": "address"
        }
      ],
      "stateMutability": "view",
      "type": "function"
    },
    {
      "inputs": [
        {
          "internalType": "address",
          "name": "token",
          "type": "address"
        },
        {
          "internalType": "uint256",
          "name": "tokenId",
          "type": "uint256"
        }
      ],
      "name": "ownerOf",
      "outputs": [
        {
          "internalType": "address",
          "name": "",
          "type": "address"
        }
      ],
      "stateMutability": "view",
      "type": "function"
    },
    {
      "inputs": [],
      "name": "renounceOwnership",
      "outputs": [],
      "stateMutability": "nonpayable",
      "type": "function"
    },
    {
      "inputs": [
        {
          "internalType": "address",
          "name": "account",
          "type": "address"
        },
        {
          "internalType": "address",
          "name": "token",
          "type": "address"
        },
        {
          "internalType": "uint256[]",
          "name": "stakeIds",
          "type": "uint256[]"
        }
      ],
      "name": "stake",
      "outputs": [],
      "stateMutability": "nonpayable",
      "type": "function"
    },
    {
      "inputs": [
        {
          "internalType": "address",
          "name": "",
          "type": "address"
        },
        {
          "internalType": "uint256",
          "name": "",
          "type": "uint256"
        }
      ],
      "name": "stakings",
      "outputs": [
        {
          "internalType": "address",
          "name": "",
          "type": "address"
        }
      ],
      "stateMutability": "view",
      "type": "function"
    },
    {
      "inputs": [
        {
          "internalType": "address",
          "name": "",
          "type": "address"
        }
      ],
      "name": "tokenToStakedToken",
      "outputs": [
        {
          "internalType": "address",
          "name": "",
          "type": "address"
        }
      ],
      "stateMutability": "view",
      "type": "function"
    },
    {
      "inputs": [
        {
          "internalType": "address",
          "name": "newOwner",
          "type": "address"
        }
      ],
      "name": "transferOwnership",
      "outputs": [],
      "stateMutability": "nonpayable",
      "type": "function"
    },
    {
      "inputs": [
        {
          "internalType": "address",
          "name": "account",
          "type": "address"
        },
        {
          "internalType": "address",
          "name": "token",
          "type": "address"
        },
        {
          "internalType": "uint256[]",
          "name": "stakeIds",
          "type": "uint256[]"
        }
      ],
      "name": "unstake",
      "outputs": [],
      "stateMutability": "nonpayable",
      "type": "function"
    }
  ],
  "bytecode": "0x608060405234801561001057600080fd5b5061001a3361001f565b61006f565b600080546001600160a01b038381166001600160a01b0319831681178455604051919092169283917f8be0079c531659141344cd1fd0a4f28419497f9722a3daafe3b4186f6b6457e09190a35050565b610ba08061007e6000396000f3fe608060405234801561001057600080fd5b506004361061009e5760003560e01c80638da5cb5b116100665780638da5cb5b14610166578063a7c87ec214610177578063cf83b2451461018a578063e3c5cdba1461019d578063f2fde38b146101b057600080fd5b8063150b7a02146100a35780631849d8ea146100d45780631f29d2dc1461012057806362169d9014610133578063715018a61461015c575b600080fd5b6100b66100b1366004610a34565b6101c3565b6040516001600160e01b031990911681526020015b60405180910390f35b6101086100e2366004610ace565b60016020908152600092835260408084209091529082529020546001600160a01b031681565b6040516001600160a01b0390911681526020016100cb565b61010861012e366004610ace565b61025f565b610108610141366004610934565b6002602052600090815260409020546001600160a01b031681565b6101646102e5565b005b6000546001600160a01b0316610108565b61016461018536600461096c565b61031b565b6101646101983660046109a4565b610373565b6101646101ab3660046109a4565b61044e565b6101646101be366004610934565b6104a3565b336000818152600260205260408120549091906001600160a01b03166102305760405162461bcd60e51b815260206004820152601f60248201527f43616c6c6572206973206e6f7420616e20616363657074656420746f6b656e0060448201526064015b60405180910390fd5b600061023e84860186610934565b905061024b81838861053e565b50630a85bd0160e11b979650505050505050565b6001600160a01b038083166000908152600160209081526040808320858452909152812054909116806102de5760405162461bcd60e51b815260206004820152602160248201527f4f776e657220717565727920666f72206e6f6e6578697374656e7420746f6b656044820152603760f91b6064820152608401610227565b9392505050565b6000546001600160a01b0316331461030f5760405162461bcd60e51b815260040161022790610af9565b61031960006106b4565b565b6000546001600160a01b031633146103455760405162461bcd60e51b815260040161022790610af9565b6001600160a01b03918216600090815260026020526040902080546001600160a01b03191691909216179055565b8383336001600160a01b03831614806103945750336001600160a01b038216145b6103f15760405162461bcd60e51b815260206004820152602860248201527f43616c6c6572206973206e6f74206163636f756e74206e6f7220746f6b656e2060448201526718dbdb9d1c9858dd60c21b6064820152608401610227565b60005b8381101561044557600085858381811061041e57634e487b7160e01b600052603260045260246000fd5b905060200201359050610432888883610704565b508061043d81610b2e565b9150506103f4565b50505050505050565b60005b8181101561049c5761048a858585858581811061047e57634e487b7160e01b600052603260045260246000fd5b90506020020135610884565b8061049481610b2e565b915050610451565b5050505050565b6000546001600160a01b031633146104cd5760405162461bcd60e51b815260040161022790610af9565b6001600160a01b0381166105325760405162461bcd60e51b815260206004820152602660248201527f4f776e61626c653a206e6577206f776e657220697320746865207a65726f206160448201526564647265737360d01b6064820152608401610227565b61053b816106b4565b50565b6040516331a9108f60e11b81526004810182905230906001600160a01b03841690636352211e9060240160206040518083038186803b15801561058057600080fd5b505afa158015610594573d6000803e3d6000fd5b505050506040513d601f19601f820116820180604052508101906105b89190610950565b6001600160a01b0316146106035760405162461bcd60e51b8152602060048201526012602482015271151bdad95b881b9bdd081c9958d95a5d995960721b6044820152606401610227565b6001600160a01b03828116600090815260026020526040908190205490516340c10f1960e01b81528583166004820152602481018490529116906340c10f19906044015b600060405180830381600087803b15801561066157600080fd5b505af1158015610675573d6000803e3d6000fd5b505050506001600160a01b0391821660009081526001602090815260408083209383529290522080546001600160a01b03191692909116919091179055565b600080546001600160a01b038381166001600160a01b0319831681178455604051919092169283917f8be0079c531659141344cd1fd0a4f28419497f9722a3daafe3b4186f6b6457e09190a35050565b6040516323b872dd60e01b81523060048201526001600160a01b038481166024830152604482018390528316906323b872dd90606401600060405180830381600087803b15801561075457600080fd5b505af1158015610768573d6000803e3d6000fd5b505050506001600160a01b0382811660009081526002602052604090819020549051630852cd8d60e31b8152600481018490529116906342966c6890602401600060405180830381600087803b1580156107c157600080fd5b505af11580156107d5573d6000803e3d6000fd5b505050506001600160a01b0382811660009081526001602090815260408083208584529091529020548116908416146108505760405162461bcd60e51b815260206004820152601760248201527f436f756c64206e6f7420756e7374616b6520746f6b656e0000000000000000006044820152606401610227565b6001600160a01b0390911660009081526001602090815260408083209383529290522080546001600160a01b031916905550565b6040516323b872dd60e01b81526001600160a01b038481166004830152306024830152604482018390528316906323b872dd90606401600060405180830381600087803b1580156108d457600080fd5b505af11580156108e8573d6000803e3d6000fd5b505050506001600160a01b03828116600090815260026020526040908190205490516340c10f1960e01b81528583166004820152602481018490529116906340c10f1990604401610647565b600060208284031215610945578081fd5b81356102de81610b55565b600060208284031215610961578081fd5b81516102de81610b55565b6000806040838503121561097e578081fd5b823561098981610b55565b9150602083013561099981610b55565b809150509250929050565b600080600080606085870312156109b9578182fd5b84356109c481610b55565b935060208501356109d481610b55565b9250604085013567ffffffffffffffff808211156109f0578384fd5b818701915087601f830112610a03578384fd5b813581811115610a11578485fd5b8860208260051b8501011115610a25578485fd5b95989497505060200194505050565b600080600080600060808688031215610a4b578081fd5b8535610a5681610b55565b94506020860135610a6681610b55565b935060408601359250606086013567ffffffffffffffff80821115610a89578283fd5b818801915088601f830112610a9c578283fd5b813581811115610aaa578384fd5b896020828501011115610abb578384fd5b9699959850939650602001949392505050565b60008060408385031215610ae0578182fd5b8235610aeb81610b55565b946020939093013593505050565b6020808252818101527f4f776e61626c653a2063616c6c6572206973206e6f7420746865206f776e6572604082015260600190565b6000600019821415610b4e57634e487b7160e01b81526011600452602481fd5b5060010190565b6001600160a01b038116811461053b57600080fdfea264697066735822122071459a3999848d1e0f7bc5127d40386f8e9800ba55e71b21146476528b77e69f64736f6c63430008040033",
  "linkReferences": {},
  "deployedLinkReferences": {}
}