{
  "_format": "hh-sol-artifact-1",
  "contractName": "BlockStaking",
  "sourceName": "contracts/BlockStaking.sol",
  "abi": [
    {
      "anonymous": false,
      "inputs": [
        {
          "indexed": true,
          "internalType": "address",
          "name": "previousOwner",
          "type": "address"
        },
        {
          "indexed": true,
          "internalType": "address",
          "name": "newOwner",
          "type": "address"
        }
      ],
      "name": "OwnershipTransferred",
      "type": "event"
    },
    {
      "inputs": [
        {
          "internalType": "address",
          "name": "token",
          "type": "address"
        },
        {
          "internalType": "address",
          "name": "stakedToken",
          "type": "address"
        }
      ],
      "name": "addTokenPair",
      "outputs": [],
      "stateMutability": "nonpayable",
      "type": "function"
    },
    {
      "inputs": [
        {
          "internalType": "address",
          "name": "",
          "type": "address"
        },
        {
          "internalType": "address",
          "name": "",
          "type": "address"
        },
        {
          "internalType": "uint256",
          "name": "tokenId",
          "type": "uint256"
        },
        {
          "internalType": "bytes",
          "name": "data",
          "type": "bytes"
        }
      ],
      "name": "onERC721Received",
      "outputs": [
        {
          "internalType": "bytes4",
          "name": "",
          "type": "bytes4"
        }
      ],
      "stateMutability": "nonpayable",
      "type": "function"
    },
    {
      "inputs": [],
      "name": "owner",
      "outputs": [
        {
          "internalType": "address",
          "name": "",
          "type": "address"
        }
      ],
      "stateMutability": "view",
      "type": "function"
    },
    {
      "inputs": [
        {
          "internalType": "address",
          "name": "token",
          "type": "address"
        },
        {
          "internalType": "uint256",
          "name": "tokenId",
          "type": "uint256"
        }
      ],
      "name": "ownerOf",
      "outputs": [
        {
          "internalType": "address",
          "name": "",
          "type": "address"
        }
      ],
      "stateMutability": "view",
      "type": "function"
    },
    {
      "inputs": [],
      "name": "renounceOwnership",
      "outputs": [],
      "stateMutability": "nonpayable",
      "type": "function"
    },
    {
      "inputs": [
        {
          "internalType": "address",
          "name": "account",
          "type": "address"
        },
        {
          "internalType": "address",
          "name": "token",
          "type": "address"
        },
        {
          "internalType": "uint256[]",
          "name": "stakeIds",
          "type": "uint256[]"
        }
      ],
      "name": "stake",
      "outputs": [],
      "stateMutability": "nonpayable",
      "type": "function"
    },
    {
      "inputs": [
        {
          "internalType": "address",
          "name": "",
          "type": "address"
        },
        {
          "internalType": "uint256",
          "name": "",
          "type": "uint256"
        }
      ],
      "name": "stakings",
      "outputs": [
        {
          "internalType": "address",
          "name": "",
          "type": "address"
        }
      ],
      "stateMutability": "view",
      "type": "function"
    },
    {
      "inputs": [
        {
          "internalType": "address",
          "name": "",
          "type": "address"
        }
      ],
      "name": "tokenToStakedToken",
      "outputs": [
        {
          "internalType": "address",
          "name": "",
          "type": "address"
        }
      ],
      "stateMutability": "view",
      "type": "function"
    },
    {
      "inputs": [
        {
          "internalType": "address",
          "name": "newOwner",
          "type": "address"
        }
      ],
      "name": "transferOwnership",
      "outputs": [],
      "stateMutability": "nonpayable",
      "type": "function"
    },
    {
      "inputs": [
        {
          "internalType": "address",
          "name": "account",
          "type": "address"
        },
        {
          "internalType": "address",
          "name": "token",
          "type": "address"
        },
        {
          "internalType": "uint256[]",
          "name": "stakeIds",
          "type": "uint256[]"
        }
      ],
      "name": "unstake",
      "outputs": [],
      "stateMutability": "nonpayable",
      "type": "function"
    }
  ],
  "bytecode": "0x608060405234801561001057600080fd5b50610bdf806100206000396000f3fe608060405234801561001057600080fd5b506004361061009e5760003560e01c80638da5cb5b116100665780638da5cb5b14610166578063a7c87ec214610177578063cf83b2451461018a578063e3c5cdba1461019d578063f2fde38b146101b057600080fd5b8063150b7a02146100a35780631849d8ea146100d45780631f29d2dc1461012057806362169d9014610133578063715018a61461015c575b600080fd5b6100b66100b1366004610a2b565b6101c3565b6040516001600160e01b031990911681526020015b60405180910390f35b6101086100e2366004610ac5565b60656020908152600092835260408084209091529082529020546001600160a01b031681565b6040516001600160a01b0390911681526020016100cb565b61010861012e366004610ac5565b61025f565b61010861014136600461092b565b6066602052600090815260409020546001600160a01b031681565b6101646102e5565b005b6033546001600160a01b0316610108565b610164610185366004610963565b61031b565b61016461019836600461099b565b610373565b6101646101ab36600461099b565b61040d565b6101646101be36600461092b565b610498565b336000818152606660205260408120549091906001600160a01b03166102305760405162461bcd60e51b815260206004820152601f60248201527f43616c6c6572206973206e6f7420616e20616363657074656420746f6b656e0060448201526064015b60405180910390fd5b600061023e8486018661092b565b905061024b818388610533565b50630a85bd0160e11b979650505050505050565b6001600160a01b038083166000908152606560209081526040808320858452909152812054909116806102de5760405162461bcd60e51b815260206004820152602160248201527f4f776e657220717565727920666f72206e6f6e6578697374656e7420746f6b656044820152603760f91b6064820152608401610227565b9392505050565b6033546001600160a01b0316331461030f5760405162461bcd60e51b815260040161022790610b38565b61031960006106a9565b565b6033546001600160a01b031633146103455760405162461bcd60e51b815260040161022790610b38565b6001600160a01b03918216600090815260666020526040902080546001600160a01b03191691909216179055565b8383336001600160a01b03831614806103945750336001600160a01b038216145b6103b05760405162461bcd60e51b815260040161022790610af0565b60005b838110156104045760008585838181106103dd57634e487b7160e01b600052603260045260246000fd5b9050602002013590506103f18888836106fb565b50806103fc81610b6d565b9150506103b3565b50505050505050565b8383336001600160a01b038316148061042e5750336001600160a01b038216145b61044a5760405162461bcd60e51b815260040161022790610af0565b60005b8381101561040457610486878787878581811061047a57634e487b7160e01b600052603260045260246000fd5b9050602002013561087b565b8061049081610b6d565b91505061044d565b6033546001600160a01b031633146104c25760405162461bcd60e51b815260040161022790610b38565b6001600160a01b0381166105275760405162461bcd60e51b815260206004820152602660248201527f4f776e61626c653a206e6577206f776e657220697320746865207a65726f206160448201526564647265737360d01b6064820152608401610227565b610530816106a9565b50565b6040516331a9108f60e11b81526004810182905230906001600160a01b03841690636352211e9060240160206040518083038186803b15801561057557600080fd5b505afa158015610589573d6000803e3d6000fd5b505050506040513d601f19601f820116820180604052508101906105ad9190610947565b6001600160a01b0316146105f85760405162461bcd60e51b8152602060048201526012602482015271151bdad95b881b9bdd081c9958d95a5d995960721b6044820152606401610227565b6001600160a01b03828116600090815260666020526040908190205490516340c10f1960e01b81528583166004820152602481018490529116906340c10f19906044015b600060405180830381600087803b15801561065657600080fd5b505af115801561066a573d6000803e3d6000fd5b505050506001600160a01b0391821660009081526065602090815260408083209383529290522080546001600160a01b03191692909116919091179055565b603380546001600160a01b038381166001600160a01b0319831681179093556040519116919082907f8be0079c531659141344cd1fd0a4f28419497f9722a3daafe3b4186f6b6457e090600090a35050565b6040516323b872dd60e01b81523060048201526001600160a01b038481166024830152604482018390528316906323b872dd90606401600060405180830381600087803b15801561074b57600080fd5b505af115801561075f573d6000803e3d6000fd5b505050506001600160a01b0382811660009081526066602052604090819020549051630852cd8d60e31b8152600481018490529116906342966c6890602401600060405180830381600087803b1580156107b857600080fd5b505af11580156107cc573d6000803e3d6000fd5b505050506001600160a01b0382811660009081526065602090815260408083208584529091529020548116908416146108475760405162461bcd60e51b815260206004820152601760248201527f436f756c64206e6f7420756e7374616b6520746f6b656e0000000000000000006044820152606401610227565b6001600160a01b0390911660009081526065602090815260408083209383529290522080546001600160a01b031916905550565b6040516323b872dd60e01b81526001600160a01b038481166004830152306024830152604482018390528316906323b872dd90606401600060405180830381600087803b1580156108cb57600080fd5b505af11580156108df573d6000803e3d6000fd5b505050506001600160a01b03828116600090815260666020526040908190205490516340c10f1960e01b81528583166004820152602481018490529116906340c10f199060440161063c565b60006020828403121561093c578081fd5b81356102de81610b94565b600060208284031215610958578081fd5b81516102de81610b94565b60008060408385031215610975578081fd5b823561098081610b94565b9150602083013561099081610b94565b809150509250929050565b600080600080606085870312156109b0578182fd5b84356109bb81610b94565b935060208501356109cb81610b94565b9250604085013567ffffffffffffffff808211156109e7578384fd5b818701915087601f8301126109fa578384fd5b813581811115610a08578485fd5b8860208260051b8501011115610a1c578485fd5b95989497505060200194505050565b600080600080600060808688031215610a42578081fd5b8535610a4d81610b94565b94506020860135610a5d81610b94565b935060408601359250606086013567ffffffffffffffff80821115610a80578283fd5b818801915088601f830112610a93578283fd5b813581811115610aa1578384fd5b896020828501011115610ab2578384fd5b9699959850939650602001949392505050565b60008060408385031215610ad7578182fd5b8235610ae281610b94565b946020939093013593505050565b60208082526028908201527f43616c6c6572206973206e6f74206163636f756e74206e6f7220746f6b656e2060408201526718dbdb9d1c9858dd60c21b606082015260800190565b6020808252818101527f4f776e61626c653a2063616c6c6572206973206e6f7420746865206f776e6572604082015260600190565b6000600019821415610b8d57634e487b7160e01b81526011600452602481fd5b5060010190565b6001600160a01b038116811461053057600080fdfea26469706673582212201bc32da889ec2cd8889aaa2ba6a40765d1c6802667034c178a8b6c768bbd389c64736f6c63430008040033",
  "linkReferences": {},
  "deployedLinkReferences": {}
}