{
  "_format": "hh-sol-artifact-1",
  "contractName": "BlockStaking",
  "sourceName": "contracts/BlockStaking.sol",
  "abi": [
    {
      "anonymous": false,
      "inputs": [
        {
          "indexed": true,
          "internalType": "address",
          "name": "previousOwner",
          "type": "address"
        },
        {
          "indexed": true,
          "internalType": "address",
          "name": "newOwner",
          "type": "address"
        }
      ],
      "name": "OwnershipTransferred",
      "type": "event"
    },
    {
      "inputs": [
        {
          "internalType": "address",
          "name": "token",
          "type": "address"
        },
        {
          "internalType": "address",
          "name": "stakedToken",
          "type": "address"
        }
      ],
      "name": "addTokenPair",
      "outputs": [],
      "stateMutability": "nonpayable",
      "type": "function"
    },
    {
      "inputs": [],
      "name": "initialize",
      "outputs": [],
      "stateMutability": "nonpayable",
      "type": "function"
    },
    {
      "inputs": [
        {
          "internalType": "address",
          "name": "",
          "type": "address"
        },
        {
          "internalType": "address",
          "name": "",
          "type": "address"
        },
        {
          "internalType": "uint256",
          "name": "tokenId",
          "type": "uint256"
        },
        {
          "internalType": "bytes",
          "name": "data",
          "type": "bytes"
        }
      ],
      "name": "onERC721Received",
      "outputs": [
        {
          "internalType": "bytes4",
          "name": "",
          "type": "bytes4"
        }
      ],
      "stateMutability": "nonpayable",
      "type": "function"
    },
    {
      "inputs": [],
      "name": "owner",
      "outputs": [
        {
          "internalType": "address",
          "name": "",
          "type": "address"
        }
      ],
      "stateMutability": "view",
      "type": "function"
    },
    {
      "inputs": [
        {
          "internalType": "address",
          "name": "token",
          "type": "address"
        },
        {
          "internalType": "uint256",
          "name": "tokenId",
          "type": "uint256"
        }
      ],
      "name": "ownerOf",
      "outputs": [
        {
          "internalType": "address",
          "name": "",
          "type": "address"
        }
      ],
      "stateMutability": "view",
      "type": "function"
    },
    {
      "inputs": [],
      "name": "renounceOwnership",
      "outputs": [],
      "stateMutability": "nonpayable",
      "type": "function"
    },
    {
      "inputs": [
        {
          "internalType": "address",
          "name": "account",
          "type": "address"
        },
        {
          "internalType": "address",
          "name": "token",
          "type": "address"
        },
        {
          "internalType": "uint256[]",
          "name": "stakeIds",
          "type": "uint256[]"
        }
      ],
      "name": "stake",
      "outputs": [],
      "stateMutability": "nonpayable",
      "type": "function"
    },
    {
      "inputs": [
        {
          "internalType": "address",
          "name": "",
          "type": "address"
        },
        {
          "internalType": "uint256",
          "name": "",
          "type": "uint256"
        }
      ],
      "name": "stakings",
      "outputs": [
        {
          "internalType": "address",
          "name": "",
          "type": "address"
        }
      ],
      "stateMutability": "view",
      "type": "function"
    },
    {
      "inputs": [
        {
          "internalType": "address",
          "name": "",
          "type": "address"
        }
      ],
      "name": "tokenToStakedToken",
      "outputs": [
        {
          "internalType": "address",
          "name": "",
          "type": "address"
        }
      ],
      "stateMutability": "view",
      "type": "function"
    },
    {
      "inputs": [
        {
          "internalType": "address",
          "name": "newOwner",
          "type": "address"
        }
      ],
      "name": "transferOwnership",
      "outputs": [],
      "stateMutability": "nonpayable",
      "type": "function"
    },
    {
      "inputs": [
        {
          "internalType": "address",
          "name": "account",
          "type": "address"
        },
        {
          "internalType": "address",
          "name": "token",
          "type": "address"
        },
        {
          "internalType": "uint256[]",
          "name": "stakeIds",
          "type": "uint256[]"
        }
      ],
      "name": "unstake",
      "outputs": [],
      "stateMutability": "nonpayable",
      "type": "function"
    }
  ],
  "bytecode": "0x608060405234801561001057600080fd5b50610d7c806100206000396000f3fe608060405234801561001057600080fd5b50600436106100a95760003560e01c80638129fc1c116100715780638129fc1c146101715780638da5cb5b14610179578063a7c87ec21461018a578063cf83b2451461019d578063e3c5cdba146101b0578063f2fde38b146101c357600080fd5b8063150b7a02146100ae5780631849d8ea146100df5780631f29d2dc1461012b57806362169d901461013e578063715018a614610167575b600080fd5b6100c16100bc366004610b7a565b6101d6565b6040516001600160e01b031990911681526020015b60405180910390f35b6101136100ed366004610c14565b60656020908152600092835260408084209091529082529020546001600160a01b031681565b6040516001600160a01b0390911681526020016100d6565b610113610139366004610c14565b610207565b61011361014c366004610a7a565b6066602052600090815260409020546001600160a01b031681565b61016f610292565b005b61016f6102c8565b6033546001600160a01b0316610113565b61016f610198366004610ab2565b61033c565b61016f6101ab366004610aea565b610394565b61016f6101be366004610aea565b61042e565b61016f6101d1366004610a7a565b6104b9565b600033816101e684860186610a7a565b90506101f3818388610551565b50630a85bd0160e11b979650505050505050565b6001600160a01b0380831660009081526065602090815260408083208584529091528120549091168061028b5760405162461bcd60e51b815260206004820152602160248201527f4f776e657220717565727920666f72206e6f6e6578697374656e7420746f6b656044820152603760f91b60648201526084015b60405180910390fd5b9392505050565b6033546001600160a01b031633146102bc5760405162461bcd60e51b815260040161028290610cd5565b6102c660006106c7565b565b600054610100900460ff16806102e1575060005460ff16155b6102fd5760405162461bcd60e51b815260040161028290610c87565b600054610100900460ff1615801561031f576000805461ffff19166101011790555b610327610719565b8015610339576000805461ff00191690555b50565b6033546001600160a01b031633146103665760405162461bcd60e51b815260040161028290610cd5565b6001600160a01b03918216600090815260666020526040902080546001600160a01b03191691909216179055565b8383336001600160a01b03831614806103b55750336001600160a01b038216145b6103d15760405162461bcd60e51b815260040161028290610c3f565b60005b838110156104255760008585838181106103fe57634e487b7160e01b600052603260045260246000fd5b905060200201359050610412888883610780565b508061041d81610d0a565b9150506103d4565b50505050505050565b8383336001600160a01b038316148061044f5750336001600160a01b038216145b61046b5760405162461bcd60e51b815260040161028290610c3f565b60005b83811015610425576104a7878787878581811061049b57634e487b7160e01b600052603260045260246000fd5b90506020020135610900565b806104b181610d0a565b91505061046e565b6033546001600160a01b031633146104e35760405162461bcd60e51b815260040161028290610cd5565b6001600160a01b0381166105485760405162461bcd60e51b815260206004820152602660248201527f4f776e61626c653a206e6577206f776e657220697320746865207a65726f206160448201526564647265737360d01b6064820152608401610282565b610339816106c7565b6040516331a9108f60e11b81526004810182905230906001600160a01b03841690636352211e9060240160206040518083038186803b15801561059357600080fd5b505afa1580156105a7573d6000803e3d6000fd5b505050506040513d601f19601f820116820180604052508101906105cb9190610a96565b6001600160a01b0316146106165760405162461bcd60e51b8152602060048201526012602482015271151bdad95b881b9bdd081c9958d95a5d995960721b6044820152606401610282565b6001600160a01b03828116600090815260666020526040908190205490516340c10f1960e01b81528583166004820152602481018490529116906340c10f19906044015b600060405180830381600087803b15801561067457600080fd5b505af1158015610688573d6000803e3d6000fd5b505050506001600160a01b0391821660009081526065602090815260408083209383529290522080546001600160a01b03191692909116919091179055565b603380546001600160a01b038381166001600160a01b0319831681179093556040519116919082907f8be0079c531659141344cd1fd0a4f28419497f9722a3daafe3b4186f6b6457e090600090a35050565b600054610100900460ff1680610732575060005460ff16155b61074e5760405162461bcd60e51b815260040161028290610c87565b600054610100900460ff16158015610770576000805461ffff19166101011790555b6107786109b0565b610327610a1a565b6040516323b872dd60e01b81523060048201526001600160a01b038481166024830152604482018390528316906323b872dd90606401600060405180830381600087803b1580156107d057600080fd5b505af11580156107e4573d6000803e3d6000fd5b505050506001600160a01b0382811660009081526066602052604090819020549051630852cd8d60e31b8152600481018490529116906342966c6890602401600060405180830381600087803b15801561083d57600080fd5b505af1158015610851573d6000803e3d6000fd5b505050506001600160a01b0382811660009081526065602090815260408083208584529091529020548116908416146108cc5760405162461bcd60e51b815260206004820152601760248201527f436f756c64206e6f7420756e7374616b6520746f6b656e0000000000000000006044820152606401610282565b6001600160a01b0390911660009081526065602090815260408083209383529290522080546001600160a01b031916905550565b6040516323b872dd60e01b81526001600160a01b038481166004830152306024830152604482018390528316906323b872dd90606401600060405180830381600087803b15801561095057600080fd5b505af1158015610964573d6000803e3d6000fd5b505050506001600160a01b03828116600090815260666020526040908190205490516340c10f1960e01b81528583166004820152602481018490529116906340c10f199060440161065a565b600054610100900460ff16806109c9575060005460ff16155b6109e55760405162461bcd60e51b815260040161028290610c87565b600054610100900460ff16158015610327576000805461ffff19166101011790558015610339576000805461ff001916905550565b600054610100900460ff1680610a33575060005460ff16155b610a4f5760405162461bcd60e51b815260040161028290610c87565b600054610100900460ff16158015610a71576000805461ffff19166101011790555b610327336106c7565b600060208284031215610a8b578081fd5b813561028b81610d31565b600060208284031215610aa7578081fd5b815161028b81610d31565b60008060408385031215610ac4578081fd5b8235610acf81610d31565b91506020830135610adf81610d31565b809150509250929050565b60008060008060608587031215610aff578182fd5b8435610b0a81610d31565b93506020850135610b1a81610d31565b9250604085013567ffffffffffffffff80821115610b36578384fd5b818701915087601f830112610b49578384fd5b813581811115610b57578485fd5b8860208260051b8501011115610b6b578485fd5b95989497505060200194505050565b600080600080600060808688031215610b91578081fd5b8535610b9c81610d31565b94506020860135610bac81610d31565b935060408601359250606086013567ffffffffffffffff80821115610bcf578283fd5b818801915088601f830112610be2578283fd5b813581811115610bf0578384fd5b896020828501011115610c01578384fd5b9699959850939650602001949392505050565b60008060408385031215610c26578182fd5b8235610c3181610d31565b946020939093013593505050565b60208082526028908201527f43616c6c6572206973206e6f74206163636f756e74206e6f7220746f6b656e2060408201526718dbdb9d1c9858dd60c21b606082015260800190565b6020808252602e908201527f496e697469616c697a61626c653a20636f6e747261637420697320616c72656160408201526d191e481a5b9a5d1a585b1a5e995960921b606082015260800190565b6020808252818101527f4f776e61626c653a2063616c6c6572206973206e6f7420746865206f776e6572604082015260600190565b6000600019821415610d2a57634e487b7160e01b81526011600452602481fd5b5060010190565b6001600160a01b038116811461033957600080fdfea26469706673582212201f502a6ca95b2661748b61cac96c19320b0d9c463b5660c2ba17529ee29e187d64736f6c63430008040033",
  "linkReferences": {},
  "deployedLinkReferences": {}
}