{
  "_format": "hh-sol-artifact-1",
  "contractName": "CosmicCaps",
  "sourceName": "contracts/Cosmic Caps.sol",
  "abi": [
    {
      "inputs": [
        {
          "internalType": "string",
          "name": "name",
          "type": "string"
        },
        {
          "internalType": "string",
          "name": "symbol",
          "type": "string"
        },
        {
          "internalType": "string",
          "name": "baseTokenURI",
          "type": "string"
        }
      ],
      "stateMutability": "nonpayable",
      "type": "constructor"
    },
    {
      "anonymous": false,
      "inputs": [
        {
          "indexed": true,
          "internalType": "address",
          "name": "owner",
          "type": "address"
        },
        {
          "indexed": true,
          "internalType": "address",
          "name": "approved",
          "type": "address"
        },
        {
          "indexed": true,
          "internalType": "uint256",
          "name": "tokenId",
          "type": "uint256"
        }
      ],
      "name": "Approval",
      "type": "event"
    },
    {
      "anonymous": false,
      "inputs": [
        {
          "indexed": true,
          "internalType": "address",
          "name": "owner",
          "type": "address"
        },
        {
          "indexed": true,
          "internalType": "address",
          "name": "operator",
          "type": "address"
        },
        {
          "indexed": false,
          "internalType": "bool",
          "name": "approved",
          "type": "bool"
        }
      ],
      "name": "ApprovalForAll",
      "type": "event"
    },
    {
      "anonymous": false,
      "inputs": [
        {
          "indexed": true,
          "internalType": "address",
          "name": "previousOwner",
          "type": "address"
        },
        {
          "indexed": true,
          "internalType": "address",
          "name": "newOwner",
          "type": "address"
        }
      ],
      "name": "OwnershipTransferred",
      "type": "event"
    },
    {
      "anonymous": false,
      "inputs": [
        {
          "indexed": true,
          "internalType": "address",
          "name": "from",
          "type": "address"
        },
        {
          "indexed": true,
          "internalType": "address",
          "name": "to",
          "type": "address"
        },
        {
          "indexed": true,
          "internalType": "uint256",
          "name": "tokenId",
          "type": "uint256"
        }
      ],
      "name": "Transfer",
      "type": "event"
    },
    {
      "inputs": [
        {
          "internalType": "address",
          "name": "to",
          "type": "address"
        },
        {
          "internalType": "uint256",
          "name": "tokenId",
          "type": "uint256"
        }
      ],
      "name": "approve",
      "outputs": [],
      "stateMutability": "nonpayable",
      "type": "function"
    },
    {
      "inputs": [
        {
          "internalType": "address",
          "name": "owner",
          "type": "address"
        }
      ],
      "name": "balanceOf",
      "outputs": [
        {
          "internalType": "uint256",
          "name": "",
          "type": "uint256"
        }
      ],
      "stateMutability": "view",
      "type": "function"
    },
    {
      "inputs": [
        {
          "internalType": "uint256",
          "name": "tokenId",
          "type": "uint256"
        }
      ],
      "name": "burn",
      "outputs": [],
      "stateMutability": "nonpayable",
      "type": "function"
    },
    {
      "inputs": [],
      "name": "getAmountMinted",
      "outputs": [
        {
          "internalType": "uint256",
          "name": "",
          "type": "uint256"
        }
      ],
      "stateMutability": "view",
      "type": "function"
    },
    {
      "inputs": [
        {
          "internalType": "uint256",
          "name": "tokenId",
          "type": "uint256"
        }
      ],
      "name": "getApproved",
      "outputs": [
        {
          "internalType": "address",
          "name": "",
          "type": "address"
        }
      ],
      "stateMutability": "view",
      "type": "function"
    },
    {
      "inputs": [],
      "name": "getMaxSupply",
      "outputs": [
        {
          "internalType": "uint256",
          "name": "",
          "type": "uint256"
        }
      ],
      "stateMutability": "pure",
      "type": "function"
    },
    {
      "inputs": [],
      "name": "getMintPrice",
      "outputs": [
        {
          "internalType": "uint256",
          "name": "",
          "type": "uint256"
        }
      ],
      "stateMutability": "view",
      "type": "function"
    },
    {
      "inputs": [],
      "name": "give32TokensToDevs",
      "outputs": [],
      "stateMutability": "nonpayable",
      "type": "function"
    },
    {
      "inputs": [],
      "name": "hasSaleStarted",
      "outputs": [
        {
          "internalType": "bool",
          "name": "",
          "type": "bool"
        }
      ],
      "stateMutability": "view",
      "type": "function"
    },
    {
      "inputs": [
        {
          "internalType": "address",
          "name": "owner",
          "type": "address"
        },
        {
          "internalType": "address",
          "name": "operator",
          "type": "address"
        }
      ],
      "name": "isApprovedForAll",
      "outputs": [
        {
          "internalType": "bool",
          "name": "",
          "type": "bool"
        }
      ],
      "stateMutability": "view",
      "type": "function"
    },
    {
      "inputs": [
        {
          "internalType": "address",
          "name": "to",
          "type": "address"
        },
        {
          "internalType": "uint256",
          "name": "amount",
          "type": "uint256"
        }
      ],
      "name": "mint",
      "outputs": [],
      "stateMutability": "payable",
      "type": "function"
    },
    {
      "inputs": [],
      "name": "name",
      "outputs": [
        {
          "internalType": "string",
          "name": "",
          "type": "string"
        }
      ],
      "stateMutability": "view",
      "type": "function"
    },
    {
      "inputs": [],
      "name": "owner",
      "outputs": [
        {
          "internalType": "address",
          "name": "",
          "type": "address"
        }
      ],
      "stateMutability": "view",
      "type": "function"
    },
    {
      "inputs": [
        {
          "internalType": "uint256",
          "name": "tokenId",
          "type": "uint256"
        }
      ],
      "name": "ownerOf",
      "outputs": [
        {
          "internalType": "address",
          "name": "",
          "type": "address"
        }
      ],
      "stateMutability": "view",
      "type": "function"
    },
    {
      "inputs": [],
      "name": "renounceOwnership",
      "outputs": [],
      "stateMutability": "nonpayable",
      "type": "function"
    },
    {
      "inputs": [
        {
          "internalType": "address",
          "name": "from",
          "type": "address"
        },
        {
          "internalType": "address",
          "name": "to",
          "type": "address"
        },
        {
          "internalType": "uint256",
          "name": "tokenId",
          "type": "uint256"
        }
      ],
      "name": "safeTransferFrom",
      "outputs": [],
      "stateMutability": "nonpayable",
      "type": "function"
    },
    {
      "inputs": [
        {
          "internalType": "address",
          "name": "from",
          "type": "address"
        },
        {
          "internalType": "address",
          "name": "to",
          "type": "address"
        },
        {
          "internalType": "uint256",
          "name": "tokenId",
          "type": "uint256"
        },
        {
          "internalType": "bytes",
          "name": "_data",
          "type": "bytes"
        }
      ],
      "name": "safeTransferFrom",
      "outputs": [],
      "stateMutability": "nonpayable",
      "type": "function"
    },
    {
      "inputs": [
        {
          "internalType": "address",
          "name": "operator",
          "type": "address"
        },
        {
          "internalType": "bool",
          "name": "approved",
          "type": "bool"
        }
      ],
      "name": "setApprovalForAll",
      "outputs": [],
      "stateMutability": "nonpayable",
      "type": "function"
    },
    {
      "inputs": [
        {
          "internalType": "string",
          "name": "baseTokenURI",
          "type": "string"
        }
      ],
      "name": "setBaseURI",
      "outputs": [],
      "stateMutability": "nonpayable",
      "type": "function"
    },
    {
      "inputs": [
        {
          "internalType": "uint256",
          "name": "mintPrice",
          "type": "uint256"
        }
      ],
      "name": "startSale",
      "outputs": [],
      "stateMutability": "nonpayable",
      "type": "function"
    },
    {
      "inputs": [
        {
          "internalType": "bytes4",
          "name": "interfaceId",
          "type": "bytes4"
        }
      ],
      "name": "supportsInterface",
      "outputs": [
        {
          "internalType": "bool",
          "name": "",
          "type": "bool"
        }
      ],
      "stateMutability": "view",
      "type": "function"
    },
    {
      "inputs": [],
      "name": "symbol",
      "outputs": [
        {
          "internalType": "string",
          "name": "",
          "type": "string"
        }
      ],
      "stateMutability": "view",
      "type": "function"
    },
    {
      "inputs": [
        {
          "internalType": "uint256",
          "name": "index",
          "type": "uint256"
        }
      ],
      "name": "tokenByIndex",
      "outputs": [
        {
          "internalType": "uint256",
          "name": "",
          "type": "uint256"
        }
      ],
      "stateMutability": "view",
      "type": "function"
    },
    {
      "inputs": [
        {
          "internalType": "address",
          "name": "owner",
          "type": "address"
        },
        {
          "internalType": "uint256",
          "name": "index",
          "type": "uint256"
        }
      ],
      "name": "tokenOfOwnerByIndex",
      "outputs": [
        {
          "internalType": "uint256",
          "name": "",
          "type": "uint256"
        }
      ],
      "stateMutability": "view",
      "type": "function"
    },
    {
      "inputs": [
        {
          "internalType": "uint256",
          "name": "tokenId",
          "type": "uint256"
        }
      ],
      "name": "tokenURI",
      "outputs": [
        {
          "internalType": "string",
          "name": "",
          "type": "string"
        }
      ],
      "stateMutability": "view",
      "type": "function"
    },
    {
      "inputs": [],
      "name": "totalSupply",
      "outputs": [
        {
          "internalType": "uint256",
          "name": "",
          "type": "uint256"
        }
      ],
      "stateMutability": "view",
      "type": "function"
    },
    {
      "inputs": [
        {
          "internalType": "address",
          "name": "from",
          "type": "address"
        },
        {
          "internalType": "address",
          "name": "to",
          "type": "address"
        },
        {
          "internalType": "uint256",
          "name": "tokenId",
          "type": "uint256"
        }
      ],
      "name": "transferFrom",
      "outputs": [],
      "stateMutability": "nonpayable",
      "type": "function"
    },
    {
      "inputs": [
        {
          "internalType": "address",
          "name": "newOwner",
          "type": "address"
        }
      ],
      "name": "transferOwnership",
      "outputs": [],
      "stateMutability": "nonpayable",
      "type": "function"
    },
    {
      "inputs": [],
      "name": "withdrawFunds",
      "outputs": [],
      "stateMutability": "nonpayable",
      "type": "function"
    }
  ],
  "bytecode": "0x60806040526000600b81905561271c81905561271d81905561271e80546001600160a01b031916733a3e0778a1cc17fceeb86cf8d25f9c209b0ed9a2179055612720805461ffff19169055612721553480156200005b57600080fd5b50604051620028f9380380620028f98339810160408190526200007e9162000299565b8251839083906200009790600090602085019062000140565b508051620000ad90600190602084019062000140565b505050620000ca620000c4620000ea60201b60201c565b620000ee565b8051620000e09061271f90602084019062000140565b5050505062000379565b3390565b600a80546001600160a01b038381166001600160a01b0319831681179093556040519116919082907f8be0079c531659141344cd1fd0a4f28419497f9722a3daafe3b4186f6b6457e090600090a35050565b8280546200014e9062000326565b90600052602060002090601f016020900481019282620001725760008555620001bd565b82601f106200018d57805160ff1916838001178555620001bd565b82800160010185558215620001bd579182015b82811115620001bd578251825591602001919060010190620001a0565b50620001cb929150620001cf565b5090565b5b80821115620001cb5760008155600101620001d0565b600082601f830112620001f7578081fd5b81516001600160401b038082111562000214576200021462000363565b604051601f8301601f19908116603f011681019082821181831017156200023f576200023f62000363565b816040528381526020925086838588010111156200025b578485fd5b8491505b838210156200027e57858201830151818301840152908201906200025f565b838211156200028f57848385830101525b9695505050505050565b600080600060608486031215620002ae578283fd5b83516001600160401b0380821115620002c5578485fd5b620002d387838801620001e6565b94506020860151915080821115620002e9578384fd5b620002f787838801620001e6565b935060408601519150808211156200030d578283fd5b506200031c86828701620001e6565b9150509250925092565b600181811c908216806200033b57607f821691505b602082108114156200035d57634e487b7160e01b600052602260045260246000fd5b50919050565b634e487b7160e01b600052604160045260246000fd5b61257080620003896000396000f3fe6080604052600436106101c25760003560e01c80634c0f38c2116100f757806395d89b4111610095578063c87b56dd11610064578063c87b56dd146104c0578063e777df20146104e0578063e985e9c5146104f6578063f2fde38b1461053f57600080fd5b806395d89b4114610455578063a22cb4651461046a578063a7f93ebd1461048a578063b88d4fde146104a057600080fd5b80636352211e116100d15780636352211e146103e257806370a0823114610402578063715018a6146104225780638da5cb5b1461043757600080fd5b80634c0f38c21461038d5780634f6ccce7146103a257806355f804b3146103c257600080fd5b806323b872dd116101645780632f745c591161013e5780632f745c591461031a57806340c10f191461033a57806342842e0e1461034d57806342966c681461036d57600080fd5b806323b872dd146102d057806324600fc3146102f057806326c3f3da1461030557600080fd5b8063095ea7b3116101a0578063095ea7b3146102565780630e3ab61d1461027857806318160ddd146102985780631c8b232d146102b757600080fd5b806301ffc9a7146101c757806306fdde03146101fc578063081812fc1461021e575b600080fd5b3480156101d357600080fd5b506101e76101e23660046121d1565b61055f565b60405190151581526020015b60405180910390f35b34801561020857600080fd5b50610211610570565b6040516101f391906122ff565b34801561022a57600080fd5b5061023e61023936600461224f565b610602565b6040516001600160a01b0390911681526020016101f3565b34801561026257600080fd5b506102766102713660046121a8565b61069c565b005b34801561028457600080fd5b5061027661029336600461224f565b6107b2565b3480156102a457600080fd5b506008545b6040519081526020016101f3565b3480156102c357600080fd5b506127205460ff166101e7565b3480156102dc57600080fd5b506102766102eb3660046120ba565b610894565b3480156102fc57600080fd5b506102766108c6565b34801561031157600080fd5b50610276610905565b34801561032657600080fd5b506102a96103353660046121a8565b610a48565b6102766103483660046121a8565b610ade565b34801561035957600080fd5b506102766103683660046120ba565b610d3d565b34801561037957600080fd5b5061027661038836600461224f565b610d58565b34801561039957600080fd5b506127106102a9565b3480156103ae57600080fd5b506102a96103bd36600461224f565b610dd2565b3480156103ce57600080fd5b506102766103dd366004612209565b610e73565b3480156103ee57600080fd5b5061023e6103fd36600461224f565b610f32565b34801561040e57600080fd5b506102a961041d36600461206e565b610fa9565b34801561042e57600080fd5b50610276611030565b34801561044357600080fd5b50600a546001600160a01b031661023e565b34801561046157600080fd5b50610211611066565b34801561047657600080fd5b5061027661048536600461216e565b611075565b34801561049657600080fd5b5061271d546102a9565b3480156104ac57600080fd5b506102766104bb3660046120f5565b61113a565b3480156104cc57600080fd5b506102116104db36600461224f565b61116c565b3480156104ec57600080fd5b5061271c546102a9565b34801561050257600080fd5b506101e7610511366004612088565b6001600160a01b03918216600090815260056020908152604080832093909416825291909152205460ff1690565b34801561054b57600080fd5b5061027661055a36600461206e565b611247565b600061056a826112df565b92915050565b60606000805461057f90612478565b80601f01602080910402602001604051908101604052809291908181526020018280546105ab90612478565b80156105f85780601f106105cd576101008083540402835291602001916105f8565b820191906000526020600020905b8154815290600101906020018083116105db57829003601f168201915b5050505050905090565b6000818152600260205260408120546001600160a01b03166106805760405162461bcd60e51b815260206004820152602c60248201527f4552433732313a20617070726f76656420717565727920666f72206e6f6e657860448201526b34b9ba32b73a103a37b5b2b760a11b60648201526084015b60405180910390fd5b506000908152600460205260409020546001600160a01b031690565b60006106a782610f32565b9050806001600160a01b0316836001600160a01b031614156107155760405162461bcd60e51b815260206004820152602160248201527f4552433732313a20617070726f76616c20746f2063757272656e74206f776e656044820152603960f91b6064820152608401610677565b336001600160a01b038216148061073157506107318133610511565b6107a35760405162461bcd60e51b815260206004820152603860248201527f4552433732313a20617070726f76652063616c6c6572206973206e6f74206f7760448201527f6e6572206e6f7220617070726f76656420666f7220616c6c00000000000000006064820152608401610677565b6107ad8383611304565b505050565b600a546001600160a01b031633146107dc5760405162461bcd60e51b815260040161067790612364565b6127205460ff161561082b5760405162461bcd60e51b815260206004820152601860248201527714d85b19481a185cc8185b1c9958591e481cdd185c9d195960421b6044820152606401610677565b6127205460ff6101009091041615156001146108775760405162461bcd60e51b815260206004820152600b60248201526a155492481b9bdd081cd95d60aa1b6044820152606401610677565b5066d529ae9e86000061271d55612720805460ff19166001179055565b61089f335b82611372565b6108bb5760405162461bcd60e51b815260040161067790612399565b6107ad838383611469565b61271e5460405147916001600160a01b03169082156108fc029083906000818181858888f19350505050158015610901573d6000803e3d6000fd5b5050565b600a546001600160a01b0316331461092f5760405162461bcd60e51b815260040161067790612364565b6127205460ff161561097e5760405162461bcd60e51b815260206004820152601860248201527714d85b19481a185cc8185b1c9958591e481cdd185c9d195960421b6044820152606401610677565b604061272154106109dd5760405162461bcd60e51b815260206004820152602360248201527f44657620737570706c792068617320616c7265616479206265656e206177617260448201526219195960ea1b6064820152608401610677565b6000805b6020821015610a31576109f2611614565b61271e54909150610a0c906001600160a01b0316826117c5565b61271c54610a1b9060016123ea565b61271c5581610a29816124b3565b9250506109e1565b61272154610a409060016123ea565b612721555050565b6000610a5383610fa9565b8210610ab55760405162461bcd60e51b815260206004820152602b60248201527f455243373231456e756d657261626c653a206f776e657220696e646578206f7560448201526a74206f6620626f756e647360a81b6064820152608401610677565b506001600160a01b03919091166000908152600660209081526040808320938352929052205490565b6127205460ff161515600114610b365760405162461bcd60e51b815260206004820152601960248201527f53616c6520686173206e6f742073746172746564207965742e000000000000006044820152606401610677565b61271061271c5410610b955760405162461bcd60e51b815260206004820152602260248201527f4d696e742072657175657374206578636565647320746f74616c20737570706c604482015261792160f01b6064820152608401610677565b60008111610be55760405162461bcd60e51b815260206004820152601760248201527f4d757374206d696e74206174206c65617374206f6e652e0000000000000000006044820152606401610677565b6020811115610c365760405162461bcd60e51b815260206004820152601c60248201527f4d696e742065786365656473206c696d6974207065722063616c6c2e000000006044820152606401610677565b61271c54610c4690612710612435565b811115610ca15760405162461bcd60e51b8152602060048201526024808201527f4d696e74207265717565737420657863656564732063757272656e7420737570604482015263706c792160e01b6064820152608401610677565b8061271d54610cb09190612416565b3414610cf25760405162461bcd60e51b81526020600482015260116024820152701b5cd9cb9d985b1d59481a5b9d985b1a59607a1b6044820152606401610677565b6000805b82811015610d3757610d06611614565b9150610d1284836117c5565b61271c54610d219060016123ea565b61271c5580610d2f816124b3565b915050610cf6565b50505050565b6107ad8383836040518060200160405280600081525061113a565b610d6133610899565b610dc65760405162461bcd60e51b815260206004820152603060248201527f4552433732314275726e61626c653a2063616c6c6572206973206e6f74206f7760448201526f1b995c881b9bdc88185c1c1c9bdd995960821b6064820152608401610677565b610dcf81611913565b50565b6000610ddd60085490565b8210610e405760405162461bcd60e51b815260206004820152602c60248201527f455243373231456e756d657261626c653a20676c6f62616c20696e646578206f60448201526b7574206f6620626f756e647360a01b6064820152608401610677565b60088281548110610e6157634e487b7160e01b600052603260045260246000fd5b90600052602060002001549050919050565b600a546001600160a01b03163314610e9d5760405162461bcd60e51b815260040161067790612364565b6127205460ff1615610f0a5760405162461bcd60e51b815260206004820152603060248201527f43616e2774206368616e6765206d65746164617461206166746572207468652060448201526f1cd85b19481a185cc81cdd185c9d195960821b6064820152608401610677565b8051610f1e9061271f906020840190611f43565b5050612720805461ff001916610100179055565b6000818152600260205260408120546001600160a01b03168061056a5760405162461bcd60e51b815260206004820152602960248201527f4552433732313a206f776e657220717565727920666f72206e6f6e657869737460448201526832b73a103a37b5b2b760b91b6064820152608401610677565b60006001600160a01b0382166110145760405162461bcd60e51b815260206004820152602a60248201527f4552433732313a2062616c616e636520717565727920666f7220746865207a65604482015269726f206164647265737360b01b6064820152608401610677565b506001600160a01b031660009081526003602052604090205490565b600a546001600160a01b0316331461105a5760405162461bcd60e51b815260040161067790612364565b61106460006119ba565b565b60606001805461057f90612478565b6001600160a01b0382163314156110ce5760405162461bcd60e51b815260206004820152601960248201527f4552433732313a20617070726f766520746f2063616c6c6572000000000000006044820152606401610677565b3360008181526005602090815260408083206001600160a01b03871680855290835292819020805460ff191686151590811790915590519081529192917f17307eab39ab6107e8899845ad3d59bd9653f200f220920489ca2b5937696c31910160405180910390a35050565b6111443383611372565b6111605760405162461bcd60e51b815260040161067790612399565b610d3784848484611a0c565b6000818152600260205260409020546060906001600160a01b03166111eb5760405162461bcd60e51b815260206004820152602f60248201527f4552433732314d657461646174613a2055524920717565727920666f72206e6f60448201526e3732bc34b9ba32b73a103a37b5b2b760891b6064820152608401610677565b60006111f5611a3f565b905060008151116112155760405180602001604052806000815250611240565b8061121f84611a4f565b604051602001611230929190612293565b6040516020818303038152906040525b9392505050565b600a546001600160a01b031633146112715760405162461bcd60e51b815260040161067790612364565b6001600160a01b0381166112d65760405162461bcd60e51b815260206004820152602660248201527f4f776e61626c653a206e6577206f776e657220697320746865207a65726f206160448201526564647265737360d01b6064820152608401610677565b610dcf816119ba565b60006001600160e01b0319821663780e9d6360e01b148061056a575061056a82611b69565b600081815260046020526040902080546001600160a01b0319166001600160a01b038416908117909155819061133982610f32565b6001600160a01b03167f8c5be1e5ebec7d5bd14f71427d1e84f3dd0314c0f7b2291e5b200ac8c7c3b92560405160405180910390a45050565b6000818152600260205260408120546001600160a01b03166113eb5760405162461bcd60e51b815260206004820152602c60248201527f4552433732313a206f70657261746f7220717565727920666f72206e6f6e657860448201526b34b9ba32b73a103a37b5b2b760a11b6064820152608401610677565b60006113f683610f32565b9050806001600160a01b0316846001600160a01b031614806114315750836001600160a01b031661142684610602565b6001600160a01b0316145b8061146157506001600160a01b0380821660009081526005602090815260408083209388168352929052205460ff165b949350505050565b826001600160a01b031661147c82610f32565b6001600160a01b0316146114e45760405162461bcd60e51b815260206004820152602960248201527f4552433732313a207472616e73666572206f6620746f6b656e2074686174206960448201526839903737ba1037bbb760b91b6064820152608401610677565b6001600160a01b0382166115465760405162461bcd60e51b8152602060048201526024808201527f4552433732313a207472616e7366657220746f20746865207a65726f206164646044820152637265737360e01b6064820152608401610677565b611551838383611bb9565b61155c600082611304565b6001600160a01b0383166000908152600360205260408120805460019290611585908490612435565b90915550506001600160a01b03821660009081526003602052604081208054600192906115b39084906123ea565b909155505060008181526002602052604080822080546001600160a01b0319166001600160a01b0386811691821790925591518493918716917fddf252ad1be2c89b69c2b068fc378daa952ba7f163c4a11628f55a4df523b3ef91a4505050565b60008061271c546127106116289190612435565b600b546040805160208101929092526bffffffffffffffffffffffff193360601b169082015244605482015242607482015290915060009082906094016040516020818303038152906040528051906020012060001c61168891906124ce565b90506000600c8261271081106116ae57634e487b7160e01b600052603260045260246000fd5b0154156116e057600c8261271081106116d757634e487b7160e01b600052603260045260246000fd5b015490506116e3565b50805b600c6116f0600185612435565b612710811061170f57634e487b7160e01b600052603260045260246000fd5b015461174957611720600184612435565b600c83612710811061174257634e487b7160e01b600052603260045260246000fd5b015561179c565b600c611756600185612435565b612710811061177557634e487b7160e01b600052603260045260246000fd5b0154600c83612710811061179957634e487b7160e01b600052603260045260246000fd5b01555b600b80549060006117ac836124b3565b909155506117bd90508160016123ea565b935050505090565b6001600160a01b03821661181b5760405162461bcd60e51b815260206004820181905260248201527f4552433732313a206d696e7420746f20746865207a65726f20616464726573736044820152606401610677565b6000818152600260205260409020546001600160a01b0316156118805760405162461bcd60e51b815260206004820152601c60248201527f4552433732313a20746f6b656e20616c7265616479206d696e746564000000006044820152606401610677565b61188c60008383611bb9565b6001600160a01b03821660009081526003602052604081208054600192906118b59084906123ea565b909155505060008181526002602052604080822080546001600160a01b0319166001600160a01b03861690811790915590518392907fddf252ad1be2c89b69c2b068fc378daa952ba7f163c4a11628f55a4df523b3ef908290a45050565b600061191e82610f32565b905061192c81600084611bb9565b611937600083611304565b6001600160a01b0381166000908152600360205260408120805460019290611960908490612435565b909155505060008281526002602052604080822080546001600160a01b0319169055518391906001600160a01b038416907fddf252ad1be2c89b69c2b068fc378daa952ba7f163c4a11628f55a4df523b3ef908390a45050565b600a80546001600160a01b038381166001600160a01b0319831681179093556040519116919082907f8be0079c531659141344cd1fd0a4f28419497f9722a3daafe3b4186f6b6457e090600090a35050565b611a17848484611469565b611a2384848484611bc4565b610d375760405162461bcd60e51b815260040161067790612312565b606061271f805461057f90612478565b606081611a735750506040805180820190915260018152600360fc1b602082015290565b8160005b8115611a9d5780611a87816124b3565b9150611a969050600a83612402565b9150611a77565b60008167ffffffffffffffff811115611ac657634e487b7160e01b600052604160045260246000fd5b6040519080825280601f01601f191660200182016040528015611af0576020820181803683370190505b5090505b841561146157611b05600183612435565b9150611b12600a866124ce565b611b1d9060306123ea565b60f81b818381518110611b4057634e487b7160e01b600052603260045260246000fd5b60200101906001600160f81b031916908160001a905350611b62600a86612402565b9450611af4565b60006001600160e01b031982166380ac58cd60e01b1480611b9a57506001600160e01b03198216635b5e139f60e01b145b8061056a57506301ffc9a760e01b6001600160e01b031983161461056a565b6107ad838383611cd1565b60006001600160a01b0384163b15611cc657604051630a85bd0160e11b81526001600160a01b0385169063150b7a0290611c089033908990889088906004016122c2565b602060405180830381600087803b158015611c2257600080fd5b505af1925050508015611c52575060408051601f3d908101601f19168201909252611c4f918101906121ed565b60015b611cac573d808015611c80576040519150601f19603f3d011682016040523d82523d6000602084013e611c85565b606091505b508051611ca45760405162461bcd60e51b815260040161067790612312565b805181602001fd5b6001600160e01b031916630a85bd0160e11b149050611461565b506001949350505050565b6001600160a01b038316611d2c57611d2781600880546000838152600960205260408120829055600182018355919091527ff3f7a9fe364faab93b216da50a3214154f22a0a2b415b23a84c8169e8b636ee30155565b611d4f565b816001600160a01b0316836001600160a01b031614611d4f57611d4f8382611d89565b6001600160a01b038216611d66576107ad81611e26565b826001600160a01b0316826001600160a01b0316146107ad576107ad8282611eff565b60006001611d9684610fa9565b611da09190612435565b600083815260076020526040902054909150808214611df3576001600160a01b03841660009081526006602090815260408083208584528252808320548484528184208190558352600790915290208190555b5060009182526007602090815260408084208490556001600160a01b039094168352600681528383209183525290812055565b600854600090611e3890600190612435565b60008381526009602052604081205460088054939450909284908110611e6e57634e487b7160e01b600052603260045260246000fd5b906000526020600020015490508060088381548110611e9d57634e487b7160e01b600052603260045260246000fd5b6000918252602080832090910192909255828152600990915260408082208490558582528120556008805480611ee357634e487b7160e01b600052603160045260246000fd5b6001900381819060005260206000200160009055905550505050565b6000611f0a83610fa9565b6001600160a01b039093166000908152600660209081526040808320868452825280832085905593825260079052919091209190915550565b828054611f4f90612478565b90600052602060002090601f016020900481019282611f715760008555611fb7565b82601f10611f8a57805160ff1916838001178555611fb7565b82800160010185558215611fb7579182015b82811115611fb7578251825591602001919060010190611f9c565b50611fc3929150611fc7565b5090565b5b80821115611fc35760008155600101611fc8565b600067ffffffffffffffff80841115611ff757611ff761250e565b604051601f8501601f19908116603f0116810190828211818310171561201f5761201f61250e565b8160405280935085815286868601111561203857600080fd5b858560208301376000602087830101525050509392505050565b80356001600160a01b038116811461206957600080fd5b919050565b60006020828403121561207f578081fd5b61124082612052565b6000806040838503121561209a578081fd5b6120a383612052565b91506120b160208401612052565b90509250929050565b6000806000606084860312156120ce578081fd5b6120d784612052565b92506120e560208501612052565b9150604084013590509250925092565b6000806000806080858703121561210a578081fd5b61211385612052565b935061212160208601612052565b925060408501359150606085013567ffffffffffffffff811115612143578182fd5b8501601f81018713612153578182fd5b61216287823560208401611fdc565b91505092959194509250565b60008060408385031215612180578182fd5b61218983612052565b91506020830135801515811461219d578182fd5b809150509250929050565b600080604083850312156121ba578182fd5b6121c383612052565b946020939093013593505050565b6000602082840312156121e2578081fd5b813561124081612524565b6000602082840312156121fe578081fd5b815161124081612524565b60006020828403121561221a578081fd5b813567ffffffffffffffff811115612230578182fd5b8201601f81018413612240578182fd5b61146184823560208401611fdc565b600060208284031215612260578081fd5b5035919050565b6000815180845261227f81602086016020860161244c565b601f01601f19169290920160200192915050565b600083516122a581846020880161244c565b8351908301906122b981836020880161244c565b01949350505050565b6001600160a01b03858116825284166020820152604081018390526080606082018190526000906122f590830184612267565b9695505050505050565b6020815260006112406020830184612267565b60208082526032908201527f4552433732313a207472616e7366657220746f206e6f6e20455243373231526560408201527131b2b4bb32b91034b6b83632b6b2b73a32b960711b606082015260800190565b6020808252818101527f4f776e61626c653a2063616c6c6572206973206e6f7420746865206f776e6572604082015260600190565b60208082526031908201527f4552433732313a207472616e736665722063616c6c6572206973206e6f74206f6040820152701ddb995c881b9bdc88185c1c1c9bdd9959607a1b606082015260800190565b600082198211156123fd576123fd6124e2565b500190565b600082612411576124116124f8565b500490565b6000816000190483118215151615612430576124306124e2565b500290565b600082821015612447576124476124e2565b500390565b60005b8381101561246757818101518382015260200161244f565b83811115610d375750506000910152565b600181811c9082168061248c57607f821691505b602082108114156124ad57634e487b7160e01b600052602260045260246000fd5b50919050565b60006000198214156124c7576124c76124e2565b5060010190565b6000826124dd576124dd6124f8565b500690565b634e487b7160e01b600052601160045260246000fd5b634e487b7160e01b600052601260045260246000fd5b634e487b7160e01b600052604160045260246000fd5b6001600160e01b031981168114610dcf57600080fdfea2646970667358221220cca3c26bbbba1a46fba5441c1598901405eae2c7c79640d71b560cd3644be5db64736f6c63430008040033",
  "linkReferences": {},
  "deployedLinkReferences": {}
}