{
  "_format": "hh-sol-artifact-1",
  "contractName": "BlockMint",
  "sourceName": "contracts/BlockMint.sol",
  "abi": [
    {
      "inputs": [
        {
          "internalType": "address",
          "name": "_stakingAddress",
          "type": "address"
        }
      ],
      "stateMutability": "nonpayable",
      "type": "constructor"
    },
    {
      "anonymous": false,
      "inputs": [
        {
          "indexed": true,
          "internalType": "address",
          "name": "owner",
          "type": "address"
        },
        {
          "indexed": true,
          "internalType": "address",
          "name": "approved",
          "type": "address"
        },
        {
          "indexed": true,
          "internalType": "uint256",
          "name": "tokenId",
          "type": "uint256"
        }
      ],
      "name": "Approval",
      "type": "event"
    },
    {
      "anonymous": false,
      "inputs": [
        {
          "indexed": true,
          "internalType": "address",
          "name": "owner",
          "type": "address"
        },
        {
          "indexed": true,
          "internalType": "address",
          "name": "operator",
          "type": "address"
        },
        {
          "indexed": false,
          "internalType": "bool",
          "name": "approved",
          "type": "bool"
        }
      ],
      "name": "ApprovalForAll",
      "type": "event"
    },
    {
      "anonymous": false,
      "inputs": [
        {
          "indexed": true,
          "internalType": "address",
          "name": "_from",
          "type": "address"
        },
        {
          "indexed": true,
          "internalType": "uint256",
          "name": "_id",
          "type": "uint256"
        },
        {
          "indexed": false,
          "internalType": "uint256",
          "name": "_value",
          "type": "uint256"
        }
      ],
      "name": "Deposit",
      "type": "event"
    },
    {
      "anonymous": false,
      "inputs": [
        {
          "indexed": true,
          "internalType": "address",
          "name": "previousOwner",
          "type": "address"
        },
        {
          "indexed": true,
          "internalType": "address",
          "name": "newOwner",
          "type": "address"
        }
      ],
      "name": "OwnershipTransferred",
      "type": "event"
    },
    {
      "anonymous": false,
      "inputs": [],
      "name": "PublicMintOpen",
      "type": "event"
    },
    {
      "anonymous": false,
      "inputs": [
        {
          "indexed": true,
          "internalType": "address",
          "name": "from",
          "type": "address"
        },
        {
          "indexed": true,
          "internalType": "address",
          "name": "to",
          "type": "address"
        },
        {
          "indexed": true,
          "internalType": "uint256",
          "name": "tokenId",
          "type": "uint256"
        }
      ],
      "name": "Transfer",
      "type": "event"
    },
    {
      "anonymous": false,
      "inputs": [],
      "name": "WhitelistMintOpen",
      "type": "event"
    },
    {
      "inputs": [],
      "name": "StakingAddress",
      "outputs": [
        {
          "internalType": "address",
          "name": "",
          "type": "address"
        }
      ],
      "stateMutability": "view",
      "type": "function"
    },
    {
      "inputs": [
        {
          "internalType": "address",
          "name": "to",
          "type": "address"
        },
        {
          "internalType": "uint256",
          "name": "tokenId",
          "type": "uint256"
        }
      ],
      "name": "approve",
      "outputs": [],
      "stateMutability": "nonpayable",
      "type": "function"
    },
    {
      "inputs": [
        {
          "internalType": "address",
          "name": "owner",
          "type": "address"
        }
      ],
      "name": "balanceOf",
      "outputs": [
        {
          "internalType": "uint256",
          "name": "",
          "type": "uint256"
        }
      ],
      "stateMutability": "view",
      "type": "function"
    },
    {
      "inputs": [
        {
          "internalType": "uint256",
          "name": "tokenId",
          "type": "uint256"
        }
      ],
      "name": "getApproved",
      "outputs": [
        {
          "internalType": "address",
          "name": "",
          "type": "address"
        }
      ],
      "stateMutability": "view",
      "type": "function"
    },
    {
      "inputs": [
        {
          "internalType": "address",
          "name": "owner",
          "type": "address"
        },
        {
          "internalType": "address",
          "name": "operator",
          "type": "address"
        }
      ],
      "name": "isApprovedForAll",
      "outputs": [
        {
          "internalType": "bool",
          "name": "",
          "type": "bool"
        }
      ],
      "stateMutability": "view",
      "type": "function"
    },
    {
      "inputs": [
        {
          "internalType": "uint256",
          "name": "amount",
          "type": "uint256"
        },
        {
          "internalType": "bool",
          "name": "stake",
          "type": "bool"
        }
      ],
      "name": "mint",
      "outputs": [],
      "stateMutability": "payable",
      "type": "function"
    },
    {
      "inputs": [],
      "name": "name",
      "outputs": [
        {
          "internalType": "string",
          "name": "",
          "type": "string"
        }
      ],
      "stateMutability": "view",
      "type": "function"
    },
    {
      "inputs": [],
      "name": "owner",
      "outputs": [
        {
          "internalType": "address",
          "name": "",
          "type": "address"
        }
      ],
      "stateMutability": "view",
      "type": "function"
    },
    {
      "inputs": [
        {
          "internalType": "uint256",
          "name": "tokenId",
          "type": "uint256"
        }
      ],
      "name": "ownerOf",
      "outputs": [
        {
          "internalType": "address",
          "name": "",
          "type": "address"
        }
      ],
      "stateMutability": "view",
      "type": "function"
    },
    {
      "inputs": [],
      "name": "publicMintOpen",
      "outputs": [
        {
          "internalType": "bool",
          "name": "",
          "type": "bool"
        }
      ],
      "stateMutability": "view",
      "type": "function"
    },
    {
      "inputs": [
        {
          "internalType": "address",
          "name": "",
          "type": "address"
        }
      ],
      "name": "publicMintedCounts",
      "outputs": [
        {
          "internalType": "uint256",
          "name": "",
          "type": "uint256"
        }
      ],
      "stateMutability": "view",
      "type": "function"
    },
    {
      "inputs": [],
      "name": "renounceOwnership",
      "outputs": [],
      "stateMutability": "nonpayable",
      "type": "function"
    },
    {
      "inputs": [
        {
          "internalType": "address",
          "name": "from",
          "type": "address"
        },
        {
          "internalType": "address",
          "name": "to",
          "type": "address"
        },
        {
          "internalType": "uint256",
          "name": "tokenId",
          "type": "uint256"
        }
      ],
      "name": "safeTransferFrom",
      "outputs": [],
      "stateMutability": "nonpayable",
      "type": "function"
    },
    {
      "inputs": [
        {
          "internalType": "address",
          "name": "from",
          "type": "address"
        },
        {
          "internalType": "address",
          "name": "to",
          "type": "address"
        },
        {
          "internalType": "uint256",
          "name": "tokenId",
          "type": "uint256"
        },
        {
          "internalType": "bytes",
          "name": "_data",
          "type": "bytes"
        }
      ],
      "name": "safeTransferFrom",
      "outputs": [],
      "stateMutability": "nonpayable",
      "type": "function"
    },
    {
      "inputs": [
        {
          "internalType": "address",
          "name": "operator",
          "type": "address"
        },
        {
          "internalType": "bool",
          "name": "approved",
          "type": "bool"
        }
      ],
      "name": "setApprovalForAll",
      "outputs": [],
      "stateMutability": "nonpayable",
      "type": "function"
    },
    {
      "inputs": [
        {
          "internalType": "string",
          "name": "baseTokenURI",
          "type": "string"
        }
      ],
      "name": "setBaseURI",
      "outputs": [],
      "stateMutability": "nonpayable",
      "type": "function"
    },
    {
      "inputs": [
        {
          "internalType": "bool",
          "name": "open",
          "type": "bool"
        }
      ],
      "name": "setPublicMintOpen",
      "outputs": [],
      "stateMutability": "nonpayable",
      "type": "function"
    },
    {
      "inputs": [
        {
          "internalType": "address",
          "name": "_StakingAddress",
          "type": "address"
        }
      ],
      "name": "setStakingAddress",
      "outputs": [],
      "stateMutability": "nonpayable",
      "type": "function"
    },
    {
      "inputs": [
        {
          "internalType": "bytes32",
          "name": "_whitelistMerkleRoot",
          "type": "bytes32"
        }
      ],
      "name": "setWhitelistMerkleRoot",
      "outputs": [],
      "stateMutability": "nonpayable",
      "type": "function"
    },
    {
      "inputs": [
        {
          "internalType": "bool",
          "name": "open",
          "type": "bool"
        }
      ],
      "name": "setWhitelistMintOpen",
      "outputs": [],
      "stateMutability": "nonpayable",
      "type": "function"
    },
    {
      "inputs": [
        {
          "internalType": "bytes4",
          "name": "interfaceId",
          "type": "bytes4"
        }
      ],
      "name": "supportsInterface",
      "outputs": [
        {
          "internalType": "bool",
          "name": "",
          "type": "bool"
        }
      ],
      "stateMutability": "view",
      "type": "function"
    },
    {
      "inputs": [],
      "name": "symbol",
      "outputs": [
        {
          "internalType": "string",
          "name": "",
          "type": "string"
        }
      ],
      "stateMutability": "view",
      "type": "function"
    },
    {
      "inputs": [
        {
          "internalType": "uint256",
          "name": "tokenId",
          "type": "uint256"
        }
      ],
      "name": "tokenURI",
      "outputs": [
        {
          "internalType": "string",
          "name": "",
          "type": "string"
        }
      ],
      "stateMutability": "view",
      "type": "function"
    },
    {
      "inputs": [],
      "name": "totalSupply",
      "outputs": [
        {
          "internalType": "uint256",
          "name": "",
          "type": "uint256"
        }
      ],
      "stateMutability": "view",
      "type": "function"
    },
    {
      "inputs": [
        {
          "internalType": "address",
          "name": "from",
          "type": "address"
        },
        {
          "internalType": "address",
          "name": "to",
          "type": "address"
        },
        {
          "internalType": "uint256",
          "name": "tokenId",
          "type": "uint256"
        }
      ],
      "name": "transferFrom",
      "outputs": [],
      "stateMutability": "nonpayable",
      "type": "function"
    },
    {
      "inputs": [
        {
          "internalType": "address",
          "name": "newOwner",
          "type": "address"
        }
      ],
      "name": "transferOwnership",
      "outputs": [],
      "stateMutability": "nonpayable",
      "type": "function"
    },
    {
      "inputs": [],
      "name": "whitelistMerkleRoot",
      "outputs": [
        {
          "internalType": "bytes32",
          "name": "",
          "type": "bytes32"
        }
      ],
      "stateMutability": "view",
      "type": "function"
    },
    {
      "inputs": [
        {
          "internalType": "uint256",
          "name": "amount",
          "type": "uint256"
        },
        {
          "internalType": "bool",
          "name": "stake",
          "type": "bool"
        },
        {
          "internalType": "bytes32[]",
          "name": "whitelistProof",
          "type": "bytes32[]"
        }
      ],
      "name": "whitelistMint",
      "outputs": [],
      "stateMutability": "payable",
      "type": "function"
    },
    {
      "inputs": [],
      "name": "whitelistMintOpen",
      "outputs": [
        {
          "internalType": "bool",
          "name": "",
          "type": "bool"
        }
      ],
      "stateMutability": "view",
      "type": "function"
    },
    {
      "inputs": [
        {
          "internalType": "address",
          "name": "",
          "type": "address"
        }
      ],
      "name": "whitelistMintedCounts",
      "outputs": [
        {
          "internalType": "uint256",
          "name": "",
          "type": "uint256"
        }
      ],
      "stateMutability": "view",
      "type": "function"
    }
  ],
  "bytecode": "0x6080604052600061274a5561274c805460ff191690553480156200002257600080fd5b506040516200249d3803806200249d8339810160408190526200004591620001e8565b604080518082018252600a815269426c6f636b466f72676560b01b6020808301918252835180850190945260048452632125a62360e11b908401528151919291620000939160009162000142565b508051620000a990600190602084019062000142565b505050620000c6620000c0620000ec60201b60201c565b620000f0565b600780546001600160a01b0319166001600160a01b039290921691909117905562000255565b3390565b600680546001600160a01b038381166001600160a01b0319831681179093556040519116919082907f8be0079c531659141344cd1fd0a4f28419497f9722a3daafe3b4186f6b6457e090600090a35050565b828054620001509062000218565b90600052602060002090601f016020900481019282620001745760008555620001bf565b82601f106200018f57805160ff1916838001178555620001bf565b82800160010185558215620001bf579182015b82811115620001bf578251825591602001919060010190620001a2565b50620001cd929150620001d1565b5090565b5b80821115620001cd5760008155600101620001d2565b600060208284031215620001fa578081fd5b81516001600160a01b038116811462000211578182fd5b9392505050565b600181811c908216806200022d57607f821691505b602082108114156200024f57634e487b7160e01b600052602260045260246000fd5b50919050565b61223880620002656000396000f3fe6080604052600436106101cd5760003560e01c8063715018a6116100f7578063b88d4fde11610095578063e985e9c511610064578063e985e9c514610524578063f2fde38b1461056d578063f4e0d9ac1461058d578063fade63c9146105ad57600080fd5b8063b88d4fde146104a4578063bcc9ca5b146104c4578063bd32fb66146104e4578063c87b56dd1461050457600080fd5b8063953fb4fb116100d1578063953fb4fb1461043857806395d89b4114610458578063a22cb4651461046d578063aa98e0c61461048d57600080fd5b8063715018a6146103d75780637630a55a146103ec5780638da5cb5b1461041a57600080fd5b806342842e0e1161016f5780636387f8041161013e5780636387f804146103565780636701cff71461037657806367f68fac146103a457806370a08231146103b757600080fd5b806342842e0e146102db57806352436f20146102fb57806355f804b3146103165780636352211e1461033657600080fd5b8063095ea7b3116101ab578063095ea7b3146102615780630a8e54891461028357806318160ddd1461029657806323b872dd146102bb57600080fd5b806301ffc9a7146101d257806306fdde0314610207578063081812fc14610229575b600080fd5b3480156101de57600080fd5b506101f26101ed366004611e0a565b6105cd565b60405190151581526020015b60405180910390f35b34801561021357600080fd5b5061021c61061f565b6040516101fe9190611fc7565b34801561023557600080fd5b50610249610244366004611df2565b6106b1565b6040516001600160a01b0390911681526020016101fe565b34801561026d57600080fd5b5061028161027c366004611daf565b61074b565b005b610281610291366004611eaa565b610861565b3480156102a257600080fd5b506102ad61274f5481565b6040519081526020016101fe565b3480156102c757600080fd5b506102816102d6366004611cd2565b610a96565b3480156102e757600080fd5b506102816102f6366004611cd2565b610ae6565b34801561030757600080fd5b5061274e546101f29060ff1681565b34801561032257600080fd5b50610281610331366004611e42565b610b01565b34801561034257600080fd5b50610249610351366004611df2565b610b51565b34801561036257600080fd5b50610281610371366004611dd8565b610bc8565b34801561038257600080fd5b506102ad610391366004611c86565b6127516020526000908152604090205481565b6102816103b2366004611e88565b610c32565b3480156103c357600080fd5b506102ad6103d2366004611c86565b610d64565b3480156103e357600080fd5b50610281610deb565b3480156103f857600080fd5b506102ad610407366004611c86565b6127506020526000908152604090205481565b34801561042657600080fd5b506006546001600160a01b0316610249565b34801561044457600080fd5b50600754610249906001600160a01b031681565b34801561046457600080fd5b5061021c610e21565b34801561047957600080fd5b50610281610488366004611d86565b610e30565b34801561049957600080fd5b506102ad61274d5481565b3480156104b057600080fd5b506102816104bf366004611d0d565b610ef5565b3480156104d057600080fd5b5061274e546101f290610100900460ff1681565b3480156104f057600080fd5b506102816104ff366004611df2565b610f27565b34801561051057600080fd5b5061021c61051f366004611df2565b610f57565b34801561053057600080fd5b506101f261053f366004611ca0565b6001600160a01b03918216600090815260056020908152604080832093909416825291909152205460ff1690565b34801561057957600080fd5b50610281610588366004611c86565b611032565b34801561059957600080fd5b506102816105a8366004611c86565b6110cd565b3480156105b957600080fd5b506102816105c8366004611dd8565b611119565b60006001600160e01b031982166380ac58cd60e01b14806105fe57506001600160e01b03198216635b5e139f60e01b145b8061061957506301ffc9a760e01b6001600160e01b03198316145b92915050565b60606000805461062e90612140565b80601f016020809104026020016040519081016040528092919081815260200182805461065a90612140565b80156106a75780601f1061067c576101008083540402835291602001916106a7565b820191906000526020600020905b81548152906001019060200180831161068a57829003601f168201915b5050505050905090565b6000818152600260205260408120546001600160a01b031661072f5760405162461bcd60e51b815260206004820152602c60248201527f4552433732313a20617070726f76656420717565727920666f72206e6f6e657860448201526b34b9ba32b73a103a37b5b2b760a11b60648201526084015b60405180910390fd5b506000908152600460205260409020546001600160a01b031690565b600061075682610b51565b9050806001600160a01b0316836001600160a01b031614156107c45760405162461bcd60e51b815260206004820152602160248201527f4552433732313a20617070726f76616c20746f2063757272656e74206f776e656044820152603960f91b6064820152608401610726565b336001600160a01b03821614806107e057506107e0813361053f565b6108525760405162461bcd60e51b815260206004820152603860248201527f4552433732313a20617070726f76652063616c6c6572206973206e6f74206f7760448201527f6e6572206e6f7220617070726f76656420666f7220616c6c00000000000000006064820152608401610726565b61085c838361117e565b505050565b8181808060200260200160405190810160405280939291908181526020018383602002808284376000920191909152506108a092508391506111ec9050565b6108ec5760405162461bcd60e51b815260206004820152601960248201527f43616c6c6572206973206e6f742077686974656c6973746564000000000000006044820152606401610726565b33600090815261275060205260408120549061090887836120b2565b905061091861012c6127106120fd565b8761274f5461092791906120b2565b11156109755760405162461bcd60e51b815260206004820152601a60248201527f546f6b656e20737570706c79206c696d697420726561636865640000000000006044820152606401610726565b61274e5460ff166109c85760405162461bcd60e51b815260206004820152601860248201527f57686974656c697374206d696e74696e6720636c6f73656400000000000000006044820152606401610726565b6002811115610a195760405162461bcd60e51b815260206004820152601f60248201527f57686974656c697374206d696e7420616d6f756e7420746f6f206c61726765006044820152606401610726565b610a2a8766470de4df8200006120de565b3414610a6f5760405162461bcd60e51b81526020600482015260146024820152730a8ded6cadc40e0e4d2c6ca40dad2e6dac2e8c6d60631b6044820152606401610726565b33600081815261275060205260409020829055610a8d9088886111fc565b50505050505050565b33610aa18183611381565b80610ab957506007546001600160a01b038281169116145b610ad55760405162461bcd60e51b815260040161072690612061565b610ae0848484611478565b50505050565b61085c83838360405180602001604052806000815250610ef5565b6006546001600160a01b03163314610b2b5760405162461bcd60e51b81526004016107269061202c565b8051610b3f9061274b906020840190611b4b565b505061274c805460ff19166001179055565b6000818152600260205260408120546001600160a01b0316806106195760405162461bcd60e51b815260206004820152602960248201527f4552433732313a206f776e657220717565727920666f72206e6f6e657869737460448201526832b73a103a37b5b2b760b91b6064820152608401610726565b6006546001600160a01b03163314610bf25760405162461bcd60e51b81526004016107269061202c565b61274e805461ff001916610100831515021790556040517f652bdb42d00441813d1211c6f4c84fe867279e472bfe04439e9c728deeffed0690600090a150565b33328114610c795760405162461bcd60e51b815260206004820152601460248201527310d85b1b195c881a5cc8184818dbdb9d1c9858dd60621b6044820152606401610726565b803b8015610cc05760405162461bcd60e51b815260206004820152601460248201527310d85b1b195c881a5cc8184818dbdb9d1c9858dd60621b6044820152606401610726565b3360009081526127516020526040812054610cdc9086906120b2565b9050610cec61012c6127106120fd565b8561274f54610cfb91906120b2565b1115610d3f5760405162461bcd60e51b8152602060048201526013602482015272151bdad95b88131a5b5a5d0814995858da1959606a1b6044820152606401610726565b33600081815261275160205260409020829055610d5d9086866111fc565b5050505050565b60006001600160a01b038216610dcf5760405162461bcd60e51b815260206004820152602a60248201527f4552433732313a2062616c616e636520717565727920666f7220746865207a65604482015269726f206164647265737360b01b6064820152608401610726565b506001600160a01b031660009081526003602052604090205490565b6006546001600160a01b03163314610e155760405162461bcd60e51b81526004016107269061202c565b610e1f6000611618565b565b60606001805461062e90612140565b6001600160a01b038216331415610e895760405162461bcd60e51b815260206004820152601960248201527f4552433732313a20617070726f766520746f2063616c6c6572000000000000006044820152606401610726565b3360008181526005602090815260408083206001600160a01b03871680855290835292819020805460ff191686151590811790915590519081529192917f17307eab39ab6107e8899845ad3d59bd9653f200f220920489ca2b5937696c31910160405180910390a35050565b610eff3383611381565b610f1b5760405162461bcd60e51b815260040161072690612061565b610ae08484848461166a565b6006546001600160a01b03163314610f515760405162461bcd60e51b81526004016107269061202c565b61274d55565b6000818152600260205260409020546060906001600160a01b0316610fd65760405162461bcd60e51b815260206004820152602f60248201527f4552433732314d657461646174613a2055524920717565727920666f72206e6f60448201526e3732bc34b9ba32b73a103a37b5b2b760891b6064820152608401610726565b6000610fe061169d565b90506000815111611000576040518060200160405280600081525061102b565b8061100a846116ad565b60405160200161101b929190611f5b565b6040516020818303038152906040525b9392505050565b6006546001600160a01b0316331461105c5760405162461bcd60e51b81526004016107269061202c565b6001600160a01b0381166110c15760405162461bcd60e51b815260206004820152602660248201527f4f776e61626c653a206e6577206f776e657220697320746865207a65726f206160448201526564647265737360d01b6064820152608401610726565b6110ca81611618565b50565b6006546001600160a01b031633146110f75760405162461bcd60e51b81526004016107269061202c565b600780546001600160a01b0319166001600160a01b0392909216919091179055565b6006546001600160a01b031633146111435760405162461bcd60e51b81526004016107269061202c565b61274e805460ff19168215151790556040517fcbb4b46ce47639737b3c01f0eed2d81764c15fae1028b89f5d13f1e33b158b9c90600090a150565b600081815260046020526040902080546001600160a01b0319166001600160a01b03841690811790915581906111b382610b51565b6001600160a01b03167f8c5be1e5ebec7d5bd14f71427d1e84f3dd0314c0f7b2291e5b200ac8c7c3b92560405160405180910390a45050565b60006106198261274d54336117c7565b6002600854141561124f5760405162461bcd60e51b815260206004820152601f60248201527f5265656e7472616e637947756172643a207265656e7472616e742063616c6c006044820152606401610726565b6002600855816112945760405162461bcd60e51b815260206004820152601060248201526f105b5bdd5b9d081d1bdbc81cdb585b1b60821b6044820152606401610726565b6112a58266470de4df8200006120de565b34146112b057600080fd5b61274f5460005b8381101561135d5761130c836112cd57856112da565b6007546001600160a01b03165b6112e483856120b2565b604080516001600160a01b038a1660208201520160405160208183030381529060405261180c565b61131681836120b2565b60405134815233907f90890809c654f11d6e72a28fa60149770a0d11ec6c92319d6ceb2bb0a4ea1a159060200160405180910390a3806113558161217b565b9150506112b7565b508261274f600082825461137191906120b2565b9091555050600160085550505050565b6000818152600260205260408120546001600160a01b03166113fa5760405162461bcd60e51b815260206004820152602c60248201527f4552433732313a206f70657261746f7220717565727920666f72206e6f6e657860448201526b34b9ba32b73a103a37b5b2b760a11b6064820152608401610726565b600061140583610b51565b9050806001600160a01b0316846001600160a01b031614806114405750836001600160a01b0316611435846106b1565b6001600160a01b0316145b8061147057506001600160a01b0380821660009081526005602090815260408083209388168352929052205460ff165b949350505050565b826001600160a01b031661148b82610b51565b6001600160a01b0316146114f35760405162461bcd60e51b815260206004820152602960248201527f4552433732313a207472616e73666572206f6620746f6b656e2074686174206960448201526839903737ba1037bbb760b91b6064820152608401610726565b6001600160a01b0382166115555760405162461bcd60e51b8152602060048201526024808201527f4552433732313a207472616e7366657220746f20746865207a65726f206164646044820152637265737360e01b6064820152608401610726565b61156060008261117e565b6001600160a01b03831660009081526003602052604081208054600192906115899084906120fd565b90915550506001600160a01b03821660009081526003602052604081208054600192906115b79084906120b2565b909155505060008181526002602052604080822080546001600160a01b0319166001600160a01b0386811691821790925591518493918716917fddf252ad1be2c89b69c2b068fc378daa952ba7f163c4a11628f55a4df523b3ef91a4505050565b600680546001600160a01b038381166001600160a01b0319831681179093556040519116919082907f8be0079c531659141344cd1fd0a4f28419497f9722a3daafe3b4186f6b6457e090600090a35050565b611675848484611478565b6116818484848461183f565b610ae05760405162461bcd60e51b815260040161072690611fda565b606061274b805461062e90612140565b6060816116d15750506040805180820190915260018152600360fc1b602082015290565b8160005b81156116fb57806116e58161217b565b91506116f49050600a836120ca565b91506116d5565b60008167ffffffffffffffff81111561172457634e487b7160e01b600052604160045260246000fd5b6040519080825280601f01601f19166020018201604052801561174e576020820181803683370190505b5090505b8415611470576117636001836120fd565b9150611770600a86612196565b61177b9060306120b2565b60f81b81838151811061179e57634e487b7160e01b600052603260045260246000fd5b60200101906001600160f81b031916908160001a9053506117c0600a866120ca565b9450611752565b6040516bffffffffffffffffffffffff19606083901b16602082015260009061147090859085906034016040516020818303038152906040528051906020012061194c565b6118168383611a09565b611823600084848461183f565b61085c5760405162461bcd60e51b815260040161072690611fda565b60006001600160a01b0384163b1561194157604051630a85bd0160e11b81526001600160a01b0385169063150b7a0290611883903390899088908890600401611f8a565b602060405180830381600087803b15801561189d57600080fd5b505af19250505080156118cd575060408051601f3d908101601f191682019092526118ca91810190611e26565b60015b611927573d8080156118fb576040519150601f19603f3d011682016040523d82523d6000602084013e611900565b606091505b50805161191f5760405162461bcd60e51b815260040161072690611fda565b805181602001fd5b6001600160e01b031916630a85bd0160e11b149050611470565b506001949350505050565b600081815b85518110156119fe57600086828151811061197c57634e487b7160e01b600052603260045260246000fd5b602002602001015190508083116119be5760408051602081018590529081018290526060016040516020818303038152906040528051906020012092506119eb565b60408051602081018390529081018490526060016040516020818303038152906040528051906020012092505b50806119f68161217b565b915050611951565b509092149392505050565b6001600160a01b038216611a5f5760405162461bcd60e51b815260206004820181905260248201527f4552433732313a206d696e7420746f20746865207a65726f20616464726573736044820152606401610726565b6000818152600260205260409020546001600160a01b031615611ac45760405162461bcd60e51b815260206004820152601c60248201527f4552433732313a20746f6b656e20616c7265616479206d696e746564000000006044820152606401610726565b6001600160a01b0382166000908152600360205260408120805460019290611aed9084906120b2565b909155505060008181526002602052604080822080546001600160a01b0319166001600160a01b03861690811790915590518392907fddf252ad1be2c89b69c2b068fc378daa952ba7f163c4a11628f55a4df523b3ef908290a45050565b828054611b5790612140565b90600052602060002090601f016020900481019282611b795760008555611bbf565b82601f10611b9257805160ff1916838001178555611bbf565b82800160010185558215611bbf579182015b82811115611bbf578251825591602001919060010190611ba4565b50611bcb929150611bcf565b5090565b5b80821115611bcb5760008155600101611bd0565b600067ffffffffffffffff80841115611bff57611bff6121d6565b604051601f8501601f19908116603f01168101908282118183101715611c2757611c276121d6565b81604052809350858152868686011115611c4057600080fd5b858560208301376000602087830101525050509392505050565b80356001600160a01b0381168114611c7157600080fd5b919050565b80358015158114611c7157600080fd5b600060208284031215611c97578081fd5b61102b82611c5a565b60008060408385031215611cb2578081fd5b611cbb83611c5a565b9150611cc960208401611c5a565b90509250929050565b600080600060608486031215611ce6578081fd5b611cef84611c5a565b9250611cfd60208501611c5a565b9150604084013590509250925092565b60008060008060808587031215611d22578081fd5b611d2b85611c5a565b9350611d3960208601611c5a565b925060408501359150606085013567ffffffffffffffff811115611d5b578182fd5b8501601f81018713611d6b578182fd5b611d7a87823560208401611be4565b91505092959194509250565b60008060408385031215611d98578182fd5b611da183611c5a565b9150611cc960208401611c76565b60008060408385031215611dc1578182fd5b611dca83611c5a565b946020939093013593505050565b600060208284031215611de9578081fd5b61102b82611c76565b600060208284031215611e03578081fd5b5035919050565b600060208284031215611e1b578081fd5b813561102b816121ec565b600060208284031215611e37578081fd5b815161102b816121ec565b600060208284031215611e53578081fd5b813567ffffffffffffffff811115611e69578182fd5b8201601f81018413611e79578182fd5b61147084823560208401611be4565b60008060408385031215611e9a578182fd5b82359150611cc960208401611c76565b60008060008060608587031215611ebf578182fd5b84359350611ecf60208601611c76565b9250604085013567ffffffffffffffff80821115611eeb578384fd5b818701915087601f830112611efe578384fd5b813581811115611f0c578485fd5b8860208260051b8501011115611f20578485fd5b95989497505060200194505050565b60008151808452611f47816020860160208601612114565b601f01601f19169290920160200192915050565b60008351611f6d818460208801612114565b835190830190611f81818360208801612114565b01949350505050565b6001600160a01b0385811682528416602082015260408101839052608060608201819052600090611fbd90830184611f2f565b9695505050505050565b60208152600061102b6020830184611f2f565b60208082526032908201527f4552433732313a207472616e7366657220746f206e6f6e20455243373231526560408201527131b2b4bb32b91034b6b83632b6b2b73a32b960711b606082015260800190565b6020808252818101527f4f776e61626c653a2063616c6c6572206973206e6f7420746865206f776e6572604082015260600190565b60208082526031908201527f4552433732313a207472616e736665722063616c6c6572206973206e6f74206f6040820152701ddb995c881b9bdc88185c1c1c9bdd9959607a1b606082015260800190565b600082198211156120c5576120c56121aa565b500190565b6000826120d9576120d96121c0565b500490565b60008160001904831182151516156120f8576120f86121aa565b500290565b60008282101561210f5761210f6121aa565b500390565b60005b8381101561212f578181015183820152602001612117565b83811115610ae05750506000910152565b600181811c9082168061215457607f821691505b6020821081141561217557634e487b7160e01b600052602260045260246000fd5b50919050565b600060001982141561218f5761218f6121aa565b5060010190565b6000826121a5576121a56121c0565b500690565b634e487b7160e01b600052601160045260246000fd5b634e487b7160e01b600052601260045260246000fd5b634e487b7160e01b600052604160045260246000fd5b6001600160e01b0319811681146110ca57600080fdfea2646970667358221220ce04062855d57ee4f461c950c689738a832b9cd72edce515091901b7bce5d2b964736f6c63430008040033",
  "linkReferences": {},
  "deployedLinkReferences": {}
}