{
  "_format": "hh-sol-artifact-1",
  "contractName": "BlockMint",
  "sourceName": "contracts/BlockMint.sol",
  "abi": [
    {
      "inputs": [
        {
          "internalType": "address",
          "name": "_stakingAddress",
          "type": "address"
        }
      ],
      "stateMutability": "nonpayable",
      "type": "constructor"
    },
    {
      "anonymous": false,
      "inputs": [
        {
          "indexed": true,
          "internalType": "address",
          "name": "owner",
          "type": "address"
        },
        {
          "indexed": true,
          "internalType": "address",
          "name": "approved",
          "type": "address"
        },
        {
          "indexed": true,
          "internalType": "uint256",
          "name": "tokenId",
          "type": "uint256"
        }
      ],
      "name": "Approval",
      "type": "event"
    },
    {
      "anonymous": false,
      "inputs": [
        {
          "indexed": true,
          "internalType": "address",
          "name": "owner",
          "type": "address"
        },
        {
          "indexed": true,
          "internalType": "address",
          "name": "operator",
          "type": "address"
        },
        {
          "indexed": false,
          "internalType": "bool",
          "name": "approved",
          "type": "bool"
        }
      ],
      "name": "ApprovalForAll",
      "type": "event"
    },
    {
      "anonymous": false,
      "inputs": [
        {
          "indexed": true,
          "internalType": "address",
          "name": "_from",
          "type": "address"
        },
        {
          "indexed": true,
          "internalType": "uint256",
          "name": "_id",
          "type": "uint256"
        },
        {
          "indexed": false,
          "internalType": "uint256",
          "name": "_value",
          "type": "uint256"
        }
      ],
      "name": "Deposit",
      "type": "event"
    },
    {
      "anonymous": false,
      "inputs": [
        {
          "indexed": true,
          "internalType": "address",
          "name": "previousOwner",
          "type": "address"
        },
        {
          "indexed": true,
          "internalType": "address",
          "name": "newOwner",
          "type": "address"
        }
      ],
      "name": "OwnershipTransferred",
      "type": "event"
    },
    {
      "anonymous": false,
      "inputs": [],
      "name": "PublicMintOpen",
      "type": "event"
    },
    {
      "anonymous": false,
      "inputs": [
        {
          "indexed": true,
          "internalType": "address",
          "name": "from",
          "type": "address"
        },
        {
          "indexed": true,
          "internalType": "address",
          "name": "to",
          "type": "address"
        },
        {
          "indexed": true,
          "internalType": "uint256",
          "name": "tokenId",
          "type": "uint256"
        }
      ],
      "name": "Transfer",
      "type": "event"
    },
    {
      "anonymous": false,
      "inputs": [],
      "name": "WhitelistMintOpen",
      "type": "event"
    },
    {
      "inputs": [],
      "name": "StakingAddress",
      "outputs": [
        {
          "internalType": "address",
          "name": "",
          "type": "address"
        }
      ],
      "stateMutability": "view",
      "type": "function"
    },
    {
      "inputs": [
        {
          "internalType": "address",
          "name": "to",
          "type": "address"
        },
        {
          "internalType": "uint256",
          "name": "tokenId",
          "type": "uint256"
        }
      ],
      "name": "approve",
      "outputs": [],
      "stateMutability": "nonpayable",
      "type": "function"
    },
    {
      "inputs": [
        {
          "internalType": "address",
          "name": "owner",
          "type": "address"
        }
      ],
      "name": "balanceOf",
      "outputs": [
        {
          "internalType": "uint256",
          "name": "",
          "type": "uint256"
        }
      ],
      "stateMutability": "view",
      "type": "function"
    },
    {
      "inputs": [
        {
          "internalType": "uint256",
          "name": "tokenId",
          "type": "uint256"
        }
      ],
      "name": "getApproved",
      "outputs": [
        {
          "internalType": "address",
          "name": "",
          "type": "address"
        }
      ],
      "stateMutability": "view",
      "type": "function"
    },
    {
      "inputs": [
        {
          "internalType": "address",
          "name": "owner",
          "type": "address"
        },
        {
          "internalType": "address",
          "name": "operator",
          "type": "address"
        }
      ],
      "name": "isApprovedForAll",
      "outputs": [
        {
          "internalType": "bool",
          "name": "",
          "type": "bool"
        }
      ],
      "stateMutability": "view",
      "type": "function"
    },
    {
      "inputs": [
        {
          "internalType": "uint256",
          "name": "amount",
          "type": "uint256"
        },
        {
          "internalType": "bool",
          "name": "stake",
          "type": "bool"
        }
      ],
      "name": "mint",
      "outputs": [],
      "stateMutability": "payable",
      "type": "function"
    },
    {
      "inputs": [],
      "name": "name",
      "outputs": [
        {
          "internalType": "string",
          "name": "",
          "type": "string"
        }
      ],
      "stateMutability": "view",
      "type": "function"
    },
    {
      "inputs": [],
      "name": "owner",
      "outputs": [
        {
          "internalType": "address",
          "name": "",
          "type": "address"
        }
      ],
      "stateMutability": "view",
      "type": "function"
    },
    {
      "inputs": [
        {
          "internalType": "uint256",
          "name": "tokenId",
          "type": "uint256"
        }
      ],
      "name": "ownerOf",
      "outputs": [
        {
          "internalType": "address",
          "name": "",
          "type": "address"
        }
      ],
      "stateMutability": "view",
      "type": "function"
    },
    {
      "inputs": [],
      "name": "publicMintOpen",
      "outputs": [
        {
          "internalType": "bool",
          "name": "",
          "type": "bool"
        }
      ],
      "stateMutability": "view",
      "type": "function"
    },
    {
      "inputs": [
        {
          "internalType": "address",
          "name": "",
          "type": "address"
        }
      ],
      "name": "publicMintedCounts",
      "outputs": [
        {
          "internalType": "uint256",
          "name": "",
          "type": "uint256"
        }
      ],
      "stateMutability": "view",
      "type": "function"
    },
    {
      "inputs": [],
      "name": "renounceOwnership",
      "outputs": [],
      "stateMutability": "nonpayable",
      "type": "function"
    },
    {
      "inputs": [
        {
          "internalType": "address",
          "name": "from",
          "type": "address"
        },
        {
          "internalType": "address",
          "name": "to",
          "type": "address"
        },
        {
          "internalType": "uint256",
          "name": "tokenId",
          "type": "uint256"
        }
      ],
      "name": "safeTransferFrom",
      "outputs": [],
      "stateMutability": "nonpayable",
      "type": "function"
    },
    {
      "inputs": [
        {
          "internalType": "address",
          "name": "from",
          "type": "address"
        },
        {
          "internalType": "address",
          "name": "to",
          "type": "address"
        },
        {
          "internalType": "uint256",
          "name": "tokenId",
          "type": "uint256"
        },
        {
          "internalType": "bytes",
          "name": "_data",
          "type": "bytes"
        }
      ],
      "name": "safeTransferFrom",
      "outputs": [],
      "stateMutability": "nonpayable",
      "type": "function"
    },
    {
      "inputs": [
        {
          "internalType": "address",
          "name": "operator",
          "type": "address"
        },
        {
          "internalType": "bool",
          "name": "approved",
          "type": "bool"
        }
      ],
      "name": "setApprovalForAll",
      "outputs": [],
      "stateMutability": "nonpayable",
      "type": "function"
    },
    {
      "inputs": [
        {
          "internalType": "string",
          "name": "baseTokenURI",
          "type": "string"
        }
      ],
      "name": "setBaseURI",
      "outputs": [],
      "stateMutability": "nonpayable",
      "type": "function"
    },
    {
      "inputs": [
        {
          "internalType": "bool",
          "name": "open",
          "type": "bool"
        }
      ],
      "name": "setPublicMintOpen",
      "outputs": [],
      "stateMutability": "nonpayable",
      "type": "function"
    },
    {
      "inputs": [
        {
          "internalType": "address",
          "name": "_StakingAddress",
          "type": "address"
        }
      ],
      "name": "setStakingAddress",
      "outputs": [],
      "stateMutability": "nonpayable",
      "type": "function"
    },
    {
      "inputs": [
        {
          "internalType": "bytes4",
          "name": "interfaceId",
          "type": "bytes4"
        }
      ],
      "name": "supportsInterface",
      "outputs": [
        {
          "internalType": "bool",
          "name": "",
          "type": "bool"
        }
      ],
      "stateMutability": "view",
      "type": "function"
    },
    {
      "inputs": [],
      "name": "symbol",
      "outputs": [
        {
          "internalType": "string",
          "name": "",
          "type": "string"
        }
      ],
      "stateMutability": "view",
      "type": "function"
    },
    {
      "inputs": [
        {
          "internalType": "uint256",
          "name": "tokenId",
          "type": "uint256"
        }
      ],
      "name": "tokenURI",
      "outputs": [
        {
          "internalType": "string",
          "name": "",
          "type": "string"
        }
      ],
      "stateMutability": "view",
      "type": "function"
    },
    {
      "inputs": [],
      "name": "totalSupply",
      "outputs": [
        {
          "internalType": "uint256",
          "name": "",
          "type": "uint256"
        }
      ],
      "stateMutability": "view",
      "type": "function"
    },
    {
      "inputs": [
        {
          "internalType": "address",
          "name": "from",
          "type": "address"
        },
        {
          "internalType": "address",
          "name": "to",
          "type": "address"
        },
        {
          "internalType": "uint256",
          "name": "tokenId",
          "type": "uint256"
        }
      ],
      "name": "transferFrom",
      "outputs": [],
      "stateMutability": "nonpayable",
      "type": "function"
    },
    {
      "inputs": [
        {
          "internalType": "address",
          "name": "newOwner",
          "type": "address"
        }
      ],
      "name": "transferOwnership",
      "outputs": [],
      "stateMutability": "nonpayable",
      "type": "function"
    }
  ],
  "bytecode": "0x6080604052600061274a5561274c805460ff191690553480156200002257600080fd5b5060405162001f0a38038062001f0a8339810160408190526200004591620001e8565b604080518082018252600a815269426c6f636b466f72676560b01b6020808301918252835180850190945260048452632125a62360e11b908401528151919291620000939160009162000142565b508051620000a990600190602084019062000142565b505050620000c6620000c0620000ec60201b60201c565b620000f0565b600780546001600160a01b0319166001600160a01b039290921691909117905562000255565b3390565b600680546001600160a01b038381166001600160a01b0319831681179093556040519116919082907f8be0079c531659141344cd1fd0a4f28419497f9722a3daafe3b4186f6b6457e090600090a35050565b828054620001509062000218565b90600052602060002090601f016020900481019282620001745760008555620001bf565b82601f106200018f57805160ff1916838001178555620001bf565b82800160010185558215620001bf579182015b82811115620001bf578251825591602001919060010190620001a2565b50620001cd929150620001d1565b5090565b5b80821115620001cd5760008155600101620001d2565b600060208284031215620001fa578081fd5b81516001600160a01b038116811462000211578182fd5b9392505050565b600181811c908216806200022d57607f821691505b602082108114156200024f57634e487b7160e01b600052602260045260246000fd5b50919050565b611ca580620002656000396000f3fe60806040526004361061014b5760003560e01c806370a08231116100b6578063b88d4fde1161006f578063b88d4fde146103af578063bcc9ca5b146103cf578063c87b56dd146103ef578063e985e9c51461040f578063f2fde38b14610458578063f4e0d9ac1461047857600080fd5b806370a0823114610307578063715018a6146103275780638da5cb5b1461033c578063953fb4fb1461035a57806395d89b411461037a578063a22cb4651461038f57600080fd5b806342842e0e1161010857806342842e0e1461024657806355f804b3146102665780636352211e146102865780636387f804146102a65780636701cff7146102c657806367f68fac146102f457600080fd5b806301ffc9a71461015057806306fdde0314610185578063081812fc146101a7578063095ea7b3146101df57806318160ddd1461020157806323b872dd14610226575b600080fd5b34801561015c57600080fd5b5061017061016b3660046118e4565b610498565b60405190151581526020015b60405180910390f35b34801561019157600080fd5b5061019a6104ea565b60405161017c9190611a34565b3480156101b357600080fd5b506101c76101c2366004611962565b61057c565b6040516001600160a01b03909116815260200161017c565b3480156101eb57600080fd5b506101ff6101fa3660046118a1565b610616565b005b34801561020d57600080fd5b5061021861274d5481565b60405190815260200161017c565b34801561023257600080fd5b506101ff6102413660046117c4565b61072c565b34801561025257600080fd5b506101ff6102613660046117c4565b61077c565b34801561027257600080fd5b506101ff61028136600461191c565b610797565b34801561029257600080fd5b506101c76102a1366004611962565b6107e7565b3480156102b257600080fd5b506101ff6102c13660046118ca565b61085e565b3480156102d257600080fd5b506102186102e1366004611778565b61274e6020526000908152604090205481565b6101ff61030236600461197a565b6108c8565b34801561031357600080fd5b50610218610322366004611778565b6109fa565b34801561033357600080fd5b506101ff610a81565b34801561034857600080fd5b506006546001600160a01b03166101c7565b34801561036657600080fd5b506007546101c7906001600160a01b031681565b34801561038657600080fd5b5061019a610ab7565b34801561039b57600080fd5b506101ff6103aa366004611878565b610ac6565b3480156103bb57600080fd5b506101ff6103ca3660046117ff565b610b8b565b3480156103db57600080fd5b5061274c5461017090610100900460ff1681565b3480156103fb57600080fd5b5061019a61040a366004611962565b610bbd565b34801561041b57600080fd5b5061017061042a366004611792565b6001600160a01b03918216600090815260056020908152604080832093909416825291909152205460ff1690565b34801561046457600080fd5b506101ff610473366004611778565b610c98565b34801561048457600080fd5b506101ff610493366004611778565b610d33565b60006001600160e01b031982166380ac58cd60e01b14806104c957506001600160e01b03198216635b5e139f60e01b145b806104e457506301ffc9a760e01b6001600160e01b03198316145b92915050565b6060600080546104f990611bad565b80601f016020809104026020016040519081016040528092919081815260200182805461052590611bad565b80156105725780601f1061054757610100808354040283529160200191610572565b820191906000526020600020905b81548152906001019060200180831161055557829003601f168201915b5050505050905090565b6000818152600260205260408120546001600160a01b03166105fa5760405162461bcd60e51b815260206004820152602c60248201527f4552433732313a20617070726f76656420717565727920666f72206e6f6e657860448201526b34b9ba32b73a103a37b5b2b760a11b60648201526084015b60405180910390fd5b506000908152600460205260409020546001600160a01b031690565b6000610621826107e7565b9050806001600160a01b0316836001600160a01b0316141561068f5760405162461bcd60e51b815260206004820152602160248201527f4552433732313a20617070726f76616c20746f2063757272656e74206f776e656044820152603960f91b60648201526084016105f1565b336001600160a01b03821614806106ab57506106ab813361042a565b61071d5760405162461bcd60e51b815260206004820152603860248201527f4552433732313a20617070726f76652063616c6c6572206973206e6f74206f7760448201527f6e6572206e6f7220617070726f76656420666f7220616c6c000000000000000060648201526084016105f1565b6107278383610d7f565b505050565b336107378183610ded565b8061074f57506007546001600160a01b038281169116145b61076b5760405162461bcd60e51b81526004016105f190611ace565b610776848484610ee4565b50505050565b61072783838360405180602001604052806000815250610b8b565b6006546001600160a01b031633146107c15760405162461bcd60e51b81526004016105f190611a99565b80516107d59061274b90602084019061163d565b505061274c805460ff19166001179055565b6000818152600260205260408120546001600160a01b0316806104e45760405162461bcd60e51b815260206004820152602960248201527f4552433732313a206f776e657220717565727920666f72206e6f6e657869737460448201526832b73a103a37b5b2b760b91b60648201526084016105f1565b6006546001600160a01b031633146108885760405162461bcd60e51b81526004016105f190611a99565b61274c805461ff001916610100831515021790556040517f652bdb42d00441813d1211c6f4c84fe867279e472bfe04439e9c728deeffed0690600090a150565b3332811461090f5760405162461bcd60e51b815260206004820152601460248201527310d85b1b195c881a5cc8184818dbdb9d1c9858dd60621b60448201526064016105f1565b803b80156109565760405162461bcd60e51b815260206004820152601460248201527310d85b1b195c881a5cc8184818dbdb9d1c9858dd60621b60448201526064016105f1565b33600090815261274e6020526040812054610972908690611b1f565b905061098261012c612710611b6a565b8561274d546109919190611b1f565b11156109d55760405162461bcd60e51b8152602060048201526013602482015272151bdad95b88131a5b5a5d0814995858da1959606a1b60448201526064016105f1565b33600081815261274e602052604090208290556109f3908686611084565b5050505050565b60006001600160a01b038216610a655760405162461bcd60e51b815260206004820152602a60248201527f4552433732313a2062616c616e636520717565727920666f7220746865207a65604482015269726f206164647265737360b01b60648201526084016105f1565b506001600160a01b031660009081526003602052604090205490565b6006546001600160a01b03163314610aab5760405162461bcd60e51b81526004016105f190611a99565b610ab5600061120c565b565b6060600180546104f990611bad565b6001600160a01b038216331415610b1f5760405162461bcd60e51b815260206004820152601960248201527f4552433732313a20617070726f766520746f2063616c6c65720000000000000060448201526064016105f1565b3360008181526005602090815260408083206001600160a01b03871680855290835292819020805460ff191686151590811790915590519081529192917f17307eab39ab6107e8899845ad3d59bd9653f200f220920489ca2b5937696c31910160405180910390a35050565b610b953383610ded565b610bb15760405162461bcd60e51b81526004016105f190611ace565b6107768484848461125e565b6000818152600260205260409020546060906001600160a01b0316610c3c5760405162461bcd60e51b815260206004820152602f60248201527f4552433732314d657461646174613a2055524920717565727920666f72206e6f60448201526e3732bc34b9ba32b73a103a37b5b2b760891b60648201526084016105f1565b6000610c46611291565b90506000815111610c665760405180602001604052806000815250610c91565b80610c70846112a1565b604051602001610c819291906119c8565b6040516020818303038152906040525b9392505050565b6006546001600160a01b03163314610cc25760405162461bcd60e51b81526004016105f190611a99565b6001600160a01b038116610d275760405162461bcd60e51b815260206004820152602660248201527f4f776e61626c653a206e6577206f776e657220697320746865207a65726f206160448201526564647265737360d01b60648201526084016105f1565b610d308161120c565b50565b6006546001600160a01b03163314610d5d5760405162461bcd60e51b81526004016105f190611a99565b600780546001600160a01b0319166001600160a01b0392909216919091179055565b600081815260046020526040902080546001600160a01b0319166001600160a01b0384169081179091558190610db4826107e7565b6001600160a01b03167f8c5be1e5ebec7d5bd14f71427d1e84f3dd0314c0f7b2291e5b200ac8c7c3b92560405160405180910390a45050565b6000818152600260205260408120546001600160a01b0316610e665760405162461bcd60e51b815260206004820152602c60248201527f4552433732313a206f70657261746f7220717565727920666f72206e6f6e657860448201526b34b9ba32b73a103a37b5b2b760a11b60648201526084016105f1565b6000610e71836107e7565b9050806001600160a01b0316846001600160a01b03161480610eac5750836001600160a01b0316610ea18461057c565b6001600160a01b0316145b80610edc57506001600160a01b0380821660009081526005602090815260408083209388168352929052205460ff165b949350505050565b826001600160a01b0316610ef7826107e7565b6001600160a01b031614610f5f5760405162461bcd60e51b815260206004820152602960248201527f4552433732313a207472616e73666572206f6620746f6b656e2074686174206960448201526839903737ba1037bbb760b91b60648201526084016105f1565b6001600160a01b038216610fc15760405162461bcd60e51b8152602060048201526024808201527f4552433732313a207472616e7366657220746f20746865207a65726f206164646044820152637265737360e01b60648201526084016105f1565b610fcc600082610d7f565b6001600160a01b0383166000908152600360205260408120805460019290610ff5908490611b6a565b90915550506001600160a01b0382166000908152600360205260408120805460019290611023908490611b1f565b909155505060008181526002602052604080822080546001600160a01b0319166001600160a01b0386811691821790925591518493918716917fddf252ad1be2c89b69c2b068fc378daa952ba7f163c4a11628f55a4df523b3ef91a4505050565b600260085414156110d75760405162461bcd60e51b815260206004820152601f60248201527f5265656e7472616e637947756172643a207265656e7472616e742063616c6c0060448201526064016105f1565b600260085560008261111e5760405162461bcd60e51b815260206004820152601060248201526f105b5bdd5b9d081d1bdbc81cdb585b1b60821b60448201526064016105f1565b61112f8366470de4df820000611b4b565b341461113a57600080fd5b61274d5460005b848110156111e757611196846111575786611164565b6007546001600160a01b03165b61116e8385611b1f565b604080516001600160a01b038b166020820152016040516020818303038152906040526113bb565b6111a08183611b1f565b60405134815233907f90890809c654f11d6e72a28fa60149770a0d11ec6c92319d6ceb2bb0a4ea1a159060200160405180910390a3806111df81611be8565b915050611141565b508361274d60008282546111fb9190611b1f565b909155505060016008555050505050565b600680546001600160a01b038381166001600160a01b0319831681179093556040519116919082907f8be0079c531659141344cd1fd0a4f28419497f9722a3daafe3b4186f6b6457e090600090a35050565b611269848484610ee4565b611275848484846113ee565b6107765760405162461bcd60e51b81526004016105f190611a47565b606061274b80546104f990611bad565b6060816112c55750506040805180820190915260018152600360fc1b602082015290565b8160005b81156112ef57806112d981611be8565b91506112e89050600a83611b37565b91506112c9565b60008167ffffffffffffffff81111561131857634e487b7160e01b600052604160045260246000fd5b6040519080825280601f01601f191660200182016040528015611342576020820181803683370190505b5090505b8415610edc57611357600183611b6a565b9150611364600a86611c03565b61136f906030611b1f565b60f81b81838151811061139257634e487b7160e01b600052603260045260246000fd5b60200101906001600160f81b031916908160001a9053506113b4600a86611b37565b9450611346565b6113c583836114fb565b6113d260008484846113ee565b6107275760405162461bcd60e51b81526004016105f190611a47565b60006001600160a01b0384163b156114f057604051630a85bd0160e11b81526001600160a01b0385169063150b7a02906114329033908990889088906004016119f7565b602060405180830381600087803b15801561144c57600080fd5b505af192505050801561147c575060408051601f3d908101601f1916820190925261147991810190611900565b60015b6114d6573d8080156114aa576040519150601f19603f3d011682016040523d82523d6000602084013e6114af565b606091505b5080516114ce5760405162461bcd60e51b81526004016105f190611a47565b805181602001fd5b6001600160e01b031916630a85bd0160e11b149050610edc565b506001949350505050565b6001600160a01b0382166115515760405162461bcd60e51b815260206004820181905260248201527f4552433732313a206d696e7420746f20746865207a65726f206164647265737360448201526064016105f1565b6000818152600260205260409020546001600160a01b0316156115b65760405162461bcd60e51b815260206004820152601c60248201527f4552433732313a20746f6b656e20616c7265616479206d696e7465640000000060448201526064016105f1565b6001600160a01b03821660009081526003602052604081208054600192906115df908490611b1f565b909155505060008181526002602052604080822080546001600160a01b0319166001600160a01b03861690811790915590518392907fddf252ad1be2c89b69c2b068fc378daa952ba7f163c4a11628f55a4df523b3ef908290a45050565b82805461164990611bad565b90600052602060002090601f01602090048101928261166b57600085556116b1565b82601f1061168457805160ff19168380011785556116b1565b828001600101855582156116b1579182015b828111156116b1578251825591602001919060010190611696565b506116bd9291506116c1565b5090565b5b808211156116bd57600081556001016116c2565b600067ffffffffffffffff808411156116f1576116f1611c43565b604051601f8501601f19908116603f0116810190828211818310171561171957611719611c43565b8160405280935085815286868601111561173257600080fd5b858560208301376000602087830101525050509392505050565b80356001600160a01b038116811461176357600080fd5b919050565b8035801515811461176357600080fd5b600060208284031215611789578081fd5b610c918261174c565b600080604083850312156117a4578081fd5b6117ad8361174c565b91506117bb6020840161174c565b90509250929050565b6000806000606084860312156117d8578081fd5b6117e18461174c565b92506117ef6020850161174c565b9150604084013590509250925092565b60008060008060808587031215611814578081fd5b61181d8561174c565b935061182b6020860161174c565b925060408501359150606085013567ffffffffffffffff81111561184d578182fd5b8501601f8101871361185d578182fd5b61186c878235602084016116d6565b91505092959194509250565b6000806040838503121561188a578182fd5b6118938361174c565b91506117bb60208401611768565b600080604083850312156118b3578182fd5b6118bc8361174c565b946020939093013593505050565b6000602082840312156118db578081fd5b610c9182611768565b6000602082840312156118f5578081fd5b8135610c9181611c59565b600060208284031215611911578081fd5b8151610c9181611c59565b60006020828403121561192d578081fd5b813567ffffffffffffffff811115611943578182fd5b8201601f81018413611953578182fd5b610edc848235602084016116d6565b600060208284031215611973578081fd5b5035919050565b6000806040838503121561198c578182fd5b823591506117bb60208401611768565b600081518084526119b4816020860160208601611b81565b601f01601f19169290920160200192915050565b600083516119da818460208801611b81565b8351908301906119ee818360208801611b81565b01949350505050565b6001600160a01b0385811682528416602082015260408101839052608060608201819052600090611a2a9083018461199c565b9695505050505050565b602081526000610c91602083018461199c565b60208082526032908201527f4552433732313a207472616e7366657220746f206e6f6e20455243373231526560408201527131b2b4bb32b91034b6b83632b6b2b73a32b960711b606082015260800190565b6020808252818101527f4f776e61626c653a2063616c6c6572206973206e6f7420746865206f776e6572604082015260600190565b60208082526031908201527f4552433732313a207472616e736665722063616c6c6572206973206e6f74206f6040820152701ddb995c881b9bdc88185c1c1c9bdd9959607a1b606082015260800190565b60008219821115611b3257611b32611c17565b500190565b600082611b4657611b46611c2d565b500490565b6000816000190483118215151615611b6557611b65611c17565b500290565b600082821015611b7c57611b7c611c17565b500390565b60005b83811015611b9c578181015183820152602001611b84565b838111156107765750506000910152565b600181811c90821680611bc157607f821691505b60208210811415611be257634e487b7160e01b600052602260045260246000fd5b50919050565b6000600019821415611bfc57611bfc611c17565b5060010190565b600082611c1257611c12611c2d565b500690565b634e487b7160e01b600052601160045260246000fd5b634e487b7160e01b600052601260045260246000fd5b634e487b7160e01b600052604160045260246000fd5b6001600160e01b031981168114610d3057600080fdfea26469706673582212208bb4f7ed0f72094ce937e57fb771647779a1170e43a1ed7557f45ffe25a5d37864736f6c63430008040033",
  "linkReferences": {},
  "deployedLinkReferences": {}
}