{
  "_format": "hh-sol-artifact-1",
  "contractName": "BlockMint",
  "sourceName": "contracts/BlockMint.sol",
  "abi": [
    {
      "anonymous": false,
      "inputs": [
        {
          "indexed": true,
          "internalType": "address",
          "name": "owner",
          "type": "address"
        },
        {
          "indexed": true,
          "internalType": "address",
          "name": "approved",
          "type": "address"
        },
        {
          "indexed": true,
          "internalType": "uint256",
          "name": "tokenId",
          "type": "uint256"
        }
      ],
      "name": "Approval",
      "type": "event"
    },
    {
      "anonymous": false,
      "inputs": [
        {
          "indexed": true,
          "internalType": "address",
          "name": "owner",
          "type": "address"
        },
        {
          "indexed": true,
          "internalType": "address",
          "name": "operator",
          "type": "address"
        },
        {
          "indexed": false,
          "internalType": "bool",
          "name": "approved",
          "type": "bool"
        }
      ],
      "name": "ApprovalForAll",
      "type": "event"
    },
    {
      "anonymous": false,
      "inputs": [
        {
          "indexed": true,
          "internalType": "address",
          "name": "previousOwner",
          "type": "address"
        },
        {
          "indexed": true,
          "internalType": "address",
          "name": "newOwner",
          "type": "address"
        }
      ],
      "name": "OwnershipTransferred",
      "type": "event"
    },
    {
      "anonymous": false,
      "inputs": [],
      "name": "PublicMintOpen",
      "type": "event"
    },
    {
      "anonymous": false,
      "inputs": [
        {
          "indexed": true,
          "internalType": "address",
          "name": "from",
          "type": "address"
        },
        {
          "indexed": true,
          "internalType": "address",
          "name": "to",
          "type": "address"
        },
        {
          "indexed": true,
          "internalType": "uint256",
          "name": "tokenId",
          "type": "uint256"
        }
      ],
      "name": "Transfer",
      "type": "event"
    },
    {
      "inputs": [
        {
          "internalType": "address",
          "name": "to",
          "type": "address"
        },
        {
          "internalType": "uint256",
          "name": "tokenId",
          "type": "uint256"
        }
      ],
      "name": "approve",
      "outputs": [],
      "stateMutability": "nonpayable",
      "type": "function"
    },
    {
      "inputs": [
        {
          "internalType": "address",
          "name": "owner",
          "type": "address"
        }
      ],
      "name": "balanceOf",
      "outputs": [
        {
          "internalType": "uint256",
          "name": "",
          "type": "uint256"
        }
      ],
      "stateMutability": "view",
      "type": "function"
    },
    {
      "inputs": [
        {
          "internalType": "uint256",
          "name": "tokenId",
          "type": "uint256"
        }
      ],
      "name": "getApproved",
      "outputs": [
        {
          "internalType": "address",
          "name": "",
          "type": "address"
        }
      ],
      "stateMutability": "view",
      "type": "function"
    },
    {
      "inputs": [
        {
          "internalType": "address",
          "name": "_stakingAddress",
          "type": "address"
        },
        {
          "internalType": "string",
          "name": "baseTokenURI",
          "type": "string"
        }
      ],
      "name": "initalize",
      "outputs": [],
      "stateMutability": "nonpayable",
      "type": "function"
    },
    {
      "inputs": [
        {
          "internalType": "address",
          "name": "owner",
          "type": "address"
        },
        {
          "internalType": "address",
          "name": "operator",
          "type": "address"
        }
      ],
      "name": "isApprovedForAll",
      "outputs": [
        {
          "internalType": "bool",
          "name": "",
          "type": "bool"
        }
      ],
      "stateMutability": "view",
      "type": "function"
    },
    {
      "inputs": [
        {
          "internalType": "uint256",
          "name": "amount",
          "type": "uint256"
        },
        {
          "internalType": "bool",
          "name": "stake",
          "type": "bool"
        }
      ],
      "name": "mint",
      "outputs": [],
      "stateMutability": "nonpayable",
      "type": "function"
    },
    {
      "inputs": [],
      "name": "name",
      "outputs": [
        {
          "internalType": "string",
          "name": "",
          "type": "string"
        }
      ],
      "stateMutability": "view",
      "type": "function"
    },
    {
      "inputs": [],
      "name": "owner",
      "outputs": [
        {
          "internalType": "address",
          "name": "",
          "type": "address"
        }
      ],
      "stateMutability": "view",
      "type": "function"
    },
    {
      "inputs": [
        {
          "internalType": "uint256",
          "name": "tokenId",
          "type": "uint256"
        }
      ],
      "name": "ownerOf",
      "outputs": [
        {
          "internalType": "address",
          "name": "",
          "type": "address"
        }
      ],
      "stateMutability": "view",
      "type": "function"
    },
    {
      "inputs": [],
      "name": "publicMintOpen",
      "outputs": [
        {
          "internalType": "bool",
          "name": "",
          "type": "bool"
        }
      ],
      "stateMutability": "view",
      "type": "function"
    },
    {
      "inputs": [
        {
          "internalType": "address",
          "name": "",
          "type": "address"
        }
      ],
      "name": "publicMintedCounts",
      "outputs": [
        {
          "internalType": "uint256",
          "name": "",
          "type": "uint256"
        }
      ],
      "stateMutability": "view",
      "type": "function"
    },
    {
      "inputs": [],
      "name": "renounceOwnership",
      "outputs": [],
      "stateMutability": "nonpayable",
      "type": "function"
    },
    {
      "inputs": [
        {
          "internalType": "address",
          "name": "from",
          "type": "address"
        },
        {
          "internalType": "address",
          "name": "to",
          "type": "address"
        },
        {
          "internalType": "uint256",
          "name": "tokenId",
          "type": "uint256"
        }
      ],
      "name": "safeTransferFrom",
      "outputs": [],
      "stateMutability": "nonpayable",
      "type": "function"
    },
    {
      "inputs": [
        {
          "internalType": "address",
          "name": "from",
          "type": "address"
        },
        {
          "internalType": "address",
          "name": "to",
          "type": "address"
        },
        {
          "internalType": "uint256",
          "name": "tokenId",
          "type": "uint256"
        },
        {
          "internalType": "bytes",
          "name": "_data",
          "type": "bytes"
        }
      ],
      "name": "safeTransferFrom",
      "outputs": [],
      "stateMutability": "nonpayable",
      "type": "function"
    },
    {
      "inputs": [
        {
          "internalType": "address",
          "name": "operator",
          "type": "address"
        },
        {
          "internalType": "bool",
          "name": "approved",
          "type": "bool"
        }
      ],
      "name": "setApprovalForAll",
      "outputs": [],
      "stateMutability": "nonpayable",
      "type": "function"
    },
    {
      "inputs": [
        {
          "internalType": "string",
          "name": "baseTokenURI",
          "type": "string"
        }
      ],
      "name": "setBaseURI",
      "outputs": [],
      "stateMutability": "nonpayable",
      "type": "function"
    },
    {
      "inputs": [
        {
          "internalType": "bool",
          "name": "open",
          "type": "bool"
        }
      ],
      "name": "setPublicMintOpen",
      "outputs": [],
      "stateMutability": "nonpayable",
      "type": "function"
    },
    {
      "inputs": [
        {
          "internalType": "address",
          "name": "_stakingAddress",
          "type": "address"
        }
      ],
      "name": "setStakingAddress",
      "outputs": [],
      "stateMutability": "nonpayable",
      "type": "function"
    },
    {
      "inputs": [],
      "name": "stakingAddress",
      "outputs": [
        {
          "internalType": "address",
          "name": "",
          "type": "address"
        }
      ],
      "stateMutability": "view",
      "type": "function"
    },
    {
      "inputs": [
        {
          "internalType": "bytes4",
          "name": "interfaceId",
          "type": "bytes4"
        }
      ],
      "name": "supportsInterface",
      "outputs": [
        {
          "internalType": "bool",
          "name": "",
          "type": "bool"
        }
      ],
      "stateMutability": "view",
      "type": "function"
    },
    {
      "inputs": [],
      "name": "symbol",
      "outputs": [
        {
          "internalType": "string",
          "name": "",
          "type": "string"
        }
      ],
      "stateMutability": "view",
      "type": "function"
    },
    {
      "inputs": [
        {
          "internalType": "uint256",
          "name": "tokenId",
          "type": "uint256"
        }
      ],
      "name": "tokenURI",
      "outputs": [
        {
          "internalType": "string",
          "name": "",
          "type": "string"
        }
      ],
      "stateMutability": "view",
      "type": "function"
    },
    {
      "inputs": [],
      "name": "totalSupply",
      "outputs": [
        {
          "internalType": "uint256",
          "name": "",
          "type": "uint256"
        }
      ],
      "stateMutability": "view",
      "type": "function"
    },
    {
      "inputs": [
        {
          "internalType": "address",
          "name": "from",
          "type": "address"
        },
        {
          "internalType": "address",
          "name": "to",
          "type": "address"
        },
        {
          "internalType": "uint256",
          "name": "tokenId",
          "type": "uint256"
        }
      ],
      "name": "transferFrom",
      "outputs": [],
      "stateMutability": "nonpayable",
      "type": "function"
    },
    {
      "inputs": [
        {
          "internalType": "address",
          "name": "newOwner",
          "type": "address"
        }
      ],
      "name": "transferOwnership",
      "outputs": [],
      "stateMutability": "nonpayable",
      "type": "function"
    }
  ],
  "bytecode": "0x608060405260fd805460ff1916905534801561001a57600080fd5b50611f798061002a6000396000f3fe608060405234801561001057600080fd5b50600436106101735760003560e01c806370a08231116100de578063b88d4fde11610097578063d7b4be2411610071578063d7b4be2414610331578063e985e9c514610344578063f2fde38b14610380578063f4e0d9ac1461039357600080fd5b8063b88d4fde146102f9578063bcc9ca5b1461030c578063c87b56dd1461031e57600080fd5b806370a082311461029f578063715018a6146102b257806380deb96d146102ba5780638da5cb5b146102cd57806395d89b41146102de578063a22cb465146102e657600080fd5b806342842e0e1161013057806342842e0e1461021f57806355f804b3146102325780636352211e146102455780636387f804146102585780636701cff71461026b57806367f68fac1461028c57600080fd5b806301ffc9a71461017857806306fdde03146101a0578063081812fc146101b5578063095ea7b3146101e057806318160ddd146101f557806323b872dd1461020c575b600080fd5b61018b610186366004611b9c565b6103a6565b60405190151581526020015b60405180910390f35b6101a86103f8565b6040516101979190611cd9565b6101c86101c3366004611c07565b61048a565b6040516001600160a01b039091168152602001610197565b6101f36101ee366004611b59565b610524565b005b6101fe60fe5481565b604051908152602001610197565b6101f361021a366004611a30565b61063a565b6101f361022d366004611a30565b61068a565b6101f3610240366004611bd4565b6106a5565b6101c8610253366004611c07565b6106f3565b6101f3610266366004611b82565b61076a565b6101fe6102793660046119e4565b6101006020526000908152604090205481565b6101f361029a366004611c1f565b6107d3565b6101fe6102ad3660046119e4565b610904565b6101f361098b565b6101f36102c8366004611b0d565b6109c1565b6097546001600160a01b03166101c8565b6101a8610aad565b6101f36102f4366004611ae4565b610abc565b6101f3610307366004611a6b565b610b81565b60fd5461018b90610100900460ff1681565b6101a861032c366004611c07565b610bb3565b60c9546101c8906001600160a01b031681565b61018b6103523660046119fe565b6001600160a01b039182166000908152606a6020908152604080832093909416825291909152205460ff1690565b6101f361038e3660046119e4565b610c8e565b6101f36103a13660046119e4565b610d29565b60006001600160e01b031982166380ac58cd60e01b14806103d757506001600160e01b03198216635b5e139f60e01b145b806103f257506301ffc9a760e01b6001600160e01b03198316145b92915050565b60606065805461040790611e81565b80601f016020809104026020016040519081016040528092919081815260200182805461043390611e81565b80156104805780601f1061045557610100808354040283529160200191610480565b820191906000526020600020905b81548152906001019060200180831161046357829003601f168201915b5050505050905090565b6000818152606760205260408120546001600160a01b03166105085760405162461bcd60e51b815260206004820152602c60248201527f4552433732313a20617070726f76656420717565727920666f72206e6f6e657860448201526b34b9ba32b73a103a37b5b2b760a11b60648201526084015b60405180910390fd5b506000908152606960205260409020546001600160a01b031690565b600061052f826106f3565b9050806001600160a01b0316836001600160a01b0316141561059d5760405162461bcd60e51b815260206004820152602160248201527f4552433732313a20617070726f76616c20746f2063757272656e74206f776e656044820152603960f91b60648201526084016104ff565b336001600160a01b03821614806105b957506105b98133610352565b61062b5760405162461bcd60e51b815260206004820152603860248201527f4552433732313a20617070726f76652063616c6c6572206973206e6f74206f7760448201527f6e6572206e6f7220617070726f76656420666f7220616c6c000000000000000060648201526084016104ff565b6106358383610d75565b505050565b336106458183610de3565b8061065d575060c9546001600160a01b038281169116145b6106795760405162461bcd60e51b81526004016104ff90611dc1565b610684848484610eda565b50505050565b61063583838360405180602001604052806000815250610b81565b6097546001600160a01b031633146106cf5760405162461bcd60e51b81526004016104ff90611d8c565b80516106e29060fc90602084019061188a565b505060fd805460ff19166001179055565b6000818152606760205260408120546001600160a01b0316806103f25760405162461bcd60e51b815260206004820152602960248201527f4552433732313a206f776e657220717565727920666f72206e6f6e657869737460448201526832b73a103a37b5b2b760b91b60648201526084016104ff565b6097546001600160a01b031633146107945760405162461bcd60e51b81526004016104ff90611d8c565b60fd805461ff001916610100831515021790556040517f652bdb42d00441813d1211c6f4c84fe867279e472bfe04439e9c728deeffed0690600090a150565b3332811461081a5760405162461bcd60e51b815260206004820152601460248201527310d85b1b195c881a5cc8184818dbdb9d1c9858dd60621b60448201526064016104ff565b803b80156108615760405162461bcd60e51b815260206004820152601460248201527310d85b1b195c881a5cc8184818dbdb9d1c9858dd60621b60448201526064016104ff565b336000908152610100602052604081205461087d908690611e12565b905061088d61012c612710611e3e565b8560fe5461089b9190611e12565b11156108df5760405162461bcd60e51b8152602060048201526013602482015272151bdad95b88131a5b5a5d0814995858da1959606a1b60448201526064016104ff565b336000818152610100602052604090208290556108fd90868661107a565b5050505050565b60006001600160a01b03821661096f5760405162461bcd60e51b815260206004820152602a60248201527f4552433732313a2062616c616e636520717565727920666f7220746865207a65604482015269726f206164647265737360b01b60648201526084016104ff565b506001600160a01b031660009081526068602052604090205490565b6097546001600160a01b031633146109b55760405162461bcd60e51b81526004016104ff90611d8c565b6109bf60006111a2565b565b600054610100900460ff16806109da575060005460ff16155b6109f65760405162461bcd60e51b81526004016104ff90611d3e565b600054610100900460ff16158015610a18576000805461ffff19166101011790555b610a606040518060400160405280600a815260200169426c6f636b466f72676560b01b81525060405180604001604052806004815260200163212625a360e11b8152506111f4565b610a68611273565b60c980546001600160a01b0319166001600160a01b0385161790558151610a969060fc90602085019061188a565b508015610635576000805461ff0019169055505050565b60606066805461040790611e81565b6001600160a01b038216331415610b155760405162461bcd60e51b815260206004820152601960248201527f4552433732313a20617070726f766520746f2063616c6c65720000000000000060448201526064016104ff565b336000818152606a602090815260408083206001600160a01b03871680855290835292819020805460ff191686151590811790915590519081529192917f17307eab39ab6107e8899845ad3d59bd9653f200f220920489ca2b5937696c31910160405180910390a35050565b610b8b3383610de3565b610ba75760405162461bcd60e51b81526004016104ff90611dc1565b610684848484846112e3565b6000818152606760205260409020546060906001600160a01b0316610c325760405162461bcd60e51b815260206004820152602f60248201527f4552433732314d657461646174613a2055524920717565727920666f72206e6f60448201526e3732bc34b9ba32b73a103a37b5b2b760891b60648201526084016104ff565b6000610c3c611316565b90506000815111610c5c5760405180602001604052806000815250610c87565b80610c6684611325565b604051602001610c77929190611c6d565b6040516020818303038152906040525b9392505050565b6097546001600160a01b03163314610cb85760405162461bcd60e51b81526004016104ff90611d8c565b6001600160a01b038116610d1d5760405162461bcd60e51b815260206004820152602660248201527f4f776e61626c653a206e6577206f776e657220697320746865207a65726f206160448201526564647265737360d01b60648201526084016104ff565b610d26816111a2565b50565b6097546001600160a01b03163314610d535760405162461bcd60e51b81526004016104ff90611d8c565b60c980546001600160a01b0319166001600160a01b0392909216919091179055565b600081815260696020526040902080546001600160a01b0319166001600160a01b0384169081179091558190610daa826106f3565b6001600160a01b03167f8c5be1e5ebec7d5bd14f71427d1e84f3dd0314c0f7b2291e5b200ac8c7c3b92560405160405180910390a45050565b6000818152606760205260408120546001600160a01b0316610e5c5760405162461bcd60e51b815260206004820152602c60248201527f4552433732313a206f70657261746f7220717565727920666f72206e6f6e657860448201526b34b9ba32b73a103a37b5b2b760a11b60648201526084016104ff565b6000610e67836106f3565b9050806001600160a01b0316846001600160a01b03161480610ea25750836001600160a01b0316610e978461048a565b6001600160a01b0316145b80610ed257506001600160a01b038082166000908152606a602090815260408083209388168352929052205460ff165b949350505050565b826001600160a01b0316610eed826106f3565b6001600160a01b031614610f555760405162461bcd60e51b815260206004820152602960248201527f4552433732313a207472616e73666572206f6620746f6b656e2074686174206960448201526839903737ba1037bbb760b91b60648201526084016104ff565b6001600160a01b038216610fb75760405162461bcd60e51b8152602060048201526024808201527f4552433732313a207472616e7366657220746f20746865207a65726f206164646044820152637265737360e01b60648201526084016104ff565b610fc2600082610d75565b6001600160a01b0383166000908152606860205260408120805460019290610feb908490611e3e565b90915550506001600160a01b0382166000908152606860205260408120805460019290611019908490611e12565b909155505060008181526067602052604080822080546001600160a01b0319166001600160a01b0386811691821790925591518493918716917fddf252ad1be2c89b69c2b068fc378daa952ba7f163c4a11628f55a4df523b3ef91a4505050565b600260ca5414156110cd5760405162461bcd60e51b815260206004820152601f60248201527f5265656e7472616e637947756172643a207265656e7472616e742063616c6c0060448201526064016104ff565b600260ca55816111125760405162461bcd60e51b815260206004820152601060248201526f105b5bdd5b9d081d1bdbc81cdb585b1b60821b60448201526064016104ff565b60fe5460005b8381101561117f5761116d8361112e578561113b565b60c9546001600160a01b03165b6111458385611e12565b604080516001600160a01b038a1660208201520160405160208183030381529060405261143f565b8061117781611ebc565b915050611118565b508260fe60008282546111929190611e12565b9091555050600160ca5550505050565b609780546001600160a01b038381166001600160a01b0319831681179093556040519116919082907f8be0079c531659141344cd1fd0a4f28419497f9722a3daafe3b4186f6b6457e090600090a35050565b600054610100900460ff168061120d575060005460ff16155b6112295760405162461bcd60e51b81526004016104ff90611d3e565b600054610100900460ff1615801561124b576000805461ffff19166101011790555b6112558383611472565b61125d6114e3565b8015610635576000805461ff0019169055505050565b600054610100900460ff168061128c575060005460ff16155b6112a85760405162461bcd60e51b81526004016104ff90611d3e565b600054610100900460ff161580156112ca576000805461ffff19166101011790555b600160ca558015610d26576000805461ff001916905550565b6112ee848484610eda565b6112fa84848484611557565b6106845760405162461bcd60e51b81526004016104ff90611cec565b606060fc805461040790611e81565b6060816113495750506040805180820190915260018152600360fc1b602082015290565b8160005b8115611373578061135d81611ebc565b915061136c9050600a83611e2a565b915061134d565b60008167ffffffffffffffff81111561139c57634e487b7160e01b600052604160045260246000fd5b6040519080825280601f01601f1916602001820160405280156113c6576020820181803683370190505b5090505b8415610ed2576113db600183611e3e565b91506113e8600a86611ed7565b6113f3906030611e12565b60f81b81838151811061141657634e487b7160e01b600052603260045260246000fd5b60200101906001600160f81b031916908160001a905350611438600a86611e2a565b94506113ca565b6114498383611664565b6114566000848484611557565b6106355760405162461bcd60e51b81526004016104ff90611cec565b600054610100900460ff168061148b575060005460ff16155b6114a75760405162461bcd60e51b81526004016104ff90611d3e565b600054610100900460ff161580156114c9576000805461ffff19166101011790555b6114d16117a6565b6114d96117a6565b61125d8383611810565b600054610100900460ff16806114fc575060005460ff16155b6115185760405162461bcd60e51b81526004016104ff90611d3e565b600054610100900460ff1615801561153a576000805461ffff19166101011790555b611543336111a2565b8015610d26576000805461ff001916905550565b60006001600160a01b0384163b1561165957604051630a85bd0160e11b81526001600160a01b0385169063150b7a029061159b903390899088908890600401611c9c565b602060405180830381600087803b1580156115b557600080fd5b505af19250505080156115e5575060408051601f3d908101601f191682019092526115e291810190611bb8565b60015b61163f573d808015611613576040519150601f19603f3d011682016040523d82523d6000602084013e611618565b606091505b5080516116375760405162461bcd60e51b81526004016104ff90611cec565b805181602001fd5b6001600160e01b031916630a85bd0160e11b149050610ed2565b506001949350505050565b6001600160a01b0382166116ba5760405162461bcd60e51b815260206004820181905260248201527f4552433732313a206d696e7420746f20746865207a65726f206164647265737360448201526064016104ff565b6000818152606760205260409020546001600160a01b03161561171f5760405162461bcd60e51b815260206004820152601c60248201527f4552433732313a20746f6b656e20616c7265616479206d696e7465640000000060448201526064016104ff565b6001600160a01b0382166000908152606860205260408120805460019290611748908490611e12565b909155505060008181526067602052604080822080546001600160a01b0319166001600160a01b03861690811790915590518392907fddf252ad1be2c89b69c2b068fc378daa952ba7f163c4a11628f55a4df523b3ef908290a45050565b600054610100900460ff16806117bf575060005460ff16155b6117db5760405162461bcd60e51b81526004016104ff90611d3e565b600054610100900460ff16158015611543576000805461ffff19166101011790558015610d26576000805461ff001916905550565b600054610100900460ff1680611829575060005460ff16155b6118455760405162461bcd60e51b81526004016104ff90611d3e565b600054610100900460ff16158015611867576000805461ffff19166101011790555b825161187a90606590602086019061188a565b508151610a969060669060208501905b82805461189690611e81565b90600052602060002090601f0160209004810192826118b857600085556118fe565b82601f106118d157805160ff19168380011785556118fe565b828001600101855582156118fe579182015b828111156118fe5782518255916020019190600101906118e3565b5061190a92915061190e565b5090565b5b8082111561190a576000815560010161190f565b600067ffffffffffffffff8084111561193e5761193e611f17565b604051601f8501601f19908116603f0116810190828211818310171561196657611966611f17565b8160405280935085815286868601111561197f57600080fd5b858560208301376000602087830101525050509392505050565b80356001600160a01b03811681146119b057600080fd5b919050565b803580151581146119b057600080fd5b600082601f8301126119d5578081fd5b610c8783833560208501611923565b6000602082840312156119f5578081fd5b610c8782611999565b60008060408385031215611a10578081fd5b611a1983611999565b9150611a2760208401611999565b90509250929050565b600080600060608486031215611a44578081fd5b611a4d84611999565b9250611a5b60208501611999565b9150604084013590509250925092565b60008060008060808587031215611a80578081fd5b611a8985611999565b9350611a9760208601611999565b925060408501359150606085013567ffffffffffffffff811115611ab9578182fd5b8501601f81018713611ac9578182fd5b611ad887823560208401611923565b91505092959194509250565b60008060408385031215611af6578182fd5b611aff83611999565b9150611a27602084016119b5565b60008060408385031215611b1f578182fd5b611b2883611999565b9150602083013567ffffffffffffffff811115611b43578182fd5b611b4f858286016119c5565b9150509250929050565b60008060408385031215611b6b578182fd5b611b7483611999565b946020939093013593505050565b600060208284031215611b93578081fd5b610c87826119b5565b600060208284031215611bad578081fd5b8135610c8781611f2d565b600060208284031215611bc9578081fd5b8151610c8781611f2d565b600060208284031215611be5578081fd5b813567ffffffffffffffff811115611bfb578182fd5b610ed2848285016119c5565b600060208284031215611c18578081fd5b5035919050565b60008060408385031215611c31578182fd5b82359150611a27602084016119b5565b60008151808452611c59816020860160208601611e55565b601f01601f19169290920160200192915050565b60008351611c7f818460208801611e55565b835190830190611c93818360208801611e55565b01949350505050565b6001600160a01b0385811682528416602082015260408101839052608060608201819052600090611ccf90830184611c41565b9695505050505050565b602081526000610c876020830184611c41565b60208082526032908201527f4552433732313a207472616e7366657220746f206e6f6e20455243373231526560408201527131b2b4bb32b91034b6b83632b6b2b73a32b960711b606082015260800190565b6020808252602e908201527f496e697469616c697a61626c653a20636f6e747261637420697320616c72656160408201526d191e481a5b9a5d1a585b1a5e995960921b606082015260800190565b6020808252818101527f4f776e61626c653a2063616c6c6572206973206e6f7420746865206f776e6572604082015260600190565b60208082526031908201527f4552433732313a207472616e736665722063616c6c6572206973206e6f74206f6040820152701ddb995c881b9bdc88185c1c1c9bdd9959607a1b606082015260800190565b60008219821115611e2557611e25611eeb565b500190565b600082611e3957611e39611f01565b500490565b600082821015611e5057611e50611eeb565b500390565b60005b83811015611e70578181015183820152602001611e58565b838111156106845750506000910152565b600181811c90821680611e9557607f821691505b60208210811415611eb657634e487b7160e01b600052602260045260246000fd5b50919050565b6000600019821415611ed057611ed0611eeb565b5060010190565b600082611ee657611ee6611f01565b500690565b634e487b7160e01b600052601160045260246000fd5b634e487b7160e01b600052601260045260246000fd5b634e487b7160e01b600052604160045260246000fd5b6001600160e01b031981168114610d2657600080fdfea264697066735822122098b0b8c85e1063a4621101a8ea8b53b0d93942e407fb6f5bbc33970ece73dde564736f6c63430008040033",
  "linkReferences": {},
  "deployedLinkReferences": {}
}