{
  "_format": "hh-sol-artifact-1",
  "contractName": "BlockMint",
  "sourceName": "contracts/BlockMint.sol",
  "abi": [
    {
      "inputs": [
        {
          "internalType": "address",
          "name": "_stakingAddress",
          "type": "address"
        }
      ],
      "stateMutability": "nonpayable",
      "type": "constructor"
    },
    {
      "anonymous": false,
      "inputs": [
        {
          "indexed": true,
          "internalType": "address",
          "name": "owner",
          "type": "address"
        },
        {
          "indexed": true,
          "internalType": "address",
          "name": "approved",
          "type": "address"
        },
        {
          "indexed": true,
          "internalType": "uint256",
          "name": "tokenId",
          "type": "uint256"
        }
      ],
      "name": "Approval",
      "type": "event"
    },
    {
      "anonymous": false,
      "inputs": [
        {
          "indexed": true,
          "internalType": "address",
          "name": "owner",
          "type": "address"
        },
        {
          "indexed": true,
          "internalType": "address",
          "name": "operator",
          "type": "address"
        },
        {
          "indexed": false,
          "internalType": "bool",
          "name": "approved",
          "type": "bool"
        }
      ],
      "name": "ApprovalForAll",
      "type": "event"
    },
    {
      "anonymous": false,
      "inputs": [
        {
          "indexed": true,
          "internalType": "address",
          "name": "_from",
          "type": "address"
        },
        {
          "indexed": true,
          "internalType": "uint256",
          "name": "_id",
          "type": "uint256"
        },
        {
          "indexed": false,
          "internalType": "uint256",
          "name": "_value",
          "type": "uint256"
        }
      ],
      "name": "Deposit",
      "type": "event"
    },
    {
      "anonymous": false,
      "inputs": [
        {
          "indexed": true,
          "internalType": "address",
          "name": "previousOwner",
          "type": "address"
        },
        {
          "indexed": true,
          "internalType": "address",
          "name": "newOwner",
          "type": "address"
        }
      ],
      "name": "OwnershipTransferred",
      "type": "event"
    },
    {
      "anonymous": false,
      "inputs": [],
      "name": "PublicMintOpen",
      "type": "event"
    },
    {
      "anonymous": false,
      "inputs": [
        {
          "indexed": true,
          "internalType": "address",
          "name": "from",
          "type": "address"
        },
        {
          "indexed": true,
          "internalType": "address",
          "name": "to",
          "type": "address"
        },
        {
          "indexed": true,
          "internalType": "uint256",
          "name": "tokenId",
          "type": "uint256"
        }
      ],
      "name": "Transfer",
      "type": "event"
    },
    {
      "anonymous": false,
      "inputs": [],
      "name": "WhitelistMintOpen",
      "type": "event"
    },
    {
      "inputs": [],
      "name": "StakingAddress",
      "outputs": [
        {
          "internalType": "address",
          "name": "",
          "type": "address"
        }
      ],
      "stateMutability": "view",
      "type": "function"
    },
    {
      "inputs": [
        {
          "internalType": "address",
          "name": "to",
          "type": "address"
        },
        {
          "internalType": "uint256",
          "name": "tokenId",
          "type": "uint256"
        }
      ],
      "name": "approve",
      "outputs": [],
      "stateMutability": "nonpayable",
      "type": "function"
    },
    {
      "inputs": [
        {
          "internalType": "address",
          "name": "owner",
          "type": "address"
        }
      ],
      "name": "balanceOf",
      "outputs": [
        {
          "internalType": "uint256",
          "name": "",
          "type": "uint256"
        }
      ],
      "stateMutability": "view",
      "type": "function"
    },
    {
      "inputs": [
        {
          "internalType": "uint256",
          "name": "tokenId",
          "type": "uint256"
        }
      ],
      "name": "getApproved",
      "outputs": [
        {
          "internalType": "address",
          "name": "",
          "type": "address"
        }
      ],
      "stateMutability": "view",
      "type": "function"
    },
    {
      "inputs": [
        {
          "internalType": "address",
          "name": "owner",
          "type": "address"
        },
        {
          "internalType": "address",
          "name": "operator",
          "type": "address"
        }
      ],
      "name": "isApprovedForAll",
      "outputs": [
        {
          "internalType": "bool",
          "name": "",
          "type": "bool"
        }
      ],
      "stateMutability": "view",
      "type": "function"
    },
    {
      "inputs": [
        {
          "internalType": "uint256",
          "name": "amount",
          "type": "uint256"
        },
        {
          "internalType": "bool",
          "name": "stake",
          "type": "bool"
        }
      ],
      "name": "mint",
      "outputs": [],
      "stateMutability": "payable",
      "type": "function"
    },
    {
      "inputs": [],
      "name": "name",
      "outputs": [
        {
          "internalType": "string",
          "name": "",
          "type": "string"
        }
      ],
      "stateMutability": "view",
      "type": "function"
    },
    {
      "inputs": [],
      "name": "owner",
      "outputs": [
        {
          "internalType": "address",
          "name": "",
          "type": "address"
        }
      ],
      "stateMutability": "view",
      "type": "function"
    },
    {
      "inputs": [
        {
          "internalType": "uint256",
          "name": "tokenId",
          "type": "uint256"
        }
      ],
      "name": "ownerOf",
      "outputs": [
        {
          "internalType": "address",
          "name": "",
          "type": "address"
        }
      ],
      "stateMutability": "view",
      "type": "function"
    },
    {
      "inputs": [],
      "name": "publicMintOpen",
      "outputs": [
        {
          "internalType": "bool",
          "name": "",
          "type": "bool"
        }
      ],
      "stateMutability": "view",
      "type": "function"
    },
    {
      "inputs": [
        {
          "internalType": "address",
          "name": "",
          "type": "address"
        }
      ],
      "name": "publicMintedCounts",
      "outputs": [
        {
          "internalType": "uint256",
          "name": "",
          "type": "uint256"
        }
      ],
      "stateMutability": "view",
      "type": "function"
    },
    {
      "inputs": [],
      "name": "renounceOwnership",
      "outputs": [],
      "stateMutability": "nonpayable",
      "type": "function"
    },
    {
      "inputs": [
        {
          "internalType": "address",
          "name": "from",
          "type": "address"
        },
        {
          "internalType": "address",
          "name": "to",
          "type": "address"
        },
        {
          "internalType": "uint256",
          "name": "tokenId",
          "type": "uint256"
        }
      ],
      "name": "safeTransferFrom",
      "outputs": [],
      "stateMutability": "nonpayable",
      "type": "function"
    },
    {
      "inputs": [
        {
          "internalType": "address",
          "name": "from",
          "type": "address"
        },
        {
          "internalType": "address",
          "name": "to",
          "type": "address"
        },
        {
          "internalType": "uint256",
          "name": "tokenId",
          "type": "uint256"
        },
        {
          "internalType": "bytes",
          "name": "_data",
          "type": "bytes"
        }
      ],
      "name": "safeTransferFrom",
      "outputs": [],
      "stateMutability": "nonpayable",
      "type": "function"
    },
    {
      "inputs": [
        {
          "internalType": "address",
          "name": "operator",
          "type": "address"
        },
        {
          "internalType": "bool",
          "name": "approved",
          "type": "bool"
        }
      ],
      "name": "setApprovalForAll",
      "outputs": [],
      "stateMutability": "nonpayable",
      "type": "function"
    },
    {
      "inputs": [
        {
          "internalType": "string",
          "name": "baseTokenURI",
          "type": "string"
        }
      ],
      "name": "setBaseURI",
      "outputs": [],
      "stateMutability": "nonpayable",
      "type": "function"
    },
    {
      "inputs": [
        {
          "internalType": "bool",
          "name": "open",
          "type": "bool"
        }
      ],
      "name": "setPublicMintOpen",
      "outputs": [],
      "stateMutability": "nonpayable",
      "type": "function"
    },
    {
      "inputs": [
        {
          "internalType": "address",
          "name": "_StakingAddress",
          "type": "address"
        }
      ],
      "name": "setStakingAddress",
      "outputs": [],
      "stateMutability": "nonpayable",
      "type": "function"
    },
    {
      "inputs": [
        {
          "internalType": "bytes4",
          "name": "interfaceId",
          "type": "bytes4"
        }
      ],
      "name": "supportsInterface",
      "outputs": [
        {
          "internalType": "bool",
          "name": "",
          "type": "bool"
        }
      ],
      "stateMutability": "view",
      "type": "function"
    },
    {
      "inputs": [],
      "name": "symbol",
      "outputs": [
        {
          "internalType": "string",
          "name": "",
          "type": "string"
        }
      ],
      "stateMutability": "view",
      "type": "function"
    },
    {
      "inputs": [
        {
          "internalType": "uint256",
          "name": "tokenId",
          "type": "uint256"
        }
      ],
      "name": "tokenURI",
      "outputs": [
        {
          "internalType": "string",
          "name": "",
          "type": "string"
        }
      ],
      "stateMutability": "view",
      "type": "function"
    },
    {
      "inputs": [],
      "name": "totalSupply",
      "outputs": [
        {
          "internalType": "uint256",
          "name": "",
          "type": "uint256"
        }
      ],
      "stateMutability": "view",
      "type": "function"
    },
    {
      "inputs": [
        {
          "internalType": "address",
          "name": "from",
          "type": "address"
        },
        {
          "internalType": "address",
          "name": "to",
          "type": "address"
        },
        {
          "internalType": "uint256",
          "name": "tokenId",
          "type": "uint256"
        }
      ],
      "name": "transferFrom",
      "outputs": [],
      "stateMutability": "nonpayable",
      "type": "function"
    },
    {
      "inputs": [
        {
          "internalType": "address",
          "name": "newOwner",
          "type": "address"
        }
      ],
      "name": "transferOwnership",
      "outputs": [],
      "stateMutability": "nonpayable",
      "type": "function"
    },
    {
      "inputs": [],
      "name": "withdrawFunds",
      "outputs": [],
      "stateMutability": "nonpayable",
      "type": "function"
    }
  ],
  "bytecode": "0x6080604052600061274a5561274c805460ff1916905561274f80546001600160a01b03191673ebd5bf494ccf8a1fc7a42aa2edfb39b3890ea2201790553480156200004957600080fd5b5060405162001f9d38038062001f9d8339810160408190526200006c916200020f565b604080518082018252600a815269426c6f636b466f72676560b01b6020808301918252835180850190945260048452632125a62360e11b908401528151919291620000ba9160009162000169565b508051620000d090600190602084019062000169565b505050620000ed620000e76200011360201b60201c565b62000117565b600780546001600160a01b0319166001600160a01b03929092169190911790556200027c565b3390565b600680546001600160a01b038381166001600160a01b0319831681179093556040519116919082907f8be0079c531659141344cd1fd0a4f28419497f9722a3daafe3b4186f6b6457e090600090a35050565b82805462000177906200023f565b90600052602060002090601f0160209004810192826200019b5760008555620001e6565b82601f10620001b657805160ff1916838001178555620001e6565b82800160010185558215620001e6579182015b82811115620001e6578251825591602001919060010190620001c9565b50620001f4929150620001f8565b5090565b5b80821115620001f45760008155600101620001f9565b60006020828403121562000221578081fd5b81516001600160a01b038116811462000238578182fd5b9392505050565b600181811c908216806200025457607f821691505b602082108114156200027657634e487b7160e01b600052602260045260246000fd5b50919050565b611d11806200028c6000396000f3fe6080604052600436106101665760003560e01c806367f68fac116100d1578063a22cb4651161008a578063c87b56dd11610064578063c87b56dd1461041f578063e985e9c51461043f578063f2fde38b14610488578063f4e0d9ac146104a857600080fd5b8063a22cb465146103bf578063b88d4fde146103df578063bcc9ca5b146103ff57600080fd5b806367f68fac1461032457806370a0823114610337578063715018a6146103575780638da5cb5b1461036c578063953fb4fb1461038a57806395d89b41146103aa57600080fd5b806324600fc31161012357806324600fc31461026157806342842e0e1461027657806355f804b3146102965780636352211e146102b65780636387f804146102d65780636701cff7146102f657600080fd5b806301ffc9a71461016b57806306fdde03146101a0578063081812fc146101c2578063095ea7b3146101fa57806318160ddd1461021c57806323b872dd14610241575b600080fd5b34801561017757600080fd5b5061018b610186366004611950565b6104c8565b60405190151581526020015b60405180910390f35b3480156101ac57600080fd5b506101b561051a565b6040516101979190611aa0565b3480156101ce57600080fd5b506101e26101dd3660046119ce565b6105ac565b6040516001600160a01b039091168152602001610197565b34801561020657600080fd5b5061021a61021536600461190d565b610646565b005b34801561022857600080fd5b5061023361274d5481565b604051908152602001610197565b34801561024d57600080fd5b5061021a61025c366004611830565b61075c565b34801561026d57600080fd5b5061021a6107ac565b34801561028257600080fd5b5061021a610291366004611830565b6107eb565b3480156102a257600080fd5b5061021a6102b1366004611988565b610806565b3480156102c257600080fd5b506101e26102d13660046119ce565b610856565b3480156102e257600080fd5b5061021a6102f1366004611936565b6108cd565b34801561030257600080fd5b506102336103113660046117e4565b61274e6020526000908152604090205481565b61021a6103323660046119e6565b610937565b34801561034357600080fd5b506102336103523660046117e4565b610a69565b34801561036357600080fd5b5061021a610af0565b34801561037857600080fd5b506006546001600160a01b03166101e2565b34801561039657600080fd5b506007546101e2906001600160a01b031681565b3480156103b657600080fd5b506101b5610b26565b3480156103cb57600080fd5b5061021a6103da3660046118e4565b610b35565b3480156103eb57600080fd5b5061021a6103fa36600461186b565b610bfa565b34801561040b57600080fd5b5061274c5461018b90610100900460ff1681565b34801561042b57600080fd5b506101b561043a3660046119ce565b610c2c565b34801561044b57600080fd5b5061018b61045a3660046117fe565b6001600160a01b03918216600090815260056020908152604080832093909416825291909152205460ff1690565b34801561049457600080fd5b5061021a6104a33660046117e4565b610d07565b3480156104b457600080fd5b5061021a6104c33660046117e4565b610da2565b60006001600160e01b031982166380ac58cd60e01b14806104f957506001600160e01b03198216635b5e139f60e01b145b8061051457506301ffc9a760e01b6001600160e01b03198316145b92915050565b60606000805461052990611c19565b80601f016020809104026020016040519081016040528092919081815260200182805461055590611c19565b80156105a25780601f10610577576101008083540402835291602001916105a2565b820191906000526020600020905b81548152906001019060200180831161058557829003601f168201915b5050505050905090565b6000818152600260205260408120546001600160a01b031661062a5760405162461bcd60e51b815260206004820152602c60248201527f4552433732313a20617070726f76656420717565727920666f72206e6f6e657860448201526b34b9ba32b73a103a37b5b2b760a11b60648201526084015b60405180910390fd5b506000908152600460205260409020546001600160a01b031690565b600061065182610856565b9050806001600160a01b0316836001600160a01b031614156106bf5760405162461bcd60e51b815260206004820152602160248201527f4552433732313a20617070726f76616c20746f2063757272656e74206f776e656044820152603960f91b6064820152608401610621565b336001600160a01b03821614806106db57506106db813361045a565b61074d5760405162461bcd60e51b815260206004820152603860248201527f4552433732313a20617070726f76652063616c6c6572206973206e6f74206f7760448201527f6e6572206e6f7220617070726f76656420666f7220616c6c00000000000000006064820152608401610621565b6107578383610dee565b505050565b336107678183610e5c565b8061077f57506007546001600160a01b038281169116145b61079b5760405162461bcd60e51b815260040161062190611b3a565b6107a6848484610f53565b50505050565b61274f5460405147916001600160a01b03169082156108fc029083906000818181858888f193505050501580156107e7573d6000803e3d6000fd5b5050565b61075783838360405180602001604052806000815250610bfa565b6006546001600160a01b031633146108305760405162461bcd60e51b815260040161062190611b05565b80516108449061274b9060208401906116a9565b505061274c805460ff19166001179055565b6000818152600260205260408120546001600160a01b0316806105145760405162461bcd60e51b815260206004820152602960248201527f4552433732313a206f776e657220717565727920666f72206e6f6e657869737460448201526832b73a103a37b5b2b760b91b6064820152608401610621565b6006546001600160a01b031633146108f75760405162461bcd60e51b815260040161062190611b05565b61274c805461ff001916610100831515021790556040517f652bdb42d00441813d1211c6f4c84fe867279e472bfe04439e9c728deeffed0690600090a150565b3332811461097e5760405162461bcd60e51b815260206004820152601460248201527310d85b1b195c881a5cc8184818dbdb9d1c9858dd60621b6044820152606401610621565b803b80156109c55760405162461bcd60e51b815260206004820152601460248201527310d85b1b195c881a5cc8184818dbdb9d1c9858dd60621b6044820152606401610621565b33600090815261274e60205260408120546109e1908690611b8b565b90506109f161012c612710611bd6565b8561274d54610a009190611b8b565b1115610a445760405162461bcd60e51b8152602060048201526013602482015272151bdad95b88131a5b5a5d0814995858da1959606a1b6044820152606401610621565b33600081815261274e60205260409020829055610a629086866110f3565b5050505050565b60006001600160a01b038216610ad45760405162461bcd60e51b815260206004820152602a60248201527f4552433732313a2062616c616e636520717565727920666f7220746865207a65604482015269726f206164647265737360b01b6064820152608401610621565b506001600160a01b031660009081526003602052604090205490565b6006546001600160a01b03163314610b1a5760405162461bcd60e51b815260040161062190611b05565b610b246000611278565b565b60606001805461052990611c19565b6001600160a01b038216331415610b8e5760405162461bcd60e51b815260206004820152601960248201527f4552433732313a20617070726f766520746f2063616c6c6572000000000000006044820152606401610621565b3360008181526005602090815260408083206001600160a01b03871680855290835292819020805460ff191686151590811790915590519081529192917f17307eab39ab6107e8899845ad3d59bd9653f200f220920489ca2b5937696c31910160405180910390a35050565b610c043383610e5c565b610c205760405162461bcd60e51b815260040161062190611b3a565b6107a6848484846112ca565b6000818152600260205260409020546060906001600160a01b0316610cab5760405162461bcd60e51b815260206004820152602f60248201527f4552433732314d657461646174613a2055524920717565727920666f72206e6f60448201526e3732bc34b9ba32b73a103a37b5b2b760891b6064820152608401610621565b6000610cb56112fd565b90506000815111610cd55760405180602001604052806000815250610d00565b80610cdf8461130d565b604051602001610cf0929190611a34565b6040516020818303038152906040525b9392505050565b6006546001600160a01b03163314610d315760405162461bcd60e51b815260040161062190611b05565b6001600160a01b038116610d965760405162461bcd60e51b815260206004820152602660248201527f4f776e61626c653a206e6577206f776e657220697320746865207a65726f206160448201526564647265737360d01b6064820152608401610621565b610d9f81611278565b50565b6006546001600160a01b03163314610dcc5760405162461bcd60e51b815260040161062190611b05565b600780546001600160a01b0319166001600160a01b0392909216919091179055565b600081815260046020526040902080546001600160a01b0319166001600160a01b0384169081179091558190610e2382610856565b6001600160a01b03167f8c5be1e5ebec7d5bd14f71427d1e84f3dd0314c0f7b2291e5b200ac8c7c3b92560405160405180910390a45050565b6000818152600260205260408120546001600160a01b0316610ed55760405162461bcd60e51b815260206004820152602c60248201527f4552433732313a206f70657261746f7220717565727920666f72206e6f6e657860448201526b34b9ba32b73a103a37b5b2b760a11b6064820152608401610621565b6000610ee083610856565b9050806001600160a01b0316846001600160a01b03161480610f1b5750836001600160a01b0316610f10846105ac565b6001600160a01b0316145b80610f4b57506001600160a01b0380821660009081526005602090815260408083209388168352929052205460ff165b949350505050565b826001600160a01b0316610f6682610856565b6001600160a01b031614610fce5760405162461bcd60e51b815260206004820152602960248201527f4552433732313a207472616e73666572206f6620746f6b656e2074686174206960448201526839903737ba1037bbb760b91b6064820152608401610621565b6001600160a01b0382166110305760405162461bcd60e51b8152602060048201526024808201527f4552433732313a207472616e7366657220746f20746865207a65726f206164646044820152637265737360e01b6064820152608401610621565b61103b600082610dee565b6001600160a01b0383166000908152600360205260408120805460019290611064908490611bd6565b90915550506001600160a01b0382166000908152600360205260408120805460019290611092908490611b8b565b909155505060008181526002602052604080822080546001600160a01b0319166001600160a01b0386811691821790925591518493918716917fddf252ad1be2c89b69c2b068fc378daa952ba7f163c4a11628f55a4df523b3ef91a4505050565b600260085414156111465760405162461bcd60e51b815260206004820152601f60248201527f5265656e7472616e637947756172643a207265656e7472616e742063616c6c006044820152606401610621565b60026008558161118b5760405162461bcd60e51b815260206004820152601060248201526f105b5bdd5b9d081d1bdbc81cdb585b1b60821b6044820152606401610621565b61119c8266470de4df820000611bb7565b34146111a757600080fd5b61274d5460005b8381101561125457611203836111c457856111d1565b6007546001600160a01b03165b6111db8385611b8b565b604080516001600160a01b038a16602082015201604051602081830303815290604052611427565b61120d8183611b8b565b60405134815233907f90890809c654f11d6e72a28fa60149770a0d11ec6c92319d6ceb2bb0a4ea1a159060200160405180910390a38061124c81611c54565b9150506111ae565b508261274d60008282546112689190611b8b565b9091555050600160085550505050565b600680546001600160a01b038381166001600160a01b0319831681179093556040519116919082907f8be0079c531659141344cd1fd0a4f28419497f9722a3daafe3b4186f6b6457e090600090a35050565b6112d5848484610f53565b6112e18484848461145a565b6107a65760405162461bcd60e51b815260040161062190611ab3565b606061274b805461052990611c19565b6060816113315750506040805180820190915260018152600360fc1b602082015290565b8160005b811561135b578061134581611c54565b91506113549050600a83611ba3565b9150611335565b60008167ffffffffffffffff81111561138457634e487b7160e01b600052604160045260246000fd5b6040519080825280601f01601f1916602001820160405280156113ae576020820181803683370190505b5090505b8415610f4b576113c3600183611bd6565b91506113d0600a86611c6f565b6113db906030611b8b565b60f81b8183815181106113fe57634e487b7160e01b600052603260045260246000fd5b60200101906001600160f81b031916908160001a905350611420600a86611ba3565b94506113b2565b6114318383611567565b61143e600084848461145a565b6107575760405162461bcd60e51b815260040161062190611ab3565b60006001600160a01b0384163b1561155c57604051630a85bd0160e11b81526001600160a01b0385169063150b7a029061149e903390899088908890600401611a63565b602060405180830381600087803b1580156114b857600080fd5b505af19250505080156114e8575060408051601f3d908101601f191682019092526114e59181019061196c565b60015b611542573d808015611516576040519150601f19603f3d011682016040523d82523d6000602084013e61151b565b606091505b50805161153a5760405162461bcd60e51b815260040161062190611ab3565b805181602001fd5b6001600160e01b031916630a85bd0160e11b149050610f4b565b506001949350505050565b6001600160a01b0382166115bd5760405162461bcd60e51b815260206004820181905260248201527f4552433732313a206d696e7420746f20746865207a65726f20616464726573736044820152606401610621565b6000818152600260205260409020546001600160a01b0316156116225760405162461bcd60e51b815260206004820152601c60248201527f4552433732313a20746f6b656e20616c7265616479206d696e746564000000006044820152606401610621565b6001600160a01b038216600090815260036020526040812080546001929061164b908490611b8b565b909155505060008181526002602052604080822080546001600160a01b0319166001600160a01b03861690811790915590518392907fddf252ad1be2c89b69c2b068fc378daa952ba7f163c4a11628f55a4df523b3ef908290a45050565b8280546116b590611c19565b90600052602060002090601f0160209004810192826116d7576000855561171d565b82601f106116f057805160ff191683800117855561171d565b8280016001018555821561171d579182015b8281111561171d578251825591602001919060010190611702565b5061172992915061172d565b5090565b5b80821115611729576000815560010161172e565b600067ffffffffffffffff8084111561175d5761175d611caf565b604051601f8501601f19908116603f0116810190828211818310171561178557611785611caf565b8160405280935085815286868601111561179e57600080fd5b858560208301376000602087830101525050509392505050565b80356001600160a01b03811681146117cf57600080fd5b919050565b803580151581146117cf57600080fd5b6000602082840312156117f5578081fd5b610d00826117b8565b60008060408385031215611810578081fd5b611819836117b8565b9150611827602084016117b8565b90509250929050565b600080600060608486031215611844578081fd5b61184d846117b8565b925061185b602085016117b8565b9150604084013590509250925092565b60008060008060808587031215611880578081fd5b611889856117b8565b9350611897602086016117b8565b925060408501359150606085013567ffffffffffffffff8111156118b9578182fd5b8501601f810187136118c9578182fd5b6118d887823560208401611742565b91505092959194509250565b600080604083850312156118f6578182fd5b6118ff836117b8565b9150611827602084016117d4565b6000806040838503121561191f578182fd5b611928836117b8565b946020939093013593505050565b600060208284031215611947578081fd5b610d00826117d4565b600060208284031215611961578081fd5b8135610d0081611cc5565b60006020828403121561197d578081fd5b8151610d0081611cc5565b600060208284031215611999578081fd5b813567ffffffffffffffff8111156119af578182fd5b8201601f810184136119bf578182fd5b610f4b84823560208401611742565b6000602082840312156119df578081fd5b5035919050565b600080604083850312156119f8578182fd5b82359150611827602084016117d4565b60008151808452611a20816020860160208601611bed565b601f01601f19169290920160200192915050565b60008351611a46818460208801611bed565b835190830190611a5a818360208801611bed565b01949350505050565b6001600160a01b0385811682528416602082015260408101839052608060608201819052600090611a9690830184611a08565b9695505050505050565b602081526000610d006020830184611a08565b60208082526032908201527f4552433732313a207472616e7366657220746f206e6f6e20455243373231526560408201527131b2b4bb32b91034b6b83632b6b2b73a32b960711b606082015260800190565b6020808252818101527f4f776e61626c653a2063616c6c6572206973206e6f7420746865206f776e6572604082015260600190565b60208082526031908201527f4552433732313a207472616e736665722063616c6c6572206973206e6f74206f6040820152701ddb995c881b9bdc88185c1c1c9bdd9959607a1b606082015260800190565b60008219821115611b9e57611b9e611c83565b500190565b600082611bb257611bb2611c99565b500490565b6000816000190483118215151615611bd157611bd1611c83565b500290565b600082821015611be857611be8611c83565b500390565b60005b83811015611c08578181015183820152602001611bf0565b838111156107a65750506000910152565b600181811c90821680611c2d57607f821691505b60208210811415611c4e57634e487b7160e01b600052602260045260246000fd5b50919050565b6000600019821415611c6857611c68611c83565b5060010190565b600082611c7e57611c7e611c99565b500690565b634e487b7160e01b600052601160045260246000fd5b634e487b7160e01b600052601260045260246000fd5b634e487b7160e01b600052604160045260246000fd5b6001600160e01b031981168114610d9f57600080fdfea264697066735822122013f8ebbb6f7f201ea03652551afa5bc1bf66424a31eec34c388a8d8d065b362a64736f6c63430008040033",
  "linkReferences": {},
  "deployedLinkReferences": {}
}