{
  "_format": "hh-sol-artifact-1",
  "contractName": "dBank",
  "sourceName": "contracts/dBank.sol",
  "abi": [
    {
      "inputs": [
        {
          "internalType": "contract Token",
          "name": "_token",
          "type": "address"
        }
      ],
      "stateMutability": "nonpayable",
      "type": "constructor"
    },
    {
      "anonymous": false,
      "inputs": [
        {
          "indexed": true,
          "internalType": "address",
          "name": "user",
          "type": "address"
        },
        {
          "indexed": false,
          "internalType": "uint256",
          "name": "collateralEtherAmount",
          "type": "uint256"
        },
        {
          "indexed": false,
          "internalType": "uint256",
          "name": "borrowedTokenAmount",
          "type": "uint256"
        }
      ],
      "name": "Borrow",
      "type": "event"
    },
    {
      "anonymous": false,
      "inputs": [
        {
          "indexed": true,
          "internalType": "address",
          "name": "user",
          "type": "address"
        },
        {
          "indexed": false,
          "internalType": "uint256",
          "name": "etherAmount",
          "type": "uint256"
        },
        {
          "indexed": false,
          "internalType": "uint256",
          "name": "timeStart",
          "type": "uint256"
        }
      ],
      "name": "Deposit",
      "type": "event"
    },
    {
      "anonymous": false,
      "inputs": [
        {
          "indexed": true,
          "internalType": "address",
          "name": "user",
          "type": "address"
        },
        {
          "indexed": false,
          "internalType": "uint256",
          "name": "fee",
          "type": "uint256"
        }
      ],
      "name": "PayOff",
      "type": "event"
    },
    {
      "anonymous": false,
      "inputs": [
        {
          "indexed": true,
          "internalType": "address",
          "name": "user",
          "type": "address"
        },
        {
          "indexed": false,
          "internalType": "uint256",
          "name": "etherAmount",
          "type": "uint256"
        },
        {
          "indexed": false,
          "internalType": "uint256",
          "name": "depositTime",
          "type": "uint256"
        },
        {
          "indexed": false,
          "internalType": "uint256",
          "name": "interest",
          "type": "uint256"
        }
      ],
      "name": "Withdraw",
      "type": "event"
    },
    {
      "inputs": [],
      "name": "borrow",
      "outputs": [],
      "stateMutability": "payable",
      "type": "function"
    },
    {
      "inputs": [
        {
          "internalType": "address",
          "name": "",
          "type": "address"
        }
      ],
      "name": "collateralEther",
      "outputs": [
        {
          "internalType": "uint256",
          "name": "",
          "type": "uint256"
        }
      ],
      "stateMutability": "view",
      "type": "function"
    },
    {
      "inputs": [],
      "name": "deposit",
      "outputs": [],
      "stateMutability": "payable",
      "type": "function"
    },
    {
      "inputs": [
        {
          "internalType": "address",
          "name": "",
          "type": "address"
        }
      ],
      "name": "depositStart",
      "outputs": [
        {
          "internalType": "uint256",
          "name": "",
          "type": "uint256"
        }
      ],
      "stateMutability": "view",
      "type": "function"
    },
    {
      "inputs": [
        {
          "internalType": "address",
          "name": "",
          "type": "address"
        }
      ],
      "name": "etherBalanceOf",
      "outputs": [
        {
          "internalType": "uint256",
          "name": "",
          "type": "uint256"
        }
      ],
      "stateMutability": "view",
      "type": "function"
    },
    {
      "inputs": [
        {
          "internalType": "address",
          "name": "",
          "type": "address"
        }
      ],
      "name": "isBorrowed",
      "outputs": [
        {
          "internalType": "bool",
          "name": "",
          "type": "bool"
        }
      ],
      "stateMutability": "view",
      "type": "function"
    },
    {
      "inputs": [
        {
          "internalType": "address",
          "name": "",
          "type": "address"
        }
      ],
      "name": "isDeposited",
      "outputs": [
        {
          "internalType": "bool",
          "name": "",
          "type": "bool"
        }
      ],
      "stateMutability": "view",
      "type": "function"
    },
    {
      "inputs": [],
      "name": "payOff",
      "outputs": [],
      "stateMutability": "nonpayable",
      "type": "function"
    },
    {
      "inputs": [],
      "name": "withdraw",
      "outputs": [],
      "stateMutability": "nonpayable",
      "type": "function"
    }
  ],
  "bytecode": "0x608060405234801561001057600080fd5b50604051610a99380380610a9983398101604081905261002f91610054565b600080546001600160a01b0319166001600160a01b0392909216919091179055610082565b600060208284031215610065578081fd5b81516001600160a01b038116811461007b578182fd5b9392505050565b610a08806100916000396000f3fe6080604052600436106100865760003560e01c806375a40d2a1161005957806375a40d2a14610137578063cdebd93214610164578063d0e30db014610194578063e68d35691461019c578063ff87930a146101a457600080fd5b8063179fc99f1461008b5780633ccfd60b146100cb5780633fac68d5146100e257806373732024146100f7575b600080fd5b34801561009757600080fd5b506100b86100a6366004610900565b60016020526000908152604090205481565b6040519081526020015b60405180910390f35b3480156100d757600080fd5b506100e06101d1565b005b3480156100ee57600080fd5b506100e06103ae565b34801561010357600080fd5b50610127610112366004610900565b60046020526000908152604090205460ff1681565b60405190151581526020016100c2565b34801561014357600080fd5b506100b8610152366004610900565b60036020526000908152604090205481565b34801561017057600080fd5b5061012761017f366004610900565b60056020526000908152604090205460ff1681565b6100e06105d1565b6100e0610741565b3480156101b057600080fd5b506100b86101bf366004610900565b60026020526000908152604090205481565b3360009081526004602052604090205460ff16151560011461023a5760405162461bcd60e51b815260206004820152601a60248201527f4572726f722c206e6f2070726576696f7573206465706f73697400000000000060448201526064015b60405180910390fd5b33600090815260016020908152604080832054600290925282205490919061026290426109a5565b336000908152600160205260408120549192509061028890662386f26fc1000090610966565b610296906301e33731610986565b905060006102a48383610986565b604051909150339085156108fc029086906000818181858888f193505050501580156102d4573d6000803e3d6000fd5b506000546040516340c10f1960e01b8152336004820152602481018390526001600160a01b03909116906340c10f1990604401600060405180830381600087803b15801561032157600080fd5b505af1158015610335573d6000803e3d6000fd5b5050336000818152600260209081526040808320839055600182528083208390556004825291829020805460ff1916905581518981529081018890529081018590529092507f02f25270a4d87bea75db541cdfe559334a275b4a233520ed6c0a2429667cca94915060600160405180910390a250505050565b3360009081526005602052604090205460ff16151560011461040a5760405162461bcd60e51b81526020600482015260156024820152744572726f722c206c6f61206e6f742061637469766560581b6044820152606401610231565b600080543380835260036020526040909220546001600160a01b03909116916323b872dd91309061043d90611194610986565b6040516001600160e01b031960e086901b1681526001600160a01b0393841660048201529290911660248301526044820152606401602060405180830381600087803b15801561048c57600080fd5b505af11580156104a0573d6000803e3d6000fd5b505050506040513d601f19601f820116820180604052508101906104c4919061092e565b6105105760405162461bcd60e51b815260206004820152601b60248201527f4572726f722c2063616e2774207265636569766520746f6b656e7300000000006044820152606401610231565b3360009081526003602052604081205461052c90600a90610966565b33600081815260036020526040902054919250906108fc9061054f9084906109a5565b6040518115909202916000818181858888f19350505050158015610577573d6000803e3d6000fd5b503360008181526003602090815260408083208390556005825291829020805460ff1916905590518381527ffd9bbd044fa427970e4d882ebbb4a89ce422dc29b23f2777a14a93ecdf42c64491015b60405180910390a250565b3360009081526004602052604090205460ff16156106315760405162461bcd60e51b815260206004820152601d60248201527f4572726f722c206465706f73697420616c7265616479206163746976650000006044820152606401610231565b662386f26fc100003410156106935760405162461bcd60e51b815260206004820152602260248201527f4572726f722c206465706f736974206d757374206265203e3d20302e303120456044820152610a8960f31b6064820152608401610231565b336000908152600160205260409020546106ae90349061094e565b336000908152600160209081526040808320939093556002905220546106d590429061094e565b3360008181526002602090815260408083209490945560049052829020805460ff1916600117905590517f90890809c654f11d6e72a28fa60149770a0d11ec6c92319d6ceb2bb0a4ea1a15906107379034904290918252602082015260400190565b60405180910390a2565b662386f26fc100003410156107a65760405162461bcd60e51b815260206004820152602560248201527f4572726f722c20636f6c6c61746572616c206d757374206265203e3d20302e30604482015264062408aa8960db1b6064820152608401610231565b3360009081526005602052604090205460ff16156108065760405162461bcd60e51b815260206004820152601960248201527f4572726f722c206c6f616e20616c72656164792074616b656e000000000000006044820152606401610231565b3360009081526003602052604090205461082190349061094e565b3360009081526003602052604081208290559061084090611194610986565b6000546040516340c10f1960e01b8152336004820152602481018390529192506001600160a01b0316906340c10f1990604401600060405180830381600087803b15801561088d57600080fd5b505af11580156108a1573d6000803e3d6000fd5b5050336000818152600560209081526040808320805460ff1916600117905560038252918290205482519081529081018690529193507fe1979fe4c35e0cef342fef5668e2c8e7a7e9f5d5d1ca8fee0ac6c427fa4153af9250016105c6565b600060208284031215610911578081fd5b81356001600160a01b0381168114610927578182fd5b9392505050565b60006020828403121561093f578081fd5b81518015158114610927578182fd5b60008219821115610961576109616109bc565b500190565b60008261098157634e487b7160e01b81526012600452602481fd5b500490565b60008160001904831182151516156109a0576109a06109bc565b500290565b6000828210156109b7576109b76109bc565b500390565b634e487b7160e01b600052601160045260246000fdfea2646970667358221220b96571c8e0bcdcc1e9302eff116d4e8b7b4b79c0f8839f051944daca40c326ba64736f6c63430008040033",
  "linkReferences": {},
  "deployedLinkReferences": {}
}